{
	"contracts/7_controlcondition.sol": {
		"ControllCondition": {
			"abi": [
				{
					"inputs": [
						{
							"internalType": "uint256",
							"name": "_value",
							"type": "uint256"
						}
					],
					"name": "setValue",
					"outputs": [],
					"stateMutability": "nonpayable",
					"type": "function"
				}
			],
			"devdoc": {
				"kind": "dev",
				"methods": {},
				"version": 1
			},
			"evm": {
				"assembly": "    /* \"contracts/7_controlcondition.sol\":57:818  contract ControllCondition {... */\n  mstore(0x40, 0x80)\n  callvalue\n  dup1\n  iszero\n  tag_1\n  jumpi\n  0x00\n  dup1\n  revert\ntag_1:\n  pop\n  dataSize(sub_0)\n  dup1\n  dataOffset(sub_0)\n  0x00\n  codecopy\n  0x00\n  return\nstop\n\nsub_0: assembly {\n        /* \"contracts/7_controlcondition.sol\":57:818  contract ControllCondition {... */\n      mstore(0x40, 0x80)\n      callvalue\n      dup1\n      iszero\n      tag_1\n      jumpi\n      0x00\n      dup1\n      revert\n    tag_1:\n      pop\n      jumpi(tag_2, lt(calldatasize, 0x04))\n      shr(0xe0, calldataload(0x00))\n      dup1\n      0x55241077\n      eq\n      tag_3\n      jumpi\n    tag_2:\n      0x00\n      dup1\n      revert\n        /* \"contracts/7_controlcondition.sol\":218:816  function setValue(uint _value) external {... */\n    tag_3:\n      tag_4\n      0x04\n      dup1\n      calldatasize\n      sub\n      dup2\n      add\n      swap1\n      tag_5\n      swap2\n      swap1\n      tag_6\n      jump\t// in\n    tag_5:\n      tag_7\n      jump\t// in\n    tag_4:\n      stop\n    tag_7:\n        /* \"contracts/7_controlcondition.sol\":285:289  true */\n      0x01\n        /* \"contracts/7_controlcondition.sol\":272:289  isEnabled == true */\n      iszero\n      iszero\n        /* \"contracts/7_controlcondition.sol\":272:281  isEnabled */\n      0x00\n      dup1\n      sload\n      swap1\n      0x0100\n      exp\n      swap1\n      div\n      0xff\n      and\n        /* \"contracts/7_controlcondition.sol\":272:289  isEnabled == true */\n      iszero\n      iszero\n      eq\n        /* \"contracts/7_controlcondition.sol\":272:299  isEnabled == true && a == 1 */\n      dup1\n      iszero\n      tag_9\n      jumpi\n      pop\n        /* \"contracts/7_controlcondition.sol\":298:299  1 */\n      0x01\n        /* \"contracts/7_controlcondition.sol\":293:294  a */\n      dup1\n      sload\n        /* \"contracts/7_controlcondition.sol\":293:299  a == 1 */\n      eq\n        /* \"contracts/7_controlcondition.sol\":272:299  isEnabled == true && a == 1 */\n    tag_9:\n        /* \"contracts/7_controlcondition.sol\":268:810  if (isEnabled == true && a == 1) {... */\n      iszero\n      tag_10\n      jumpi\n        /* \"contracts/7_controlcondition.sol\":346:347  2 */\n      0x02\n        /* \"contracts/7_controlcondition.sol\":342:343  a */\n      0x01\n        /* \"contracts/7_controlcondition.sol\":342:347  a = 2 */\n      dup2\n      swap1\n      sstore\n      pop\n        /* \"contracts/7_controlcondition.sol\":361:512  while (isEnabled) {... */\n    tag_11:\n        /* \"contracts/7_controlcondition.sol\":368:377  isEnabled */\n      0x00\n      dup1\n      sload\n      swap1\n      0x0100\n      exp\n      swap1\n      div\n      0xff\n      and\n        /* \"contracts/7_controlcondition.sol\":361:512  while (isEnabled) {... */\n      iszero\n      tag_12\n      jumpi\n        /* \"contracts/7_controlcondition.sol\":406:407  5 */\n      0x05\n        /* \"contracts/7_controlcondition.sol\":401:402  a */\n      sload(0x01)\n        /* \"contracts/7_controlcondition.sol\":401:407  a == 5 */\n      eq\n        /* \"contracts/7_controlcondition.sol\":397:467  if (a == 5) {... */\n      iszero\n      tag_13\n      jumpi\n        /* \"contracts/7_controlcondition.sol\":443:448  false */\n      0x00\n        /* \"contracts/7_controlcondition.sol\":431:440  isEnabled */\n      dup1\n      0x00\n        /* \"contracts/7_controlcondition.sol\":431:448  isEnabled = false */\n      0x0100\n      exp\n      dup2\n      sload\n      dup2\n      0xff\n      mul\n      not\n      and\n      swap1\n      dup4\n      iszero\n      iszero\n      mul\n      or\n      swap1\n      sstore\n      pop\n        /* \"contracts/7_controlcondition.sol\":397:467  if (a == 5) {... */\n    tag_13:\n        /* \"contracts/7_controlcondition.sol\":361:512  while (isEnabled) {... */\n      jump(tag_11)\n    tag_12:\n        /* \"contracts/7_controlcondition.sol\":268:810  if (isEnabled == true && a == 1) {... */\n      jump(tag_14)\n    tag_10:\n        /* \"contracts/7_controlcondition.sol\":575:581  uint i */\n      0x00\n        /* \"contracts/7_controlcondition.sol\":570:800  for (uint i = 0; i < 10; i++) {... */\n    tag_15:\n        /* \"contracts/7_controlcondition.sol\":591:593  10 */\n      0x0a\n        /* \"contracts/7_controlcondition.sol\":587:588  i */\n      dup2\n        /* \"contracts/7_controlcondition.sol\":587:593  i < 10 */\n      lt\n        /* \"contracts/7_controlcondition.sol\":570:800  for (uint i = 0; i < 10; i++) {... */\n      iszero\n      tag_16\n      jumpi\n        /* \"contracts/7_controlcondition.sol\":658:659  9 */\n      0x09\n        /* \"contracts/7_controlcondition.sol\":653:654  i */\n      dup2\n        /* \"contracts/7_controlcondition.sol\":653:659  i == 9 */\n      eq\n        /* \"contracts/7_controlcondition.sol\":649:707  if (i == 9) {... */\n      iszero\n      tag_18\n      jumpi\n        /* \"contracts/7_controlcondition.sol\":683:688  break */\n      jump(tag_16)\n        /* \"contracts/7_controlcondition.sol\":649:707  if (i == 9) {... */\n    tag_18:\n        /* \"contracts/7_controlcondition.sol\":733:734  5 */\n      0x05\n        /* \"contracts/7_controlcondition.sol\":728:729  i */\n      dup2\n        /* \"contracts/7_controlcondition.sol\":728:734  i == 5 */\n      eq\n        /* \"contracts/7_controlcondition.sol\":724:786  if (i == 5) {... */\n      iszero\n      tag_19\n      jumpi\n        /* \"contracts/7_controlcondition.sol\":758:766  continue */\n      jump(tag_17)\n        /* \"contracts/7_controlcondition.sol\":724:786  if (i == 5) {... */\n    tag_19:\n        /* \"contracts/7_controlcondition.sol\":570:800  for (uint i = 0; i < 10; i++) {... */\n    tag_17:\n        /* \"contracts/7_controlcondition.sol\":595:598  i++ */\n      dup1\n      dup1\n      tag_20\n      swap1\n      tag_21\n      jump\t// in\n    tag_20:\n      swap2\n      pop\n      pop\n        /* \"contracts/7_controlcondition.sol\":570:800  for (uint i = 0; i < 10; i++) {... */\n      jump(tag_15)\n    tag_16:\n      pop\n        /* \"contracts/7_controlcondition.sol\":268:810  if (isEnabled == true && a == 1) {... */\n    tag_14:\n        /* \"contracts/7_controlcondition.sol\":218:816  function setValue(uint _value) external {... */\n      pop\n      jump\t// out\n        /* \"#utility.yul\":7:146   */\n    tag_23:\n      0x00\n        /* \"#utility.yul\":91:97   */\n      dup2\n        /* \"#utility.yul\":78:98   */\n      calldataload\n        /* \"#utility.yul\":69:98   */\n      swap1\n      pop\n        /* \"#utility.yul\":107:140   */\n      tag_25\n        /* \"#utility.yul\":134:139   */\n      dup2\n        /* \"#utility.yul\":107:140   */\n      tag_26\n      jump\t// in\n    tag_25:\n        /* \"#utility.yul\":59:146   */\n      swap3\n      swap2\n      pop\n      pop\n      jump\t// out\n        /* \"#utility.yul\":152:414   */\n    tag_6:\n      0x00\n        /* \"#utility.yul\":260:262   */\n      0x20\n        /* \"#utility.yul\":248:257   */\n      dup3\n        /* \"#utility.yul\":239:246   */\n      dup5\n        /* \"#utility.yul\":235:258   */\n      sub\n        /* \"#utility.yul\":231:263   */\n      slt\n        /* \"#utility.yul\":228:230   */\n      iszero\n      tag_28\n      jumpi\n        /* \"#utility.yul\":276:277   */\n      0x00\n        /* \"#utility.yul\":273:274   */\n      dup1\n        /* \"#utility.yul\":266:278   */\n      revert\n        /* \"#utility.yul\":228:230   */\n    tag_28:\n        /* \"#utility.yul\":319:320   */\n      0x00\n        /* \"#utility.yul\":344:397   */\n      tag_29\n        /* \"#utility.yul\":389:396   */\n      dup5\n        /* \"#utility.yul\":380:386   */\n      dup3\n        /* \"#utility.yul\":369:378   */\n      dup6\n        /* \"#utility.yul\":365:387   */\n      add\n        /* \"#utility.yul\":344:397   */\n      tag_23\n      jump\t// in\n    tag_29:\n        /* \"#utility.yul\":334:397   */\n      swap2\n      pop\n        /* \"#utility.yul\":290:407   */\n      pop\n        /* \"#utility.yul\":218:414   */\n      swap3\n      swap2\n      pop\n      pop\n      jump\t// out\n        /* \"#utility.yul\":420:497   */\n    tag_30:\n      0x00\n        /* \"#utility.yul\":486:491   */\n      dup2\n        /* \"#utility.yul\":475:491   */\n      swap1\n      pop\n        /* \"#utility.yul\":465:497   */\n      swap2\n      swap1\n      pop\n      jump\t// out\n        /* \"#utility.yul\":503:736   */\n    tag_21:\n      0x00\n        /* \"#utility.yul\":565:589   */\n      tag_33\n        /* \"#utility.yul\":583:588   */\n      dup3\n        /* \"#utility.yul\":565:589   */\n      tag_30\n      jump\t// in\n    tag_33:\n        /* \"#utility.yul\":556:589   */\n      swap2\n      pop\n        /* \"#utility.yul\":611:677   */\n      0xffffffffffffffffffffffffffffffffffffffffffffffffffffffffffffffff\n        /* \"#utility.yul\":604:609   */\n      dup3\n        /* \"#utility.yul\":601:678   */\n      eq\n        /* \"#utility.yul\":598:600   */\n      iszero\n      tag_34\n      jumpi\n        /* \"#utility.yul\":681:699   */\n      tag_35\n      tag_36\n      jump\t// in\n    tag_35:\n        /* \"#utility.yul\":598:600   */\n    tag_34:\n        /* \"#utility.yul\":728:729   */\n      0x01\n        /* \"#utility.yul\":721:726   */\n      dup3\n        /* \"#utility.yul\":717:730   */\n      add\n        /* \"#utility.yul\":710:730   */\n      swap1\n      pop\n        /* \"#utility.yul\":546:736   */\n      swap2\n      swap1\n      pop\n      jump\t// out\n        /* \"#utility.yul\":742:922   */\n    tag_36:\n        /* \"#utility.yul\":790:867   */\n      0x4e487b7100000000000000000000000000000000000000000000000000000000\n        /* \"#utility.yul\":787:788   */\n      0x00\n        /* \"#utility.yul\":780:868   */\n      mstore\n        /* \"#utility.yul\":887:891   */\n      0x11\n        /* \"#utility.yul\":884:885   */\n      0x04\n        /* \"#utility.yul\":877:892   */\n      mstore\n        /* \"#utility.yul\":911:915   */\n      0x24\n        /* \"#utility.yul\":908:909   */\n      0x00\n        /* \"#utility.yul\":901:916   */\n      revert\n        /* \"#utility.yul\":928:1050   */\n    tag_26:\n        /* \"#utility.yul\":1001:1025   */\n      tag_39\n        /* \"#utility.yul\":1019:1024   */\n      dup2\n        /* \"#utility.yul\":1001:1025   */\n      tag_30\n      jump\t// in\n    tag_39:\n        /* \"#utility.yul\":994:999   */\n      dup2\n        /* \"#utility.yul\":991:1026   */\n      eq\n        /* \"#utility.yul\":981:983   */\n      tag_40\n      jumpi\n        /* \"#utility.yul\":1040:1041   */\n      0x00\n        /* \"#utility.yul\":1037:1038   */\n      dup1\n        /* \"#utility.yul\":1030:1042   */\n      revert\n        /* \"#utility.yul\":981:983   */\n    tag_40:\n        /* \"#utility.yul\":971:1050   */\n      pop\n      jump\t// out\n\n    auxdata: 0xa2646970667358221220c9e0aced8fcc5400717b432549a27e82e5861dc381eac41595c1654807faaeb264736f6c63430008030033\n}\n",
				"bytecode": {
					"linkReferences": {},
					"object": "608060405234801561001057600080fd5b5061020d806100206000396000f3fe608060405234801561001057600080fd5b506004361061002b5760003560e01c80635524107714610030575b600080fd5b61004a60048036038101906100459190610115565b61004c565b005b6001151560008054906101000a900460ff16151514801561006e575060018054145b156100bf5760026001819055505b60008054906101000a900460ff16156100ba57600560015414156100b55760008060006101000a81548160ff0219169083151502179055505b61007c565b6100fd565b60005b600a8110156100fb5760098114156100d9576100fb565b60058114156100e7576100e8565b5b80806100f390610148565b9150506100c2565b505b50565b60008135905061010f816101c0565b92915050565b60006020828403121561012757600080fd5b600061013584828501610100565b91505092915050565b6000819050919050565b60006101538261013e565b91507fffffffffffffffffffffffffffffffffffffffffffffffffffffffffffffffff82141561018657610185610191565b5b600182019050919050565b7f4e487b7100000000000000000000000000000000000000000000000000000000600052601160045260246000fd5b6101c98161013e565b81146101d457600080fd5b5056fea2646970667358221220c9e0aced8fcc5400717b432549a27e82e5861dc381eac41595c1654807faaeb264736f6c63430008030033",
					"opcodes": "PUSH1 0x80 PUSH1 0x40 MSTORE CALLVALUE DUP1 ISZERO PUSH2 0x10 JUMPI PUSH1 0x0 DUP1 REVERT JUMPDEST POP PUSH2 0x20D DUP1 PUSH2 0x20 PUSH1 0x0 CODECOPY PUSH1 0x0 RETURN INVALID PUSH1 0x80 PUSH1 0x40 MSTORE CALLVALUE DUP1 ISZERO PUSH2 0x10 JUMPI PUSH1 0x0 DUP1 REVERT JUMPDEST POP PUSH1 0x4 CALLDATASIZE LT PUSH2 0x2B JUMPI PUSH1 0x0 CALLDATALOAD PUSH1 0xE0 SHR DUP1 PUSH4 0x55241077 EQ PUSH2 0x30 JUMPI JUMPDEST PUSH1 0x0 DUP1 REVERT JUMPDEST PUSH2 0x4A PUSH1 0x4 DUP1 CALLDATASIZE SUB DUP2 ADD SWAP1 PUSH2 0x45 SWAP2 SWAP1 PUSH2 0x115 JUMP JUMPDEST PUSH2 0x4C JUMP JUMPDEST STOP JUMPDEST PUSH1 0x1 ISZERO ISZERO PUSH1 0x0 DUP1 SLOAD SWAP1 PUSH2 0x100 EXP SWAP1 DIV PUSH1 0xFF AND ISZERO ISZERO EQ DUP1 ISZERO PUSH2 0x6E JUMPI POP PUSH1 0x1 DUP1 SLOAD EQ JUMPDEST ISZERO PUSH2 0xBF JUMPI PUSH1 0x2 PUSH1 0x1 DUP2 SWAP1 SSTORE POP JUMPDEST PUSH1 0x0 DUP1 SLOAD SWAP1 PUSH2 0x100 EXP SWAP1 DIV PUSH1 0xFF AND ISZERO PUSH2 0xBA JUMPI PUSH1 0x5 PUSH1 0x1 SLOAD EQ ISZERO PUSH2 0xB5 JUMPI PUSH1 0x0 DUP1 PUSH1 0x0 PUSH2 0x100 EXP DUP2 SLOAD DUP2 PUSH1 0xFF MUL NOT AND SWAP1 DUP4 ISZERO ISZERO MUL OR SWAP1 SSTORE POP JUMPDEST PUSH2 0x7C JUMP JUMPDEST PUSH2 0xFD JUMP JUMPDEST PUSH1 0x0 JUMPDEST PUSH1 0xA DUP2 LT ISZERO PUSH2 0xFB JUMPI PUSH1 0x9 DUP2 EQ ISZERO PUSH2 0xD9 JUMPI PUSH2 0xFB JUMP JUMPDEST PUSH1 0x5 DUP2 EQ ISZERO PUSH2 0xE7 JUMPI PUSH2 0xE8 JUMP JUMPDEST JUMPDEST DUP1 DUP1 PUSH2 0xF3 SWAP1 PUSH2 0x148 JUMP JUMPDEST SWAP2 POP POP PUSH2 0xC2 JUMP JUMPDEST POP JUMPDEST POP JUMP JUMPDEST PUSH1 0x0 DUP2 CALLDATALOAD SWAP1 POP PUSH2 0x10F DUP2 PUSH2 0x1C0 JUMP JUMPDEST SWAP3 SWAP2 POP POP JUMP JUMPDEST PUSH1 0x0 PUSH1 0x20 DUP3 DUP5 SUB SLT ISZERO PUSH2 0x127 JUMPI PUSH1 0x0 DUP1 REVERT JUMPDEST PUSH1 0x0 PUSH2 0x135 DUP5 DUP3 DUP6 ADD PUSH2 0x100 JUMP JUMPDEST SWAP2 POP POP SWAP3 SWAP2 POP POP JUMP JUMPDEST PUSH1 0x0 DUP2 SWAP1 POP SWAP2 SWAP1 POP JUMP JUMPDEST PUSH1 0x0 PUSH2 0x153 DUP3 PUSH2 0x13E JUMP JUMPDEST SWAP2 POP PUSH32 0xFFFFFFFFFFFFFFFFFFFFFFFFFFFFFFFFFFFFFFFFFFFFFFFFFFFFFFFFFFFFFFFF DUP3 EQ ISZERO PUSH2 0x186 JUMPI PUSH2 0x185 PUSH2 0x191 JUMP JUMPDEST JUMPDEST PUSH1 0x1 DUP3 ADD SWAP1 POP SWAP2 SWAP1 POP JUMP JUMPDEST PUSH32 0x4E487B7100000000000000000000000000000000000000000000000000000000 PUSH1 0x0 MSTORE PUSH1 0x11 PUSH1 0x4 MSTORE PUSH1 0x24 PUSH1 0x0 REVERT JUMPDEST PUSH2 0x1C9 DUP2 PUSH2 0x13E JUMP JUMPDEST DUP2 EQ PUSH2 0x1D4 JUMPI PUSH1 0x0 DUP1 REVERT JUMPDEST POP JUMP INVALID LOG2 PUSH5 0x6970667358 0x22 SLT KECCAK256 0xC9 0xE0 0xAC 0xED DUP16 0xCC SLOAD STOP PUSH18 0x7B432549A27E82E5861DC381EAC41595C165 0x48 SMOD STATICCALL 0xAE 0xB2 PUSH5 0x736F6C6343 STOP ADDMOD SUB STOP CALLER "
				},
				"gasEstimates": {
					"creation": {
						"codeDepositCost": "105000",
						"executionCost": "153",
						"totalCost": "105153"
					},
					"external": {
						"setValue(uint256)": "infinite"
					}
				},
				"methodIdentifiers": {
					"setValue(uint256)": "55241077"
				}
			},
			"storageLayout": {
				"storage": [
					{
						"astId": 3,
						"contract": "contracts/7_controlcondition.sol:ControllCondition",
						"label": "isEnabled",
						"offset": 0,
						"slot": "0",
						"type": "t_bool"
					},
					{
						"astId": 5,
						"contract": "contracts/7_controlcondition.sol:ControllCondition",
						"label": "a",
						"offset": 0,
						"slot": "1",
						"type": "t_uint256"
					},
					{
						"astId": 7,
						"contract": "contracts/7_controlcondition.sol:ControllCondition",
						"label": "sender",
						"offset": 0,
						"slot": "2",
						"type": "t_address"
					},
					{
						"astId": 9,
						"contract": "contracts/7_controlcondition.sol:ControllCondition",
						"label": "data",
						"offset": 0,
						"slot": "3",
						"type": "t_bytes32"
					}
				],
				"types": {
					"t_address": {
						"encoding": "inplace",
						"label": "address",
						"numberOfBytes": "20"
					},
					"t_bool": {
						"encoding": "inplace",
						"label": "bool",
						"numberOfBytes": "1"
					},
					"t_bytes32": {
						"encoding": "inplace",
						"label": "bytes32",
						"numberOfBytes": "32"
					},
					"t_uint256": {
						"encoding": "inplace",
						"label": "uint256",
						"numberOfBytes": "32"
					}
				}
			},
			"userdoc": {
				"kind": "user",
				"methods": {},
				"version": 1
			}
		}
	}
}