{
	"contracts/8_array.sol": {
		"Array": {
			"abi": [
				{
					"inputs": [
						{
							"internalType": "uint256",
							"name": "_a",
							"type": "uint256"
						}
					],
					"stateMutability": "nonpayable",
					"type": "constructor"
				},
				{
					"inputs": [
						{
							"internalType": "uint256",
							"name": "_value",
							"type": "uint256"
						}
					],
					"name": "add",
					"outputs": [],
					"stateMutability": "nonpayable",
					"type": "function"
				},
				{
					"inputs": [],
					"name": "deleteItem",
					"outputs": [],
					"stateMutability": "nonpayable",
					"type": "function"
				},
				{
					"inputs": [
						{
							"internalType": "uint256",
							"name": "_value",
							"type": "uint256"
						}
					],
					"name": "setValue",
					"outputs": [],
					"stateMutability": "nonpayable",
					"type": "function"
				}
			],
			"devdoc": {
				"kind": "dev",
				"methods": {},
				"version": 1
			},
			"evm": {
				"assembly": "    /* \"contracts/8_array.sol\":57:703  contract Array {... */\n  mstore(0x40, 0x80)\n    /* \"contracts/8_array.sol\":285:311  uint[] myArray = [1,2,5,6] */\n  mload(0x40)\n  dup1\n  0x80\n  add\n  0x40\n  mstore\n  dup1\n    /* \"contracts/8_array.sol\":303:304  1 */\n  0x01\n    /* \"contracts/8_array.sol\":285:311  uint[] myArray = [1,2,5,6] */\n  0xff\n  and\n  dup2\n  mstore\n  0x20\n  add\n    /* \"contracts/8_array.sol\":305:306  2 */\n  0x02\n    /* \"contracts/8_array.sol\":285:311  uint[] myArray = [1,2,5,6] */\n  0xff\n  and\n  dup2\n  mstore\n  0x20\n  add\n    /* \"contracts/8_array.sol\":307:308  5 */\n  0x05\n    /* \"contracts/8_array.sol\":285:311  uint[] myArray = [1,2,5,6] */\n  0xff\n  and\n  dup2\n  mstore\n  0x20\n  add\n    /* \"contracts/8_array.sol\":309:310  6 */\n  0x06\n    /* \"contracts/8_array.sol\":285:311  uint[] myArray = [1,2,5,6] */\n  0xff\n  and\n  dup2\n  mstore\n  pop\n  0x01\n  swap1\n  0x04\n  tag_1\n  swap3\n  swap2\n  swap1\n  tag_2\n  jump\t// in\ntag_1:\n  pop\n    /* \"contracts/8_array.sol\":335:379  constructor(uint _a) {... */\n  callvalue\n  dup1\n  iszero\n  tag_3\n  jumpi\n  0x00\n  dup1\n  revert\ntag_3:\n  pop\n  mload(0x40)\n  sub(codesize, bytecodeSize)\n  dup1\n  bytecodeSize\n  dup4\n  codecopy\n  dup2\n  dup2\n  add\n  0x40\n  mstore\n  dup2\n  add\n  swap1\n  tag_4\n  swap2\n  swap1\n  tag_5\n  jump\t// in\ntag_4:\n    /* \"contracts/8_array.sol\":370:372  _a */\n  dup1\n    /* \"contracts/8_array.sol\":366:367  a */\n  0x00\n    /* \"contracts/8_array.sol\":366:372  a = _a */\n  dup2\n  swap1\n  sstore\n  pop\n    /* \"contracts/8_array.sol\":335:379  constructor(uint _a) {... */\n  pop\n    /* \"contracts/8_array.sol\":57:703  contract Array {... */\n  jump(tag_8)\ntag_2:\n  dup3\n  dup1\n  sload\n  dup3\n  dup3\n  sstore\n  swap1\n  0x00\n  mstore\n  keccak256(0x00, 0x20)\n  swap1\n  dup2\n  add\n  swap3\n  dup3\n  iszero\n  tag_9\n  jumpi\n  swap2\n  0x20\n  mul\n  dup3\n  add\ntag_10:\n  dup3\n  dup2\n  gt\n  iszero\n  tag_11\n  jumpi\n  dup3\n  mload\n  dup3\n  swap1\n  0xff\n  and\n  swap1\n  sstore\n  swap2\n  0x20\n  add\n  swap2\n  swap1\n  0x01\n  add\n  swap1\n  jump(tag_10)\ntag_11:\ntag_9:\n  pop\n  swap1\n  pop\n  tag_12\n  swap2\n  swap1\n  tag_13\n  jump\t// in\ntag_12:\n  pop\n  swap1\n  jump\t// out\ntag_13:\ntag_14:\n  dup1\n  dup3\n  gt\n  iszero\n  tag_15\n  jumpi\n  0x00\n  dup2\n  0x00\n  swap1\n  sstore\n  pop\n  0x01\n  add\n  jump(tag_14)\ntag_15:\n  pop\n  swap1\n  jump\t// out\n    /* \"#utility.yul\":7:150   */\ntag_17:\n  0x00\n    /* \"#utility.yul\":95:101   */\n  dup2\n    /* \"#utility.yul\":89:102   */\n  mload\n    /* \"#utility.yul\":80:102   */\n  swap1\n  pop\n    /* \"#utility.yul\":111:144   */\n  tag_19\n    /* \"#utility.yul\":138:143   */\n  dup2\n    /* \"#utility.yul\":111:144   */\n  tag_20\n  jump\t// in\ntag_19:\n    /* \"#utility.yul\":70:150   */\n  swap3\n  swap2\n  pop\n  pop\n  jump\t// out\n    /* \"#utility.yul\":156:440   */\ntag_5:\n  0x00\n    /* \"#utility.yul\":275:277   */\n  0x20\n    /* \"#utility.yul\":263:272   */\n  dup3\n    /* \"#utility.yul\":254:261   */\n  dup5\n    /* \"#utility.yul\":250:273   */\n  sub\n    /* \"#utility.yul\":246:278   */\n  slt\n    /* \"#utility.yul\":243:245   */\n  iszero\n  tag_22\n  jumpi\n    /* \"#utility.yul\":291:292   */\n  0x00\n    /* \"#utility.yul\":288:289   */\n  dup1\n    /* \"#utility.yul\":281:293   */\n  revert\n    /* \"#utility.yul\":243:245   */\ntag_22:\n    /* \"#utility.yul\":334:335   */\n  0x00\n    /* \"#utility.yul\":359:423   */\n  tag_23\n    /* \"#utility.yul\":415:422   */\n  dup5\n    /* \"#utility.yul\":406:412   */\n  dup3\n    /* \"#utility.yul\":395:404   */\n  dup6\n    /* \"#utility.yul\":391:413   */\n  add\n    /* \"#utility.yul\":359:423   */\n  tag_17\n  jump\t// in\ntag_23:\n    /* \"#utility.yul\":349:423   */\n  swap2\n  pop\n    /* \"#utility.yul\":305:433   */\n  pop\n    /* \"#utility.yul\":233:440   */\n  swap3\n  swap2\n  pop\n  pop\n  jump\t// out\n    /* \"#utility.yul\":446:523   */\ntag_24:\n  0x00\n    /* \"#utility.yul\":512:517   */\n  dup2\n    /* \"#utility.yul\":501:517   */\n  swap1\n  pop\n    /* \"#utility.yul\":491:523   */\n  swap2\n  swap1\n  pop\n  jump\t// out\n    /* \"#utility.yul\":529:651   */\ntag_20:\n    /* \"#utility.yul\":602:626   */\n  tag_27\n    /* \"#utility.yul\":620:625   */\n  dup2\n    /* \"#utility.yul\":602:626   */\n  tag_24\n  jump\t// in\ntag_27:\n    /* \"#utility.yul\":595:600   */\n  dup2\n    /* \"#utility.yul\":592:627   */\n  eq\n    /* \"#utility.yul\":582:584   */\n  tag_28\n  jumpi\n    /* \"#utility.yul\":641:642   */\n  0x00\n    /* \"#utility.yul\":638:639   */\n  dup1\n    /* \"#utility.yul\":631:643   */\n  revert\n    /* \"#utility.yul\":582:584   */\ntag_28:\n    /* \"#utility.yul\":572:651   */\n  pop\n  jump\t// out\n    /* \"contracts/8_array.sol\":57:703  contract Array {... */\ntag_8:\n  dataSize(sub_0)\n  dup1\n  dataOffset(sub_0)\n  0x00\n  codecopy\n  0x00\n  return\nstop\n\nsub_0: assembly {\n        /* \"contracts/8_array.sol\":57:703  contract Array {... */\n      mstore(0x40, 0x80)\n      callvalue\n      dup1\n      iszero\n      tag_1\n      jumpi\n      0x00\n      dup1\n      revert\n    tag_1:\n      pop\n      jumpi(tag_2, lt(calldatasize, 0x04))\n      shr(0xe0, calldataload(0x00))\n      dup1\n      0x1003e2d2\n      eq\n      tag_3\n      jumpi\n      dup1\n      0x55241077\n      eq\n      tag_4\n      jumpi\n      dup1\n      0x8b532f39\n      eq\n      tag_5\n      jumpi\n    tag_2:\n      0x00\n      dup1\n      revert\n        /* \"contracts/8_array.sol\":458:532  function add (uint _value) external  {... */\n    tag_3:\n      tag_6\n      0x04\n      dup1\n      calldatasize\n      sub\n      dup2\n      add\n      swap1\n      tag_7\n      swap2\n      swap1\n      tag_8\n      jump\t// in\n    tag_7:\n      tag_9\n      jump\t// in\n    tag_6:\n      stop\n        /* \"contracts/8_array.sol\":385:452  function setValue(uint _value) external {... */\n    tag_4:\n      tag_10\n      0x04\n      dup1\n      calldatasize\n      sub\n      dup2\n      add\n      swap1\n      tag_11\n      swap2\n      swap1\n      tag_8\n      jump\t// in\n    tag_11:\n      tag_12\n      jump\t// in\n    tag_10:\n      stop\n        /* \"contracts/8_array.sol\":538:701  function deleteItem () external {... */\n    tag_5:\n      tag_13\n      tag_14\n      jump\t// in\n    tag_13:\n      stop\n        /* \"contracts/8_array.sol\":458:532  function add (uint _value) external  {... */\n    tag_9:\n        /* \"contracts/8_array.sol\":505:512  myArray */\n      0x01\n        /* \"contracts/8_array.sol\":518:524  _value */\n      dup2\n        /* \"contracts/8_array.sol\":505:525  myArray.push(_value) */\n      swap1\n      dup1\n      0x01\n      dup2\n      sload\n      add\n      dup1\n      dup3\n      sstore\n      dup1\n      swap2\n      pop\n      pop\n      0x01\n      swap1\n      sub\n      swap1\n      0x00\n      mstore\n      keccak256(0x00, 0x20)\n      add\n      0x00\n      swap1\n      swap2\n      swap1\n      swap2\n      swap1\n      swap2\n      pop\n      sstore\n        /* \"contracts/8_array.sol\":458:532  function add (uint _value) external  {... */\n      pop\n      jump\t// out\n        /* \"contracts/8_array.sol\":385:452  function setValue(uint _value) external {... */\n    tag_12:\n        /* \"contracts/8_array.sol\":439:445  _value */\n      dup1\n        /* \"contracts/8_array.sol\":435:436  a */\n      0x00\n        /* \"contracts/8_array.sol\":435:445  a = _value */\n      dup2\n      swap1\n      sstore\n      pop\n        /* \"contracts/8_array.sol\":385:452  function setValue(uint _value) external {... */\n      pop\n      jump\t// out\n        /* \"contracts/8_array.sol\":538:701  function deleteItem () external {... */\n    tag_14:\n        /* \"contracts/8_array.sol\":593:594  9 */\n      0x09\n        /* \"contracts/8_array.sol\":580:587  myArray */\n      0x01\n        /* \"contracts/8_array.sol\":588:589  0 */\n      0x00\n        /* \"contracts/8_array.sol\":580:590  myArray[0] */\n      dup2\n      sload\n      dup2\n      lt\n      tag_19\n      jumpi\n      mstore(0x00, 0x4e487b7100000000000000000000000000000000000000000000000000000000)\n      mstore(0x04, 0x32)\n      revert(0x00, 0x24)\n    tag_19:\n      swap1\n      0x00\n      mstore\n      keccak256(0x00, 0x20)\n      add\n        /* \"contracts/8_array.sol\":580:594  myArray[0] = 9 */\n      dup2\n      swap1\n      sstore\n      pop\n        /* \"contracts/8_array.sol\":611:618  myArray */\n      0x01\n        /* \"contracts/8_array.sol\":619:620  0 */\n      0x00\n        /* \"contracts/8_array.sol\":611:621  myArray[0] */\n      dup2\n      sload\n      dup2\n      lt\n      tag_21\n      jumpi\n      mstore(0x00, 0x4e487b7100000000000000000000000000000000000000000000000000000000)\n      mstore(0x04, 0x32)\n      revert(0x00, 0x24)\n    tag_21:\n      swap1\n      0x00\n      mstore\n      keccak256(0x00, 0x20)\n      add\n        /* \"contracts/8_array.sol\":604:621  delete myArray[0] */\n      0x00\n      swap1\n      sstore\n        /* \"contracts/8_array.sol\":538:701  function deleteItem () external {... */\n      jump\t// out\n        /* \"#utility.yul\":7:146   */\n    tag_24:\n      0x00\n        /* \"#utility.yul\":91:97   */\n      dup2\n        /* \"#utility.yul\":78:98   */\n      calldataload\n        /* \"#utility.yul\":69:98   */\n      swap1\n      pop\n        /* \"#utility.yul\":107:140   */\n      tag_26\n        /* \"#utility.yul\":134:139   */\n      dup2\n        /* \"#utility.yul\":107:140   */\n      tag_27\n      jump\t// in\n    tag_26:\n        /* \"#utility.yul\":59:146   */\n      swap3\n      swap2\n      pop\n      pop\n      jump\t// out\n        /* \"#utility.yul\":152:414   */\n    tag_8:\n      0x00\n        /* \"#utility.yul\":260:262   */\n      0x20\n        /* \"#utility.yul\":248:257   */\n      dup3\n        /* \"#utility.yul\":239:246   */\n      dup5\n        /* \"#utility.yul\":235:258   */\n      sub\n        /* \"#utility.yul\":231:263   */\n      slt\n        /* \"#utility.yul\":228:230   */\n      iszero\n      tag_29\n      jumpi\n        /* \"#utility.yul\":276:277   */\n      0x00\n        /* \"#utility.yul\":273:274   */\n      dup1\n        /* \"#utility.yul\":266:278   */\n      revert\n        /* \"#utility.yul\":228:230   */\n    tag_29:\n        /* \"#utility.yul\":319:320   */\n      0x00\n        /* \"#utility.yul\":344:397   */\n      tag_30\n        /* \"#utility.yul\":389:396   */\n      dup5\n        /* \"#utility.yul\":380:386   */\n      dup3\n        /* \"#utility.yul\":369:378   */\n      dup6\n        /* \"#utility.yul\":365:387   */\n      add\n        /* \"#utility.yul\":344:397   */\n      tag_24\n      jump\t// in\n    tag_30:\n        /* \"#utility.yul\":334:397   */\n      swap2\n      pop\n        /* \"#utility.yul\":290:407   */\n      pop\n        /* \"#utility.yul\":218:414   */\n      swap3\n      swap2\n      pop\n      pop\n      jump\t// out\n        /* \"#utility.yul\":420:497   */\n    tag_31:\n      0x00\n        /* \"#utility.yul\":486:491   */\n      dup2\n        /* \"#utility.yul\":475:491   */\n      swap1\n      pop\n        /* \"#utility.yul\":465:497   */\n      swap2\n      swap1\n      pop\n      jump\t// out\n        /* \"#utility.yul\":503:625   */\n    tag_27:\n        /* \"#utility.yul\":576:600   */\n      tag_34\n        /* \"#utility.yul\":594:599   */\n      dup2\n        /* \"#utility.yul\":576:600   */\n      tag_31\n      jump\t// in\n    tag_34:\n        /* \"#utility.yul\":569:574   */\n      dup2\n        /* \"#utility.yul\":566:601   */\n      eq\n        /* \"#utility.yul\":556:558   */\n      tag_35\n      jumpi\n        /* \"#utility.yul\":615:616   */\n      0x00\n        /* \"#utility.yul\":612:613   */\n      dup1\n        /* \"#utility.yul\":605:617   */\n      revert\n        /* \"#utility.yul\":556:558   */\n    tag_35:\n        /* \"#utility.yul\":546:625   */\n      pop\n      jump\t// out\n\n    auxdata: 0xa2646970667358221220b72e8dcf27c56068cf8b733f9395ebdacd91ad8d4a06bbd52b6fc01efc69aee364736f6c63430008030033\n}\n",
				"bytecode": {
					"linkReferences": {},
					"object": "60806040526040518060800160405280600160ff168152602001600260ff168152602001600560ff168152602001600660ff168152506001906004610045929190610081565b5034801561005257600080fd5b5060405161034738038061034783398181016040528101906100749190610105565b806000819055505061014f565b8280548282559060005260206000209081019282156100c2579160200282015b828111156100c1578251829060ff169055916020019190600101906100a1565b5b5090506100cf91906100d3565b5090565b5b808211156100ec5760008160009055506001016100d4565b5090565b6000815190506100ff81610138565b92915050565b60006020828403121561011757600080fd5b6000610125848285016100f0565b91505092915050565b6000819050919050565b6101418161012e565b811461014c57600080fd5b50565b6101e98061015e6000396000f3fe608060405234801561001057600080fd5b50600436106100415760003560e01c80631003e2d21461004657806355241077146100625780638b532f391461007e575b600080fd5b610060600480360381019061005b9190610169565b610088565b005b61007c60048036038101906100779190610169565b6100b4565b005b6100866100be565b005b600181908060018154018082558091505060019003906000526020600020016000909190919091505550565b8060008190555050565b600960016000815481106100fb577f4e487b7100000000000000000000000000000000000000000000000000000000600052603260045260246000fd5b90600052602060002001819055506001600081548110610144577f4e487b7100000000000000000000000000000000000000000000000000000000600052603260045260246000fd5b9060005260206000200160009055565b6000813590506101638161019c565b92915050565b60006020828403121561017b57600080fd5b600061018984828501610154565b91505092915050565b6000819050919050565b6101a581610192565b81146101b057600080fd5b5056fea2646970667358221220b72e8dcf27c56068cf8b733f9395ebdacd91ad8d4a06bbd52b6fc01efc69aee364736f6c63430008030033",
					"opcodes": "PUSH1 0x80 PUSH1 0x40 MSTORE PUSH1 0x40 MLOAD DUP1 PUSH1 0x80 ADD PUSH1 0x40 MSTORE DUP1 PUSH1 0x1 PUSH1 0xFF AND DUP2 MSTORE PUSH1 0x20 ADD PUSH1 0x2 PUSH1 0xFF AND DUP2 MSTORE PUSH1 0x20 ADD PUSH1 0x5 PUSH1 0xFF AND DUP2 MSTORE PUSH1 0x20 ADD PUSH1 0x6 PUSH1 0xFF AND DUP2 MSTORE POP PUSH1 0x1 SWAP1 PUSH1 0x4 PUSH2 0x45 SWAP3 SWAP2 SWAP1 PUSH2 0x81 JUMP JUMPDEST POP CALLVALUE DUP1 ISZERO PUSH2 0x52 JUMPI PUSH1 0x0 DUP1 REVERT JUMPDEST POP PUSH1 0x40 MLOAD PUSH2 0x347 CODESIZE SUB DUP1 PUSH2 0x347 DUP4 CODECOPY DUP2 DUP2 ADD PUSH1 0x40 MSTORE DUP2 ADD SWAP1 PUSH2 0x74 SWAP2 SWAP1 PUSH2 0x105 JUMP JUMPDEST DUP1 PUSH1 0x0 DUP2 SWAP1 SSTORE POP POP PUSH2 0x14F JUMP JUMPDEST DUP3 DUP1 SLOAD DUP3 DUP3 SSTORE SWAP1 PUSH1 0x0 MSTORE PUSH1 0x20 PUSH1 0x0 KECCAK256 SWAP1 DUP2 ADD SWAP3 DUP3 ISZERO PUSH2 0xC2 JUMPI SWAP2 PUSH1 0x20 MUL DUP3 ADD JUMPDEST DUP3 DUP2 GT ISZERO PUSH2 0xC1 JUMPI DUP3 MLOAD DUP3 SWAP1 PUSH1 0xFF AND SWAP1 SSTORE SWAP2 PUSH1 0x20 ADD SWAP2 SWAP1 PUSH1 0x1 ADD SWAP1 PUSH2 0xA1 JUMP JUMPDEST JUMPDEST POP SWAP1 POP PUSH2 0xCF SWAP2 SWAP1 PUSH2 0xD3 JUMP JUMPDEST POP SWAP1 JUMP JUMPDEST JUMPDEST DUP1 DUP3 GT ISZERO PUSH2 0xEC JUMPI PUSH1 0x0 DUP2 PUSH1 0x0 SWAP1 SSTORE POP PUSH1 0x1 ADD PUSH2 0xD4 JUMP JUMPDEST POP SWAP1 JUMP JUMPDEST PUSH1 0x0 DUP2 MLOAD SWAP1 POP PUSH2 0xFF DUP2 PUSH2 0x138 JUMP JUMPDEST SWAP3 SWAP2 POP POP JUMP JUMPDEST PUSH1 0x0 PUSH1 0x20 DUP3 DUP5 SUB SLT ISZERO PUSH2 0x117 JUMPI PUSH1 0x0 DUP1 REVERT JUMPDEST PUSH1 0x0 PUSH2 0x125 DUP5 DUP3 DUP6 ADD PUSH2 0xF0 JUMP JUMPDEST SWAP2 POP POP SWAP3 SWAP2 POP POP JUMP JUMPDEST PUSH1 0x0 DUP2 SWAP1 POP SWAP2 SWAP1 POP JUMP JUMPDEST PUSH2 0x141 DUP2 PUSH2 0x12E JUMP JUMPDEST DUP2 EQ PUSH2 0x14C JUMPI PUSH1 0x0 DUP1 REVERT JUMPDEST POP JUMP JUMPDEST PUSH2 0x1E9 DUP1 PUSH2 0x15E PUSH1 0x0 CODECOPY PUSH1 0x0 RETURN INVALID PUSH1 0x80 PUSH1 0x40 MSTORE CALLVALUE DUP1 ISZERO PUSH2 0x10 JUMPI PUSH1 0x0 DUP1 REVERT JUMPDEST POP PUSH1 0x4 CALLDATASIZE LT PUSH2 0x41 JUMPI PUSH1 0x0 CALLDATALOAD PUSH1 0xE0 SHR DUP1 PUSH4 0x1003E2D2 EQ PUSH2 0x46 JUMPI DUP1 PUSH4 0x55241077 EQ PUSH2 0x62 JUMPI DUP1 PUSH4 0x8B532F39 EQ PUSH2 0x7E JUMPI JUMPDEST PUSH1 0x0 DUP1 REVERT JUMPDEST PUSH2 0x60 PUSH1 0x4 DUP1 CALLDATASIZE SUB DUP2 ADD SWAP1 PUSH2 0x5B SWAP2 SWAP1 PUSH2 0x169 JUMP JUMPDEST PUSH2 0x88 JUMP JUMPDEST STOP JUMPDEST PUSH2 0x7C PUSH1 0x4 DUP1 CALLDATASIZE SUB DUP2 ADD SWAP1 PUSH2 0x77 SWAP2 SWAP1 PUSH2 0x169 JUMP JUMPDEST PUSH2 0xB4 JUMP JUMPDEST STOP JUMPDEST PUSH2 0x86 PUSH2 0xBE JUMP JUMPDEST STOP JUMPDEST PUSH1 0x1 DUP2 SWAP1 DUP1 PUSH1 0x1 DUP2 SLOAD ADD DUP1 DUP3 SSTORE DUP1 SWAP2 POP POP PUSH1 0x1 SWAP1 SUB SWAP1 PUSH1 0x0 MSTORE PUSH1 0x20 PUSH1 0x0 KECCAK256 ADD PUSH1 0x0 SWAP1 SWAP2 SWAP1 SWAP2 SWAP1 SWAP2 POP SSTORE POP JUMP JUMPDEST DUP1 PUSH1 0x0 DUP2 SWAP1 SSTORE POP POP JUMP JUMPDEST PUSH1 0x9 PUSH1 0x1 PUSH1 0x0 DUP2 SLOAD DUP2 LT PUSH2 0xFB JUMPI PUSH32 0x4E487B7100000000000000000000000000000000000000000000000000000000 PUSH1 0x0 MSTORE PUSH1 0x32 PUSH1 0x4 MSTORE PUSH1 0x24 PUSH1 0x0 REVERT JUMPDEST SWAP1 PUSH1 0x0 MSTORE PUSH1 0x20 PUSH1 0x0 KECCAK256 ADD DUP2 SWAP1 SSTORE POP PUSH1 0x1 PUSH1 0x0 DUP2 SLOAD DUP2 LT PUSH2 0x144 JUMPI PUSH32 0x4E487B7100000000000000000000000000000000000000000000000000000000 PUSH1 0x0 MSTORE PUSH1 0x32 PUSH1 0x4 MSTORE PUSH1 0x24 PUSH1 0x0 REVERT JUMPDEST SWAP1 PUSH1 0x0 MSTORE PUSH1 0x20 PUSH1 0x0 KECCAK256 ADD PUSH1 0x0 SWAP1 SSTORE JUMP JUMPDEST PUSH1 0x0 DUP2 CALLDATALOAD SWAP1 POP PUSH2 0x163 DUP2 PUSH2 0x19C JUMP JUMPDEST SWAP3 SWAP2 POP POP JUMP JUMPDEST PUSH1 0x0 PUSH1 0x20 DUP3 DUP5 SUB SLT ISZERO PUSH2 0x17B JUMPI PUSH1 0x0 DUP1 REVERT JUMPDEST PUSH1 0x0 PUSH2 0x189 DUP5 DUP3 DUP6 ADD PUSH2 0x154 JUMP JUMPDEST SWAP2 POP POP SWAP3 SWAP2 POP POP JUMP JUMPDEST PUSH1 0x0 DUP2 SWAP1 POP SWAP2 SWAP1 POP JUMP JUMPDEST PUSH2 0x1A5 DUP2 PUSH2 0x192 JUMP JUMPDEST DUP2 EQ PUSH2 0x1B0 JUMPI PUSH1 0x0 DUP1 REVERT JUMPDEST POP JUMP INVALID LOG2 PUSH5 0x6970667358 0x22 SLT KECCAK256 0xB7 0x2E DUP14 0xCF 0x27 0xC5 PUSH1 0x68 0xCF DUP12 PUSH20 0x3F9395EBDACD91AD8D4A06BBD52B6FC01EFC69AE 0xE3 PUSH5 0x736F6C6343 STOP ADDMOD SUB STOP CALLER "
				},
				"gasEstimates": {
					"creation": {
						"codeDepositCost": "97800",
						"executionCost": "infinite",
						"totalCost": "infinite"
					},
					"external": {
						"add(uint256)": "41307",
						"deleteItem()": "26949",
						"setValue(uint256)": "20420"
					}
				},
				"methodIdentifiers": {
					"add(uint256)": "1003e2d2",
					"deleteItem()": "8b532f39",
					"setValue(uint256)": "55241077"
				}
			},
			"storageLayout": {
				"storage": [
					{
						"astId": 3,
						"contract": "contracts/8_array.sol:Array",
						"label": "a",
						"offset": 0,
						"slot": "0",
						"type": "t_uint256"
					},
					{
						"astId": 11,
						"contract": "contracts/8_array.sol:Array",
						"label": "myArray",
						"offset": 0,
						"slot": "1",
						"type": "t_array(t_uint256)dyn_storage"
					}
				],
				"types": {
					"t_array(t_uint256)dyn_storage": {
						"base": "t_uint256",
						"encoding": "dynamic_array",
						"label": "uint256[]",
						"numberOfBytes": "32"
					},
					"t_uint256": {
						"encoding": "inplace",
						"label": "uint256",
						"numberOfBytes": "32"
					}
				}
			},
			"userdoc": {
				"kind": "user",
				"methods": {},
				"version": 1
			}
		}
	}
}