{
	"contracts/8_array1.sol": {
		"Array": {
			"abi": [
				{
					"inputs": [
						{
							"internalType": "uint256",
							"name": "_a",
							"type": "uint256"
						}
					],
					"stateMutability": "nonpayable",
					"type": "constructor"
				},
				{
					"inputs": [
						{
							"internalType": "uint256",
							"name": "_value",
							"type": "uint256"
						}
					],
					"name": "add",
					"outputs": [],
					"stateMutability": "nonpayable",
					"type": "function"
				},
				{
					"inputs": [],
					"name": "deleteItem",
					"outputs": [],
					"stateMutability": "nonpayable",
					"type": "function"
				},
				{
					"inputs": [],
					"name": "memoryArray",
					"outputs": [],
					"stateMutability": "nonpayable",
					"type": "function"
				},
				{
					"inputs": [
						{
							"internalType": "uint256[]",
							"name": "pArray",
							"type": "uint256[]"
						}
					],
					"name": "parameterArray",
					"outputs": [],
					"stateMutability": "nonpayable",
					"type": "function"
				},
				{
					"inputs": [
						{
							"internalType": "uint256[]",
							"name": "pArray",
							"type": "uint256[]"
						}
					],
					"name": "parameterArrayMemory",
					"outputs": [],
					"stateMutability": "nonpayable",
					"type": "function"
				},
				{
					"inputs": [
						{
							"internalType": "uint256",
							"name": "_value",
							"type": "uint256"
						}
					],
					"name": "setValue",
					"outputs": [],
					"stateMutability": "nonpayable",
					"type": "function"
				}
			],
			"devdoc": {
				"kind": "dev",
				"methods": {},
				"version": 1
			},
			"evm": {
				"assembly": "    /* \"contracts/8_array1.sol\":57:1156  contract Array {... */\n  mstore(0x40, 0x80)\n    /* \"contracts/8_array1.sol\":285:311  uint[] myArray = [1,2,5,6] */\n  mload(0x40)\n  dup1\n  0x80\n  add\n  0x40\n  mstore\n  dup1\n    /* \"contracts/8_array1.sol\":303:304  1 */\n  0x01\n    /* \"contracts/8_array1.sol\":285:311  uint[] myArray = [1,2,5,6] */\n  0xff\n  and\n  dup2\n  mstore\n  0x20\n  add\n    /* \"contracts/8_array1.sol\":305:306  2 */\n  0x02\n    /* \"contracts/8_array1.sol\":285:311  uint[] myArray = [1,2,5,6] */\n  0xff\n  and\n  dup2\n  mstore\n  0x20\n  add\n    /* \"contracts/8_array1.sol\":307:308  5 */\n  0x05\n    /* \"contracts/8_array1.sol\":285:311  uint[] myArray = [1,2,5,6] */\n  0xff\n  and\n  dup2\n  mstore\n  0x20\n  add\n    /* \"contracts/8_array1.sol\":309:310  6 */\n  0x06\n    /* \"contracts/8_array1.sol\":285:311  uint[] myArray = [1,2,5,6] */\n  0xff\n  and\n  dup2\n  mstore\n  pop\n  0x01\n  swap1\n  0x04\n  tag_1\n  swap3\n  swap2\n  swap1\n  tag_2\n  jump\t// in\ntag_1:\n  pop\n    /* \"contracts/8_array1.sol\":349:381  uint[4] myFixedArray = [1,2,5,6] */\n  mload(0x40)\n  dup1\n  0x80\n  add\n  0x40\n  mstore\n  dup1\n    /* \"contracts/8_array1.sol\":373:374  1 */\n  0x01\n    /* \"contracts/8_array1.sol\":349:381  uint[4] myFixedArray = [1,2,5,6] */\n  0xff\n  and\n  dup2\n  mstore\n  0x20\n  add\n    /* \"contracts/8_array1.sol\":375:376  2 */\n  0x02\n    /* \"contracts/8_array1.sol\":349:381  uint[4] myFixedArray = [1,2,5,6] */\n  0xff\n  and\n  dup2\n  mstore\n  0x20\n  add\n    /* \"contracts/8_array1.sol\":377:378  5 */\n  0x05\n    /* \"contracts/8_array1.sol\":349:381  uint[4] myFixedArray = [1,2,5,6] */\n  0xff\n  and\n  dup2\n  mstore\n  0x20\n  add\n    /* \"contracts/8_array1.sol\":379:380  6 */\n  0x06\n    /* \"contracts/8_array1.sol\":349:381  uint[4] myFixedArray = [1,2,5,6] */\n  0xff\n  and\n  dup2\n  mstore\n  pop\n  0x02\n  swap1\n  0x04\n  tag_3\n  swap3\n  swap2\n  swap1\n  tag_4\n  jump\t// in\ntag_3:\n  pop\n    /* \"contracts/8_array1.sol\":401:445  constructor(uint _a) {... */\n  callvalue\n  dup1\n  iszero\n  tag_5\n  jumpi\n  0x00\n  dup1\n  revert\ntag_5:\n  pop\n  mload(0x40)\n  sub(codesize, bytecodeSize)\n  dup1\n  bytecodeSize\n  dup4\n  codecopy\n  dup2\n  dup2\n  add\n  0x40\n  mstore\n  dup2\n  add\n  swap1\n  tag_6\n  swap2\n  swap1\n  tag_7\n  jump\t// in\ntag_6:\n    /* \"contracts/8_array1.sol\":436:438  _a */\n  dup1\n    /* \"contracts/8_array1.sol\":432:433  a */\n  0x00\n    /* \"contracts/8_array1.sol\":432:438  a = _a */\n  dup2\n  swap1\n  sstore\n  pop\n    /* \"contracts/8_array1.sol\":401:445  constructor(uint _a) {... */\n  pop\n    /* \"contracts/8_array1.sol\":57:1156  contract Array {... */\n  jump(tag_10)\ntag_2:\n  dup3\n  dup1\n  sload\n  dup3\n  dup3\n  sstore\n  swap1\n  0x00\n  mstore\n  keccak256(0x00, 0x20)\n  swap1\n  dup2\n  add\n  swap3\n  dup3\n  iszero\n  tag_11\n  jumpi\n  swap2\n  0x20\n  mul\n  dup3\n  add\ntag_12:\n  dup3\n  dup2\n  gt\n  iszero\n  tag_13\n  jumpi\n  dup3\n  mload\n  dup3\n  swap1\n  0xff\n  and\n  swap1\n  sstore\n  swap2\n  0x20\n  add\n  swap2\n  swap1\n  0x01\n  add\n  swap1\n  jump(tag_12)\ntag_13:\ntag_11:\n  pop\n  swap1\n  pop\n  tag_14\n  swap2\n  swap1\n  tag_15\n  jump\t// in\ntag_14:\n  pop\n  swap1\n  jump\t// out\ntag_4:\n  dup3\n  0x04\n  dup2\n  add\n  swap3\n  dup3\n  iszero\n  tag_16\n  jumpi\n  swap2\n  0x20\n  mul\n  dup3\n  add\ntag_17:\n  dup3\n  dup2\n  gt\n  iszero\n  tag_18\n  jumpi\n  dup3\n  mload\n  dup3\n  swap1\n  0xff\n  and\n  swap1\n  sstore\n  swap2\n  0x20\n  add\n  swap2\n  swap1\n  0x01\n  add\n  swap1\n  jump(tag_17)\ntag_18:\ntag_16:\n  pop\n  swap1\n  pop\n  tag_19\n  swap2\n  swap1\n  tag_15\n  jump\t// in\ntag_19:\n  pop\n  swap1\n  jump\t// out\ntag_15:\ntag_20:\n  dup1\n  dup3\n  gt\n  iszero\n  tag_21\n  jumpi\n  0x00\n  dup2\n  0x00\n  swap1\n  sstore\n  pop\n  0x01\n  add\n  jump(tag_20)\ntag_21:\n  pop\n  swap1\n  jump\t// out\n    /* \"#utility.yul\":7:150   */\ntag_23:\n  0x00\n    /* \"#utility.yul\":95:101   */\n  dup2\n    /* \"#utility.yul\":89:102   */\n  mload\n    /* \"#utility.yul\":80:102   */\n  swap1\n  pop\n    /* \"#utility.yul\":111:144   */\n  tag_25\n    /* \"#utility.yul\":138:143   */\n  dup2\n    /* \"#utility.yul\":111:144   */\n  tag_26\n  jump\t// in\ntag_25:\n    /* \"#utility.yul\":70:150   */\n  swap3\n  swap2\n  pop\n  pop\n  jump\t// out\n    /* \"#utility.yul\":156:440   */\ntag_7:\n  0x00\n    /* \"#utility.yul\":275:277   */\n  0x20\n    /* \"#utility.yul\":263:272   */\n  dup3\n    /* \"#utility.yul\":254:261   */\n  dup5\n    /* \"#utility.yul\":250:273   */\n  sub\n    /* \"#utility.yul\":246:278   */\n  slt\n    /* \"#utility.yul\":243:245   */\n  iszero\n  tag_28\n  jumpi\n    /* \"#utility.yul\":291:292   */\n  0x00\n    /* \"#utility.yul\":288:289   */\n  dup1\n    /* \"#utility.yul\":281:293   */\n  revert\n    /* \"#utility.yul\":243:245   */\ntag_28:\n    /* \"#utility.yul\":334:335   */\n  0x00\n    /* \"#utility.yul\":359:423   */\n  tag_29\n    /* \"#utility.yul\":415:422   */\n  dup5\n    /* \"#utility.yul\":406:412   */\n  dup3\n    /* \"#utility.yul\":395:404   */\n  dup6\n    /* \"#utility.yul\":391:413   */\n  add\n    /* \"#utility.yul\":359:423   */\n  tag_23\n  jump\t// in\ntag_29:\n    /* \"#utility.yul\":349:423   */\n  swap2\n  pop\n    /* \"#utility.yul\":305:433   */\n  pop\n    /* \"#utility.yul\":233:440   */\n  swap3\n  swap2\n  pop\n  pop\n  jump\t// out\n    /* \"#utility.yul\":446:523   */\ntag_30:\n  0x00\n    /* \"#utility.yul\":512:517   */\n  dup2\n    /* \"#utility.yul\":501:517   */\n  swap1\n  pop\n    /* \"#utility.yul\":491:523   */\n  swap2\n  swap1\n  pop\n  jump\t// out\n    /* \"#utility.yul\":529:651   */\ntag_26:\n    /* \"#utility.yul\":602:626   */\n  tag_33\n    /* \"#utility.yul\":620:625   */\n  dup2\n    /* \"#utility.yul\":602:626   */\n  tag_30\n  jump\t// in\ntag_33:\n    /* \"#utility.yul\":595:600   */\n  dup2\n    /* \"#utility.yul\":592:627   */\n  eq\n    /* \"#utility.yul\":582:584   */\n  tag_34\n  jumpi\n    /* \"#utility.yul\":641:642   */\n  0x00\n    /* \"#utility.yul\":638:639   */\n  dup1\n    /* \"#utility.yul\":631:643   */\n  revert\n    /* \"#utility.yul\":582:584   */\ntag_34:\n    /* \"#utility.yul\":572:651   */\n  pop\n  jump\t// out\n    /* \"contracts/8_array1.sol\":57:1156  contract Array {... */\ntag_10:\n  dataSize(sub_0)\n  dup1\n  dataOffset(sub_0)\n  0x00\n  codecopy\n  0x00\n  return\nstop\n\nsub_0: assembly {\n        /* \"contracts/8_array1.sol\":57:1156  contract Array {... */\n      mstore(0x40, 0x80)\n      callvalue\n      dup1\n      iszero\n      tag_1\n      jumpi\n      0x00\n      dup1\n      revert\n    tag_1:\n      pop\n      jumpi(tag_2, lt(calldatasize, 0x04))\n      shr(0xe0, calldataload(0x00))\n      dup1\n      0x1003e2d2\n      eq\n      tag_3\n      jumpi\n      dup1\n      0x500e1355\n      eq\n      tag_4\n      jumpi\n      dup1\n      0x55241077\n      eq\n      tag_5\n      jumpi\n      dup1\n      0x8b532f39\n      eq\n      tag_6\n      jumpi\n      dup1\n      0xf4d25dfb\n      eq\n      tag_7\n      jumpi\n      dup1\n      0xf4e2eece\n      eq\n      tag_8\n      jumpi\n    tag_2:\n      0x00\n      dup1\n      revert\n        /* \"contracts/8_array1.sol\":524:598  function add (uint _value) external  {... */\n    tag_3:\n      tag_9\n      0x04\n      dup1\n      calldatasize\n      sub\n      dup2\n      add\n      swap1\n      tag_10\n      swap2\n      swap1\n      tag_11\n      jump\t// in\n    tag_10:\n      tag_12\n      jump\t// in\n    tag_9:\n      stop\n        /* \"contracts/8_array1.sol\":773:986  function memoryArray() external  {... */\n    tag_4:\n      tag_13\n      tag_14\n      jump\t// in\n    tag_13:\n      stop\n        /* \"contracts/8_array1.sol\":451:518  function setValue(uint _value) external {... */\n    tag_5:\n      tag_15\n      0x04\n      dup1\n      calldatasize\n      sub\n      dup2\n      add\n      swap1\n      tag_16\n      swap2\n      swap1\n      tag_11\n      jump\t// in\n    tag_16:\n      tag_17\n      jump\t// in\n    tag_15:\n      stop\n        /* \"contracts/8_array1.sol\":604:767  function deleteItem () external {... */\n    tag_6:\n      tag_18\n      tag_19\n      jump\t// in\n    tag_18:\n      stop\n        /* \"contracts/8_array1.sol\":992:1059  function parameterArray (uint[] calldata pArray) external  {... */\n    tag_7:\n      tag_20\n      0x04\n      dup1\n      calldatasize\n      sub\n      dup2\n      add\n      swap1\n      tag_21\n      swap2\n      swap1\n      tag_22\n      jump\t// in\n    tag_21:\n      tag_23\n      jump\t// in\n    tag_20:\n      stop\n        /* \"contracts/8_array1.sol\":1065:1154  function parameterArrayMemory (uint[] memory pArray) public  { //internal, private... */\n    tag_8:\n      tag_24\n      0x04\n      dup1\n      calldatasize\n      sub\n      dup2\n      add\n      swap1\n      tag_25\n      swap2\n      swap1\n      tag_26\n      jump\t// in\n    tag_25:\n      tag_27\n      jump\t// in\n    tag_24:\n      stop\n        /* \"contracts/8_array1.sol\":524:598  function add (uint _value) external  {... */\n    tag_12:\n        /* \"contracts/8_array1.sol\":571:578  myArray */\n      0x01\n        /* \"contracts/8_array1.sol\":584:590  _value */\n      dup2\n        /* \"contracts/8_array1.sol\":571:591  myArray.push(_value) */\n      swap1\n      dup1\n      0x01\n      dup2\n      sload\n      add\n      dup1\n      dup3\n      sstore\n      dup1\n      swap2\n      pop\n      pop\n      0x01\n      swap1\n      sub\n      swap1\n      0x00\n      mstore\n      keccak256(0x00, 0x20)\n      add\n      0x00\n      swap1\n      swap2\n      swap1\n      swap2\n      swap1\n      swap2\n      pop\n      sstore\n        /* \"contracts/8_array1.sol\":524:598  function add (uint _value) external  {... */\n      pop\n      jump\t// out\n        /* \"contracts/8_array1.sol\":773:986  function memoryArray() external  {... */\n    tag_14:\n        /* \"contracts/8_array1.sol\":816:836  uint[] memory mArray */\n      0x00\n        /* \"contracts/8_array1.sol\":850:852  10 */\n      0x0a\n        /* \"contracts/8_array1.sol\":839:853  new uint[](10) */\n      0xffffffffffffffff\n      dup2\n      gt\n      iszero\n      tag_31\n      jumpi\n      mstore(0x00, 0x4e487b7100000000000000000000000000000000000000000000000000000000)\n      mstore(0x04, 0x41)\n      revert(0x00, 0x24)\n    tag_31:\n      mload(0x40)\n      swap1\n      dup1\n      dup3\n      mstore\n      dup1\n      0x20\n      mul\n      0x20\n      add\n      dup3\n      add\n      0x40\n      mstore\n      dup1\n      iszero\n      tag_32\n      jumpi\n      dup2\n      0x20\n      add\n      0x20\n      dup3\n      mul\n      dup1\n      calldatasize\n      dup4\n      calldatacopy\n      dup1\n      dup3\n      add\n      swap2\n      pop\n      pop\n      swap1\n      pop\n    tag_32:\n      pop\n        /* \"contracts/8_array1.sol\":816:853  uint[] memory mArray = new uint[](10) */\n      swap1\n      pop\n        /* \"contracts/8_array1.sol\":925:926  1 */\n      0x01\n        /* \"contracts/8_array1.sol\":913:919  mArray */\n      dup2\n        /* \"contracts/8_array1.sol\":920:921  0 */\n      0x00\n        /* \"contracts/8_array1.sol\":913:922  mArray[0] */\n      dup2\n      mload\n      dup2\n      lt\n      tag_33\n      jumpi\n      mstore(0x00, 0x4e487b7100000000000000000000000000000000000000000000000000000000)\n      mstore(0x04, 0x32)\n      revert(0x00, 0x24)\n    tag_33:\n      0x20\n      mul\n      0x20\n      add\n      add\n        /* \"contracts/8_array1.sol\":913:926  mArray[0] = 1 */\n      dup2\n      dup2\n      mstore\n      pop\n      pop\n        /* \"contracts/8_array1.sol\":944:950  mArray */\n      dup1\n        /* \"contracts/8_array1.sol\":951:952  0 */\n      0x00\n        /* \"contracts/8_array1.sol\":944:953  mArray[0] */\n      dup2\n      mload\n      dup2\n      lt\n      tag_34\n      jumpi\n      mstore(0x00, 0x4e487b7100000000000000000000000000000000000000000000000000000000)\n      mstore(0x04, 0x32)\n      revert(0x00, 0x24)\n    tag_34:\n      0x20\n      mul\n      0x20\n      add\n      add\n        /* \"contracts/8_array1.sol\":936:953  delete  mArray[0] */\n      0x00\n      dup2\n      mstore\n      pop\n        /* \"contracts/8_array1.sol\":973:979  mArray */\n      dup1\n        /* \"contracts/8_array1.sol\":963:970  myArray */\n      0x01\n        /* \"contracts/8_array1.sol\":963:979  myArray = mArray */\n      swap1\n      dup1\n      mload\n      swap1\n      0x20\n      add\n      swap1\n      tag_35\n      swap3\n      swap2\n      swap1\n      tag_36\n      jump\t// in\n    tag_35:\n      pop\n        /* \"contracts/8_array1.sol\":773:986  function memoryArray() external  {... */\n      pop\n      jump\t// out\n        /* \"contracts/8_array1.sol\":451:518  function setValue(uint _value) external {... */\n    tag_17:\n        /* \"contracts/8_array1.sol\":505:511  _value */\n      dup1\n        /* \"contracts/8_array1.sol\":501:502  a */\n      0x00\n        /* \"contracts/8_array1.sol\":501:511  a = _value */\n      dup2\n      swap1\n      sstore\n      pop\n        /* \"contracts/8_array1.sol\":451:518  function setValue(uint _value) external {... */\n      pop\n      jump\t// out\n        /* \"contracts/8_array1.sol\":604:767  function deleteItem () external {... */\n    tag_19:\n        /* \"contracts/8_array1.sol\":659:660  9 */\n      0x09\n        /* \"contracts/8_array1.sol\":646:653  myArray */\n      0x01\n        /* \"contracts/8_array1.sol\":654:655  0 */\n      0x00\n        /* \"contracts/8_array1.sol\":646:656  myArray[0] */\n      dup2\n      sload\n      dup2\n      lt\n      tag_39\n      jumpi\n      mstore(0x00, 0x4e487b7100000000000000000000000000000000000000000000000000000000)\n      mstore(0x04, 0x32)\n      revert(0x00, 0x24)\n    tag_39:\n      swap1\n      0x00\n      mstore\n      keccak256(0x00, 0x20)\n      add\n        /* \"contracts/8_array1.sol\":646:660  myArray[0] = 9 */\n      dup2\n      swap1\n      sstore\n      pop\n        /* \"contracts/8_array1.sol\":677:684  myArray */\n      0x01\n        /* \"contracts/8_array1.sol\":685:686  0 */\n      0x00\n        /* \"contracts/8_array1.sol\":677:687  myArray[0] */\n      dup2\n      sload\n      dup2\n      lt\n      tag_41\n      jumpi\n      mstore(0x00, 0x4e487b7100000000000000000000000000000000000000000000000000000000)\n      mstore(0x04, 0x32)\n      revert(0x00, 0x24)\n    tag_41:\n      swap1\n      0x00\n      mstore\n      keccak256(0x00, 0x20)\n      add\n        /* \"contracts/8_array1.sol\":670:687  delete myArray[0] */\n      0x00\n      swap1\n      sstore\n        /* \"contracts/8_array1.sol\":604:767  function deleteItem () external {... */\n      jump\t// out\n        /* \"contracts/8_array1.sol\":992:1059  function parameterArray (uint[] calldata pArray) external  {... */\n    tag_23:\n      pop\n      pop\n      jump\t// out\n        /* \"contracts/8_array1.sol\":1065:1154  function parameterArrayMemory (uint[] memory pArray) public  { //internal, private... */\n    tag_27:\n      pop\n      jump\t// out\n    tag_36:\n      dup3\n      dup1\n      sload\n      dup3\n      dup3\n      sstore\n      swap1\n      0x00\n      mstore\n      keccak256(0x00, 0x20)\n      swap1\n      dup2\n      add\n      swap3\n      dup3\n      iszero\n      tag_45\n      jumpi\n      swap2\n      0x20\n      mul\n      dup3\n      add\n    tag_46:\n      dup3\n      dup2\n      gt\n      iszero\n      tag_47\n      jumpi\n      dup3\n      mload\n      dup3\n      sstore\n      swap2\n      0x20\n      add\n      swap2\n      swap1\n      0x01\n      add\n      swap1\n      jump(tag_46)\n    tag_47:\n    tag_45:\n      pop\n      swap1\n      pop\n      tag_48\n      swap2\n      swap1\n      tag_49\n      jump\t// in\n    tag_48:\n      pop\n      swap1\n      jump\t// out\n    tag_49:\n    tag_50:\n      dup1\n      dup3\n      gt\n      iszero\n      tag_51\n      jumpi\n      0x00\n      dup2\n      0x00\n      swap1\n      sstore\n      pop\n      0x01\n      add\n      jump(tag_50)\n    tag_51:\n      pop\n      swap1\n      jump\t// out\n        /* \"#utility.yul\":24:647   */\n    tag_53:\n      0x00\n        /* \"#utility.yul\":145:226   */\n      tag_55\n        /* \"#utility.yul\":161:225   */\n      tag_56\n        /* \"#utility.yul\":218:224   */\n      dup5\n        /* \"#utility.yul\":161:225   */\n      tag_57\n      jump\t// in\n    tag_56:\n        /* \"#utility.yul\":145:226   */\n      tag_58\n      jump\t// in\n    tag_55:\n        /* \"#utility.yul\":136:226   */\n      swap1\n      pop\n        /* \"#utility.yul\":246:251   */\n      dup1\n        /* \"#utility.yul\":274:280   */\n      dup4\n        /* \"#utility.yul\":267:272   */\n      dup3\n        /* \"#utility.yul\":260:281   */\n      mstore\n        /* \"#utility.yul\":300:304   */\n      0x20\n        /* \"#utility.yul\":293:298   */\n      dup3\n        /* \"#utility.yul\":289:305   */\n      add\n        /* \"#utility.yul\":282:305   */\n      swap1\n      pop\n        /* \"#utility.yul\":325:331   */\n      dup3\n        /* \"#utility.yul\":375:378   */\n      dup6\n        /* \"#utility.yul\":367:371   */\n      0x20\n        /* \"#utility.yul\":359:365   */\n      dup7\n        /* \"#utility.yul\":355:372   */\n      mul\n        /* \"#utility.yul\":350:353   */\n      dup3\n        /* \"#utility.yul\":346:373   */\n      add\n        /* \"#utility.yul\":343:379   */\n      gt\n        /* \"#utility.yul\":340:342   */\n      iszero\n      tag_59\n      jumpi\n        /* \"#utility.yul\":392:393   */\n      0x00\n        /* \"#utility.yul\":389:390   */\n      dup1\n        /* \"#utility.yul\":382:394   */\n      revert\n        /* \"#utility.yul\":340:342   */\n    tag_59:\n        /* \"#utility.yul\":420:421   */\n      0x00\n        /* \"#utility.yul\":405:641   */\n    tag_60:\n        /* \"#utility.yul\":430:436   */\n      dup6\n        /* \"#utility.yul\":427:428   */\n      dup2\n        /* \"#utility.yul\":424:437   */\n      lt\n        /* \"#utility.yul\":405:641   */\n      iszero\n      tag_62\n      jumpi\n        /* \"#utility.yul\":497:500   */\n      dup2\n        /* \"#utility.yul\":525:562   */\n      tag_63\n        /* \"#utility.yul\":558:561   */\n      dup9\n        /* \"#utility.yul\":546:556   */\n      dup3\n        /* \"#utility.yul\":525:562   */\n      tag_64\n      jump\t// in\n    tag_63:\n        /* \"#utility.yul\":520:523   */\n      dup5\n        /* \"#utility.yul\":513:563   */\n      mstore\n        /* \"#utility.yul\":592:596   */\n      0x20\n        /* \"#utility.yul\":587:590   */\n      dup5\n        /* \"#utility.yul\":583:597   */\n      add\n        /* \"#utility.yul\":576:597   */\n      swap4\n      pop\n        /* \"#utility.yul\":626:630   */\n      0x20\n        /* \"#utility.yul\":621:624   */\n      dup4\n        /* \"#utility.yul\":617:631   */\n      add\n        /* \"#utility.yul\":610:631   */\n      swap3\n      pop\n        /* \"#utility.yul\":465:641   */\n      pop\n        /* \"#utility.yul\":452:453   */\n      0x01\n        /* \"#utility.yul\":449:450   */\n      dup2\n        /* \"#utility.yul\":445:454   */\n      add\n        /* \"#utility.yul\":440:454   */\n      swap1\n      pop\n        /* \"#utility.yul\":405:641   */\n      jump(tag_60)\n    tag_62:\n        /* \"#utility.yul\":409:423   */\n      pop\n        /* \"#utility.yul\":126:647   */\n      pop\n      pop\n      swap4\n      swap3\n      pop\n      pop\n      pop\n      jump\t// out\n        /* \"#utility.yul\":670:1037   */\n    tag_65:\n      0x00\n      dup1\n        /* \"#utility.yul\":803:806   */\n      dup4\n        /* \"#utility.yul\":796:800   */\n      0x1f\n        /* \"#utility.yul\":788:794   */\n      dup5\n        /* \"#utility.yul\":784:801   */\n      add\n        /* \"#utility.yul\":780:807   */\n      slt\n        /* \"#utility.yul\":770:772   */\n      tag_67\n      jumpi\n        /* \"#utility.yul\":821:822   */\n      0x00\n        /* \"#utility.yul\":818:819   */\n      dup1\n        /* \"#utility.yul\":811:823   */\n      revert\n        /* \"#utility.yul\":770:772   */\n    tag_67:\n        /* \"#utility.yul\":857:863   */\n      dup3\n        /* \"#utility.yul\":844:864   */\n      calldataload\n        /* \"#utility.yul\":834:864   */\n      swap1\n      pop\n        /* \"#utility.yul\":887:905   */\n      0xffffffffffffffff\n        /* \"#utility.yul\":879:885   */\n      dup2\n        /* \"#utility.yul\":876:906   */\n      gt\n        /* \"#utility.yul\":873:875   */\n      iszero\n      tag_68\n      jumpi\n        /* \"#utility.yul\":919:920   */\n      0x00\n        /* \"#utility.yul\":916:917   */\n      dup1\n        /* \"#utility.yul\":909:921   */\n      revert\n        /* \"#utility.yul\":873:875   */\n    tag_68:\n        /* \"#utility.yul\":956:960   */\n      0x20\n        /* \"#utility.yul\":948:954   */\n      dup4\n        /* \"#utility.yul\":944:961   */\n      add\n        /* \"#utility.yul\":932:961   */\n      swap2\n      pop\n        /* \"#utility.yul\":1010:1013   */\n      dup4\n        /* \"#utility.yul\":1002:1006   */\n      0x20\n        /* \"#utility.yul\":994:1000   */\n      dup3\n        /* \"#utility.yul\":990:1007   */\n      mul\n        /* \"#utility.yul\":980:988   */\n      dup4\n        /* \"#utility.yul\":976:1008   */\n      add\n        /* \"#utility.yul\":973:1014   */\n      gt\n        /* \"#utility.yul\":970:972   */\n      iszero\n      tag_69\n      jumpi\n        /* \"#utility.yul\":1027:1028   */\n      0x00\n        /* \"#utility.yul\":1024:1025   */\n      dup1\n        /* \"#utility.yul\":1017:1029   */\n      revert\n        /* \"#utility.yul\":970:972   */\n    tag_69:\n        /* \"#utility.yul\":760:1037   */\n      swap3\n      pop\n      swap3\n      swap1\n      pop\n      jump\t// out\n        /* \"#utility.yul\":1060:1363   */\n    tag_70:\n      0x00\n        /* \"#utility.yul\":1180:1183   */\n      dup3\n        /* \"#utility.yul\":1173:1177   */\n      0x1f\n        /* \"#utility.yul\":1165:1171   */\n      dup4\n        /* \"#utility.yul\":1161:1178   */\n      add\n        /* \"#utility.yul\":1157:1184   */\n      slt\n        /* \"#utility.yul\":1147:1149   */\n      tag_72\n      jumpi\n        /* \"#utility.yul\":1198:1199   */\n      0x00\n        /* \"#utility.yul\":1195:1196   */\n      dup1\n        /* \"#utility.yul\":1188:1200   */\n      revert\n        /* \"#utility.yul\":1147:1149   */\n    tag_72:\n        /* \"#utility.yul\":1238:1244   */\n      dup2\n        /* \"#utility.yul\":1225:1245   */\n      calldataload\n        /* \"#utility.yul\":1263:1357   */\n      tag_73\n        /* \"#utility.yul\":1353:1356   */\n      dup5\n        /* \"#utility.yul\":1345:1351   */\n      dup3\n        /* \"#utility.yul\":1338:1342   */\n      0x20\n        /* \"#utility.yul\":1330:1336   */\n      dup7\n        /* \"#utility.yul\":1326:1343   */\n      add\n        /* \"#utility.yul\":1263:1357   */\n      tag_53\n      jump\t// in\n    tag_73:\n        /* \"#utility.yul\":1254:1357   */\n      swap2\n      pop\n        /* \"#utility.yul\":1137:1363   */\n      pop\n      swap3\n      swap2\n      pop\n      pop\n      jump\t// out\n        /* \"#utility.yul\":1369:1508   */\n    tag_64:\n      0x00\n        /* \"#utility.yul\":1453:1459   */\n      dup2\n        /* \"#utility.yul\":1440:1460   */\n      calldataload\n        /* \"#utility.yul\":1431:1460   */\n      swap1\n      pop\n        /* \"#utility.yul\":1469:1502   */\n      tag_75\n        /* \"#utility.yul\":1496:1501   */\n      dup2\n        /* \"#utility.yul\":1469:1502   */\n      tag_76\n      jump\t// in\n    tag_75:\n        /* \"#utility.yul\":1421:1508   */\n      swap3\n      swap2\n      pop\n      pop\n      jump\t// out\n        /* \"#utility.yul\":1514:1939   */\n    tag_22:\n      0x00\n      dup1\n        /* \"#utility.yul\":1657:1659   */\n      0x20\n        /* \"#utility.yul\":1645:1654   */\n      dup4\n        /* \"#utility.yul\":1636:1643   */\n      dup6\n        /* \"#utility.yul\":1632:1655   */\n      sub\n        /* \"#utility.yul\":1628:1660   */\n      slt\n        /* \"#utility.yul\":1625:1627   */\n      iszero\n      tag_78\n      jumpi\n        /* \"#utility.yul\":1673:1674   */\n      0x00\n        /* \"#utility.yul\":1670:1671   */\n      dup1\n        /* \"#utility.yul\":1663:1675   */\n      revert\n        /* \"#utility.yul\":1625:1627   */\n    tag_78:\n        /* \"#utility.yul\":1744:1745   */\n      0x00\n        /* \"#utility.yul\":1733:1742   */\n      dup4\n        /* \"#utility.yul\":1729:1746   */\n      add\n        /* \"#utility.yul\":1716:1747   */\n      calldataload\n        /* \"#utility.yul\":1774:1792   */\n      0xffffffffffffffff\n        /* \"#utility.yul\":1766:1772   */\n      dup2\n        /* \"#utility.yul\":1763:1793   */\n      gt\n        /* \"#utility.yul\":1760:1762   */\n      iszero\n      tag_79\n      jumpi\n        /* \"#utility.yul\":1806:1807   */\n      0x00\n        /* \"#utility.yul\":1803:1804   */\n      dup1\n        /* \"#utility.yul\":1796:1808   */\n      revert\n        /* \"#utility.yul\":1760:1762   */\n    tag_79:\n        /* \"#utility.yul\":1842:1922   */\n      tag_80\n        /* \"#utility.yul\":1914:1921   */\n      dup6\n        /* \"#utility.yul\":1905:1911   */\n      dup3\n        /* \"#utility.yul\":1894:1903   */\n      dup7\n        /* \"#utility.yul\":1890:1912   */\n      add\n        /* \"#utility.yul\":1842:1922   */\n      tag_65\n      jump\t// in\n    tag_80:\n        /* \"#utility.yul\":1824:1922   */\n      swap3\n      pop\n      swap3\n      pop\n        /* \"#utility.yul\":1687:1932   */\n      pop\n        /* \"#utility.yul\":1615:1939   */\n      swap3\n      pop\n      swap3\n      swap1\n      pop\n      jump\t// out\n        /* \"#utility.yul\":1945:2350   */\n    tag_26:\n      0x00\n        /* \"#utility.yul\":2078:2080   */\n      0x20\n        /* \"#utility.yul\":2066:2075   */\n      dup3\n        /* \"#utility.yul\":2057:2064   */\n      dup5\n        /* \"#utility.yul\":2053:2076   */\n      sub\n        /* \"#utility.yul\":2049:2081   */\n      slt\n        /* \"#utility.yul\":2046:2048   */\n      iszero\n      tag_82\n      jumpi\n        /* \"#utility.yul\":2094:2095   */\n      0x00\n        /* \"#utility.yul\":2091:2092   */\n      dup1\n        /* \"#utility.yul\":2084:2096   */\n      revert\n        /* \"#utility.yul\":2046:2048   */\n    tag_82:\n        /* \"#utility.yul\":2165:2166   */\n      0x00\n        /* \"#utility.yul\":2154:2163   */\n      dup3\n        /* \"#utility.yul\":2150:2167   */\n      add\n        /* \"#utility.yul\":2137:2168   */\n      calldataload\n        /* \"#utility.yul\":2195:2213   */\n      0xffffffffffffffff\n        /* \"#utility.yul\":2187:2193   */\n      dup2\n        /* \"#utility.yul\":2184:2214   */\n      gt\n        /* \"#utility.yul\":2181:2183   */\n      iszero\n      tag_83\n      jumpi\n        /* \"#utility.yul\":2227:2228   */\n      0x00\n        /* \"#utility.yul\":2224:2225   */\n      dup1\n        /* \"#utility.yul\":2217:2229   */\n      revert\n        /* \"#utility.yul\":2181:2183   */\n    tag_83:\n        /* \"#utility.yul\":2255:2333   */\n      tag_84\n        /* \"#utility.yul\":2325:2332   */\n      dup5\n        /* \"#utility.yul\":2316:2322   */\n      dup3\n        /* \"#utility.yul\":2305:2314   */\n      dup6\n        /* \"#utility.yul\":2301:2323   */\n      add\n        /* \"#utility.yul\":2255:2333   */\n      tag_70\n      jump\t// in\n    tag_84:\n        /* \"#utility.yul\":2245:2333   */\n      swap2\n      pop\n        /* \"#utility.yul\":2108:2343   */\n      pop\n        /* \"#utility.yul\":2036:2350   */\n      swap3\n      swap2\n      pop\n      pop\n      jump\t// out\n        /* \"#utility.yul\":2356:2618   */\n    tag_11:\n      0x00\n        /* \"#utility.yul\":2464:2466   */\n      0x20\n        /* \"#utility.yul\":2452:2461   */\n      dup3\n        /* \"#utility.yul\":2443:2450   */\n      dup5\n        /* \"#utility.yul\":2439:2462   */\n      sub\n        /* \"#utility.yul\":2435:2467   */\n      slt\n        /* \"#utility.yul\":2432:2434   */\n      iszero\n      tag_86\n      jumpi\n        /* \"#utility.yul\":2480:2481   */\n      0x00\n        /* \"#utility.yul\":2477:2478   */\n      dup1\n        /* \"#utility.yul\":2470:2482   */\n      revert\n        /* \"#utility.yul\":2432:2434   */\n    tag_86:\n        /* \"#utility.yul\":2523:2524   */\n      0x00\n        /* \"#utility.yul\":2548:2601   */\n      tag_87\n        /* \"#utility.yul\":2593:2600   */\n      dup5\n        /* \"#utility.yul\":2584:2590   */\n      dup3\n        /* \"#utility.yul\":2573:2582   */\n      dup6\n        /* \"#utility.yul\":2569:2591   */\n      add\n        /* \"#utility.yul\":2548:2601   */\n      tag_64\n      jump\t// in\n    tag_87:\n        /* \"#utility.yul\":2538:2601   */\n      swap2\n      pop\n        /* \"#utility.yul\":2494:2611   */\n      pop\n        /* \"#utility.yul\":2422:2618   */\n      swap3\n      swap2\n      pop\n      pop\n      jump\t// out\n        /* \"#utility.yul\":2624:2753   */\n    tag_58:\n      0x00\n        /* \"#utility.yul\":2685:2705   */\n      tag_89\n      tag_90\n      jump\t// in\n    tag_89:\n        /* \"#utility.yul\":2675:2705   */\n      swap1\n      pop\n        /* \"#utility.yul\":2714:2747   */\n      tag_91\n        /* \"#utility.yul\":2742:2746   */\n      dup3\n        /* \"#utility.yul\":2734:2740   */\n      dup3\n        /* \"#utility.yul\":2714:2747   */\n      tag_92\n      jump\t// in\n    tag_91:\n        /* \"#utility.yul\":2665:2753   */\n      swap2\n      swap1\n      pop\n      jump\t// out\n        /* \"#utility.yul\":2759:2834   */\n    tag_90:\n      0x00\n        /* \"#utility.yul\":2825:2827   */\n      0x40\n        /* \"#utility.yul\":2819:2828   */\n      mload\n        /* \"#utility.yul\":2809:2828   */\n      swap1\n      pop\n        /* \"#utility.yul\":2799:2834   */\n      swap1\n      jump\t// out\n        /* \"#utility.yul\":2840:3151   */\n    tag_57:\n      0x00\n        /* \"#utility.yul\":3007:3025   */\n      0xffffffffffffffff\n        /* \"#utility.yul\":2999:3005   */\n      dup3\n        /* \"#utility.yul\":2996:3026   */\n      gt\n        /* \"#utility.yul\":2993:2995   */\n      iszero\n      tag_95\n      jumpi\n        /* \"#utility.yul\":3029:3047   */\n      tag_96\n      tag_97\n      jump\t// in\n    tag_96:\n        /* \"#utility.yul\":2993:2995   */\n    tag_95:\n        /* \"#utility.yul\":3079:3083   */\n      0x20\n        /* \"#utility.yul\":3071:3077   */\n      dup3\n        /* \"#utility.yul\":3067:3084   */\n      mul\n        /* \"#utility.yul\":3059:3084   */\n      swap1\n      pop\n        /* \"#utility.yul\":3139:3143   */\n      0x20\n        /* \"#utility.yul\":3133:3137   */\n      dup2\n        /* \"#utility.yul\":3129:3144   */\n      add\n        /* \"#utility.yul\":3121:3144   */\n      swap1\n      pop\n        /* \"#utility.yul\":2922:3151   */\n      swap2\n      swap1\n      pop\n      jump\t// out\n        /* \"#utility.yul\":3157:3234   */\n    tag_98:\n      0x00\n        /* \"#utility.yul\":3223:3228   */\n      dup2\n        /* \"#utility.yul\":3212:3228   */\n      swap1\n      pop\n        /* \"#utility.yul\":3202:3234   */\n      swap2\n      swap1\n      pop\n      jump\t// out\n        /* \"#utility.yul\":3240:3521   */\n    tag_92:\n        /* \"#utility.yul\":3323:3350   */\n      tag_101\n        /* \"#utility.yul\":3345:3349   */\n      dup3\n        /* \"#utility.yul\":3323:3350   */\n      tag_102\n      jump\t// in\n    tag_101:\n        /* \"#utility.yul\":3315:3321   */\n      dup2\n        /* \"#utility.yul\":3311:3351   */\n      add\n        /* \"#utility.yul\":3453:3459   */\n      dup2\n        /* \"#utility.yul\":3441:3451   */\n      dup2\n        /* \"#utility.yul\":3438:3460   */\n      lt\n        /* \"#utility.yul\":3417:3435   */\n      0xffffffffffffffff\n        /* \"#utility.yul\":3405:3415   */\n      dup3\n        /* \"#utility.yul\":3402:3436   */\n      gt\n        /* \"#utility.yul\":3399:3461   */\n      or\n        /* \"#utility.yul\":3396:3398   */\n      iszero\n      tag_103\n      jumpi\n        /* \"#utility.yul\":3464:3482   */\n      tag_104\n      tag_97\n      jump\t// in\n    tag_104:\n        /* \"#utility.yul\":3396:3398   */\n    tag_103:\n        /* \"#utility.yul\":3504:3514   */\n      dup1\n        /* \"#utility.yul\":3500:3502   */\n      0x40\n        /* \"#utility.yul\":3493:3515   */\n      mstore\n        /* \"#utility.yul\":3283:3521   */\n      pop\n      pop\n      pop\n      jump\t// out\n        /* \"#utility.yul\":3527:3707   */\n    tag_97:\n        /* \"#utility.yul\":3575:3652   */\n      0x4e487b7100000000000000000000000000000000000000000000000000000000\n        /* \"#utility.yul\":3572:3573   */\n      0x00\n        /* \"#utility.yul\":3565:3653   */\n      mstore\n        /* \"#utility.yul\":3672:3676   */\n      0x41\n        /* \"#utility.yul\":3669:3670   */\n      0x04\n        /* \"#utility.yul\":3662:3677   */\n      mstore\n        /* \"#utility.yul\":3696:3700   */\n      0x24\n        /* \"#utility.yul\":3693:3694   */\n      0x00\n        /* \"#utility.yul\":3686:3701   */\n      revert\n        /* \"#utility.yul\":3713:3815   */\n    tag_102:\n      0x00\n        /* \"#utility.yul\":3805:3807   */\n      0x1f\n        /* \"#utility.yul\":3801:3808   */\n      not\n        /* \"#utility.yul\":3796:3798   */\n      0x1f\n        /* \"#utility.yul\":3789:3794   */\n      dup4\n        /* \"#utility.yul\":3785:3799   */\n      add\n        /* \"#utility.yul\":3781:3809   */\n      and\n        /* \"#utility.yul\":3771:3809   */\n      swap1\n      pop\n        /* \"#utility.yul\":3761:3815   */\n      swap2\n      swap1\n      pop\n      jump\t// out\n        /* \"#utility.yul\":3821:3943   */\n    tag_76:\n        /* \"#utility.yul\":3894:3918   */\n      tag_108\n        /* \"#utility.yul\":3912:3917   */\n      dup2\n        /* \"#utility.yul\":3894:3918   */\n      tag_98\n      jump\t// in\n    tag_108:\n        /* \"#utility.yul\":3887:3892   */\n      dup2\n        /* \"#utility.yul\":3884:3919   */\n      eq\n        /* \"#utility.yul\":3874:3876   */\n      tag_109\n      jumpi\n        /* \"#utility.yul\":3933:3934   */\n      0x00\n        /* \"#utility.yul\":3930:3931   */\n      dup1\n        /* \"#utility.yul\":3923:3935   */\n      revert\n        /* \"#utility.yul\":3874:3876   */\n    tag_109:\n        /* \"#utility.yul\":3864:3943   */\n      pop\n      jump\t// out\n\n    auxdata: 0xa2646970667358221220c6150f81d4b598016ead54bc98d9974bbc94afe4ba425835f8fba95211a6e7cd64736f6c63430008030033\n}\n",
				"bytecode": {
					"linkReferences": {},
					"object": "60806040526040518060800160405280600160ff168152602001600260ff168152602001600560ff168152602001600660ff1681525060019060046100459291906100c3565b506040518060800160405280600160ff168152602001600260ff168152602001600560ff168152602001600660ff168152506002906004610087929190610115565b5034801561009457600080fd5b506040516107e63803806107e683398181016040528101906100b6919061018c565b80600081905550506101d6565b828054828255906000526020600020908101928215610104579160200282015b82811115610103578251829060ff169055916020019190600101906100e3565b5b509050610111919061015a565b5090565b8260048101928215610149579160200282015b82811115610148578251829060ff16905591602001919060010190610128565b5b509050610156919061015a565b5090565b5b8082111561017357600081600090555060010161015b565b5090565b600081519050610186816101bf565b92915050565b60006020828403121561019e57600080fd5b60006101ac84828501610177565b91505092915050565b6000819050919050565b6101c8816101b5565b81146101d357600080fd5b50565b610601806101e56000396000f3fe608060405234801561001057600080fd5b50600436106100625760003560e01c80631003e2d214610067578063500e135514610083578063552410771461008d5780638b532f39146100a9578063f4d25dfb146100b3578063f4e2eece146100cf575b600080fd5b610081600480360381019061007c91906104bf565b6100eb565b005b61008b610117565b005b6100a760048036038101906100a291906104bf565b610233565b005b6100b161023d565b005b6100cd60048036038101906100c89190610439565b6102d3565b005b6100e960048036038101906100e4919061047e565b6102d7565b005b600181908060018154018082558091505060019003906000526020600020016000909190919091505550565b6000600a67ffffffffffffffff81111561015a577f4e487b7100000000000000000000000000000000000000000000000000000000600052604160045260246000fd5b6040519080825280602002602001820160405280156101885781602001602082028036833780820191505090505b5090506001816000815181106101c7577f4e487b7100000000000000000000000000000000000000000000000000000000600052603260045260246000fd5b6020026020010181815250508060008151811061020d577f4e487b7100000000000000000000000000000000000000000000000000000000600052603260045260246000fd5b602002602001016000815250806001908051906020019061022f9291906102da565b5050565b8060008190555050565b6009600160008154811061027a577f4e487b7100000000000000000000000000000000000000000000000000000000600052603260045260246000fd5b906000526020600020018190555060016000815481106102c3577f4e487b7100000000000000000000000000000000000000000000000000000000600052603260045260246000fd5b9060005260206000200160009055565b5050565b50565b828054828255906000526020600020908101928215610316579160200282015b828111156103155782518255916020019190600101906102fa565b5b5090506103239190610327565b5090565b5b80821115610340576000816000905550600101610328565b5090565b60006103576103528461050d565b6104e8565b9050808382526020820190508285602086028201111561037657600080fd5b60005b858110156103a6578161038c8882610424565b845260208401935060208301925050600181019050610379565b5050509392505050565b60008083601f8401126103c257600080fd5b8235905067ffffffffffffffff8111156103db57600080fd5b6020830191508360208202830111156103f357600080fd5b9250929050565b600082601f83011261040b57600080fd5b813561041b848260208601610344565b91505092915050565b600081359050610433816105b4565b92915050565b6000806020838503121561044c57600080fd5b600083013567ffffffffffffffff81111561046657600080fd5b610472858286016103b0565b92509250509250929050565b60006020828403121561049057600080fd5b600082013567ffffffffffffffff8111156104aa57600080fd5b6104b6848285016103fa565b91505092915050565b6000602082840312156104d157600080fd5b60006104df84828501610424565b91505092915050565b60006104f2610503565b90506104fe8282610543565b919050565b6000604051905090565b600067ffffffffffffffff82111561052857610527610574565b5b602082029050602081019050919050565b6000819050919050565b61054c826105a3565b810181811067ffffffffffffffff8211171561056b5761056a610574565b5b80604052505050565b7f4e487b7100000000000000000000000000000000000000000000000000000000600052604160045260246000fd5b6000601f19601f8301169050919050565b6105bd81610539565b81146105c857600080fd5b5056fea2646970667358221220c6150f81d4b598016ead54bc98d9974bbc94afe4ba425835f8fba95211a6e7cd64736f6c63430008030033",
					"opcodes": "PUSH1 0x80 PUSH1 0x40 MSTORE PUSH1 0x40 MLOAD DUP1 PUSH1 0x80 ADD PUSH1 0x40 MSTORE DUP1 PUSH1 0x1 PUSH1 0xFF AND DUP2 MSTORE PUSH1 0x20 ADD PUSH1 0x2 PUSH1 0xFF AND DUP2 MSTORE PUSH1 0x20 ADD PUSH1 0x5 PUSH1 0xFF AND DUP2 MSTORE PUSH1 0x20 ADD PUSH1 0x6 PUSH1 0xFF AND DUP2 MSTORE POP PUSH1 0x1 SWAP1 PUSH1 0x4 PUSH2 0x45 SWAP3 SWAP2 SWAP1 PUSH2 0xC3 JUMP JUMPDEST POP PUSH1 0x40 MLOAD DUP1 PUSH1 0x80 ADD PUSH1 0x40 MSTORE DUP1 PUSH1 0x1 PUSH1 0xFF AND DUP2 MSTORE PUSH1 0x20 ADD PUSH1 0x2 PUSH1 0xFF AND DUP2 MSTORE PUSH1 0x20 ADD PUSH1 0x5 PUSH1 0xFF AND DUP2 MSTORE PUSH1 0x20 ADD PUSH1 0x6 PUSH1 0xFF AND DUP2 MSTORE POP PUSH1 0x2 SWAP1 PUSH1 0x4 PUSH2 0x87 SWAP3 SWAP2 SWAP1 PUSH2 0x115 JUMP JUMPDEST POP CALLVALUE DUP1 ISZERO PUSH2 0x94 JUMPI PUSH1 0x0 DUP1 REVERT JUMPDEST POP PUSH1 0x40 MLOAD PUSH2 0x7E6 CODESIZE SUB DUP1 PUSH2 0x7E6 DUP4 CODECOPY DUP2 DUP2 ADD PUSH1 0x40 MSTORE DUP2 ADD SWAP1 PUSH2 0xB6 SWAP2 SWAP1 PUSH2 0x18C JUMP JUMPDEST DUP1 PUSH1 0x0 DUP2 SWAP1 SSTORE POP POP PUSH2 0x1D6 JUMP JUMPDEST DUP3 DUP1 SLOAD DUP3 DUP3 SSTORE SWAP1 PUSH1 0x0 MSTORE PUSH1 0x20 PUSH1 0x0 KECCAK256 SWAP1 DUP2 ADD SWAP3 DUP3 ISZERO PUSH2 0x104 JUMPI SWAP2 PUSH1 0x20 MUL DUP3 ADD JUMPDEST DUP3 DUP2 GT ISZERO PUSH2 0x103 JUMPI DUP3 MLOAD DUP3 SWAP1 PUSH1 0xFF AND SWAP1 SSTORE SWAP2 PUSH1 0x20 ADD SWAP2 SWAP1 PUSH1 0x1 ADD SWAP1 PUSH2 0xE3 JUMP JUMPDEST JUMPDEST POP SWAP1 POP PUSH2 0x111 SWAP2 SWAP1 PUSH2 0x15A JUMP JUMPDEST POP SWAP1 JUMP JUMPDEST DUP3 PUSH1 0x4 DUP2 ADD SWAP3 DUP3 ISZERO PUSH2 0x149 JUMPI SWAP2 PUSH1 0x20 MUL DUP3 ADD JUMPDEST DUP3 DUP2 GT ISZERO PUSH2 0x148 JUMPI DUP3 MLOAD DUP3 SWAP1 PUSH1 0xFF AND SWAP1 SSTORE SWAP2 PUSH1 0x20 ADD SWAP2 SWAP1 PUSH1 0x1 ADD SWAP1 PUSH2 0x128 JUMP JUMPDEST JUMPDEST POP SWAP1 POP PUSH2 0x156 SWAP2 SWAP1 PUSH2 0x15A JUMP JUMPDEST POP SWAP1 JUMP JUMPDEST JUMPDEST DUP1 DUP3 GT ISZERO PUSH2 0x173 JUMPI PUSH1 0x0 DUP2 PUSH1 0x0 SWAP1 SSTORE POP PUSH1 0x1 ADD PUSH2 0x15B JUMP JUMPDEST POP SWAP1 JUMP JUMPDEST PUSH1 0x0 DUP2 MLOAD SWAP1 POP PUSH2 0x186 DUP2 PUSH2 0x1BF JUMP JUMPDEST SWAP3 SWAP2 POP POP JUMP JUMPDEST PUSH1 0x0 PUSH1 0x20 DUP3 DUP5 SUB SLT ISZERO PUSH2 0x19E JUMPI PUSH1 0x0 DUP1 REVERT JUMPDEST PUSH1 0x0 PUSH2 0x1AC DUP5 DUP3 DUP6 ADD PUSH2 0x177 JUMP JUMPDEST SWAP2 POP POP SWAP3 SWAP2 POP POP JUMP JUMPDEST PUSH1 0x0 DUP2 SWAP1 POP SWAP2 SWAP1 POP JUMP JUMPDEST PUSH2 0x1C8 DUP2 PUSH2 0x1B5 JUMP JUMPDEST DUP2 EQ PUSH2 0x1D3 JUMPI PUSH1 0x0 DUP1 REVERT JUMPDEST POP JUMP JUMPDEST PUSH2 0x601 DUP1 PUSH2 0x1E5 PUSH1 0x0 CODECOPY PUSH1 0x0 RETURN INVALID PUSH1 0x80 PUSH1 0x40 MSTORE CALLVALUE DUP1 ISZERO PUSH2 0x10 JUMPI PUSH1 0x0 DUP1 REVERT JUMPDEST POP PUSH1 0x4 CALLDATASIZE LT PUSH2 0x62 JUMPI PUSH1 0x0 CALLDATALOAD PUSH1 0xE0 SHR DUP1 PUSH4 0x1003E2D2 EQ PUSH2 0x67 JUMPI DUP1 PUSH4 0x500E1355 EQ PUSH2 0x83 JUMPI DUP1 PUSH4 0x55241077 EQ PUSH2 0x8D JUMPI DUP1 PUSH4 0x8B532F39 EQ PUSH2 0xA9 JUMPI DUP1 PUSH4 0xF4D25DFB EQ PUSH2 0xB3 JUMPI DUP1 PUSH4 0xF4E2EECE EQ PUSH2 0xCF JUMPI JUMPDEST PUSH1 0x0 DUP1 REVERT JUMPDEST PUSH2 0x81 PUSH1 0x4 DUP1 CALLDATASIZE SUB DUP2 ADD SWAP1 PUSH2 0x7C SWAP2 SWAP1 PUSH2 0x4BF JUMP JUMPDEST PUSH2 0xEB JUMP JUMPDEST STOP JUMPDEST PUSH2 0x8B PUSH2 0x117 JUMP JUMPDEST STOP JUMPDEST PUSH2 0xA7 PUSH1 0x4 DUP1 CALLDATASIZE SUB DUP2 ADD SWAP1 PUSH2 0xA2 SWAP2 SWAP1 PUSH2 0x4BF JUMP JUMPDEST PUSH2 0x233 JUMP JUMPDEST STOP JUMPDEST PUSH2 0xB1 PUSH2 0x23D JUMP JUMPDEST STOP JUMPDEST PUSH2 0xCD PUSH1 0x4 DUP1 CALLDATASIZE SUB DUP2 ADD SWAP1 PUSH2 0xC8 SWAP2 SWAP1 PUSH2 0x439 JUMP JUMPDEST PUSH2 0x2D3 JUMP JUMPDEST STOP JUMPDEST PUSH2 0xE9 PUSH1 0x4 DUP1 CALLDATASIZE SUB DUP2 ADD SWAP1 PUSH2 0xE4 SWAP2 SWAP1 PUSH2 0x47E JUMP JUMPDEST PUSH2 0x2D7 JUMP JUMPDEST STOP JUMPDEST PUSH1 0x1 DUP2 SWAP1 DUP1 PUSH1 0x1 DUP2 SLOAD ADD DUP1 DUP3 SSTORE DUP1 SWAP2 POP POP PUSH1 0x1 SWAP1 SUB SWAP1 PUSH1 0x0 MSTORE PUSH1 0x20 PUSH1 0x0 KECCAK256 ADD PUSH1 0x0 SWAP1 SWAP2 SWAP1 SWAP2 SWAP1 SWAP2 POP SSTORE POP JUMP JUMPDEST PUSH1 0x0 PUSH1 0xA PUSH8 0xFFFFFFFFFFFFFFFF DUP2 GT ISZERO PUSH2 0x15A JUMPI PUSH32 0x4E487B7100000000000000000000000000000000000000000000000000000000 PUSH1 0x0 MSTORE PUSH1 0x41 PUSH1 0x4 MSTORE PUSH1 0x24 PUSH1 0x0 REVERT JUMPDEST PUSH1 0x40 MLOAD SWAP1 DUP1 DUP3 MSTORE DUP1 PUSH1 0x20 MUL PUSH1 0x20 ADD DUP3 ADD PUSH1 0x40 MSTORE DUP1 ISZERO PUSH2 0x188 JUMPI DUP2 PUSH1 0x20 ADD PUSH1 0x20 DUP3 MUL DUP1 CALLDATASIZE DUP4 CALLDATACOPY DUP1 DUP3 ADD SWAP2 POP POP SWAP1 POP JUMPDEST POP SWAP1 POP PUSH1 0x1 DUP2 PUSH1 0x0 DUP2 MLOAD DUP2 LT PUSH2 0x1C7 JUMPI PUSH32 0x4E487B7100000000000000000000000000000000000000000000000000000000 PUSH1 0x0 MSTORE PUSH1 0x32 PUSH1 0x4 MSTORE PUSH1 0x24 PUSH1 0x0 REVERT JUMPDEST PUSH1 0x20 MUL PUSH1 0x20 ADD ADD DUP2 DUP2 MSTORE POP POP DUP1 PUSH1 0x0 DUP2 MLOAD DUP2 LT PUSH2 0x20D JUMPI PUSH32 0x4E487B7100000000000000000000000000000000000000000000000000000000 PUSH1 0x0 MSTORE PUSH1 0x32 PUSH1 0x4 MSTORE PUSH1 0x24 PUSH1 0x0 REVERT JUMPDEST PUSH1 0x20 MUL PUSH1 0x20 ADD ADD PUSH1 0x0 DUP2 MSTORE POP DUP1 PUSH1 0x1 SWAP1 DUP1 MLOAD SWAP1 PUSH1 0x20 ADD SWAP1 PUSH2 0x22F SWAP3 SWAP2 SWAP1 PUSH2 0x2DA JUMP JUMPDEST POP POP JUMP JUMPDEST DUP1 PUSH1 0x0 DUP2 SWAP1 SSTORE POP POP JUMP JUMPDEST PUSH1 0x9 PUSH1 0x1 PUSH1 0x0 DUP2 SLOAD DUP2 LT PUSH2 0x27A JUMPI PUSH32 0x4E487B7100000000000000000000000000000000000000000000000000000000 PUSH1 0x0 MSTORE PUSH1 0x32 PUSH1 0x4 MSTORE PUSH1 0x24 PUSH1 0x0 REVERT JUMPDEST SWAP1 PUSH1 0x0 MSTORE PUSH1 0x20 PUSH1 0x0 KECCAK256 ADD DUP2 SWAP1 SSTORE POP PUSH1 0x1 PUSH1 0x0 DUP2 SLOAD DUP2 LT PUSH2 0x2C3 JUMPI PUSH32 0x4E487B7100000000000000000000000000000000000000000000000000000000 PUSH1 0x0 MSTORE PUSH1 0x32 PUSH1 0x4 MSTORE PUSH1 0x24 PUSH1 0x0 REVERT JUMPDEST SWAP1 PUSH1 0x0 MSTORE PUSH1 0x20 PUSH1 0x0 KECCAK256 ADD PUSH1 0x0 SWAP1 SSTORE JUMP JUMPDEST POP POP JUMP JUMPDEST POP JUMP JUMPDEST DUP3 DUP1 SLOAD DUP3 DUP3 SSTORE SWAP1 PUSH1 0x0 MSTORE PUSH1 0x20 PUSH1 0x0 KECCAK256 SWAP1 DUP2 ADD SWAP3 DUP3 ISZERO PUSH2 0x316 JUMPI SWAP2 PUSH1 0x20 MUL DUP3 ADD JUMPDEST DUP3 DUP2 GT ISZERO PUSH2 0x315 JUMPI DUP3 MLOAD DUP3 SSTORE SWAP2 PUSH1 0x20 ADD SWAP2 SWAP1 PUSH1 0x1 ADD SWAP1 PUSH2 0x2FA JUMP JUMPDEST JUMPDEST POP SWAP1 POP PUSH2 0x323 SWAP2 SWAP1 PUSH2 0x327 JUMP JUMPDEST POP SWAP1 JUMP JUMPDEST JUMPDEST DUP1 DUP3 GT ISZERO PUSH2 0x340 JUMPI PUSH1 0x0 DUP2 PUSH1 0x0 SWAP1 SSTORE POP PUSH1 0x1 ADD PUSH2 0x328 JUMP JUMPDEST POP SWAP1 JUMP JUMPDEST PUSH1 0x0 PUSH2 0x357 PUSH2 0x352 DUP5 PUSH2 0x50D JUMP JUMPDEST PUSH2 0x4E8 JUMP JUMPDEST SWAP1 POP DUP1 DUP4 DUP3 MSTORE PUSH1 0x20 DUP3 ADD SWAP1 POP DUP3 DUP6 PUSH1 0x20 DUP7 MUL DUP3 ADD GT ISZERO PUSH2 0x376 JUMPI PUSH1 0x0 DUP1 REVERT JUMPDEST PUSH1 0x0 JUMPDEST DUP6 DUP2 LT ISZERO PUSH2 0x3A6 JUMPI DUP2 PUSH2 0x38C DUP9 DUP3 PUSH2 0x424 JUMP JUMPDEST DUP5 MSTORE PUSH1 0x20 DUP5 ADD SWAP4 POP PUSH1 0x20 DUP4 ADD SWAP3 POP POP PUSH1 0x1 DUP2 ADD SWAP1 POP PUSH2 0x379 JUMP JUMPDEST POP POP POP SWAP4 SWAP3 POP POP POP JUMP JUMPDEST PUSH1 0x0 DUP1 DUP4 PUSH1 0x1F DUP5 ADD SLT PUSH2 0x3C2 JUMPI PUSH1 0x0 DUP1 REVERT JUMPDEST DUP3 CALLDATALOAD SWAP1 POP PUSH8 0xFFFFFFFFFFFFFFFF DUP2 GT ISZERO PUSH2 0x3DB JUMPI PUSH1 0x0 DUP1 REVERT JUMPDEST PUSH1 0x20 DUP4 ADD SWAP2 POP DUP4 PUSH1 0x20 DUP3 MUL DUP4 ADD GT ISZERO PUSH2 0x3F3 JUMPI PUSH1 0x0 DUP1 REVERT JUMPDEST SWAP3 POP SWAP3 SWAP1 POP JUMP JUMPDEST PUSH1 0x0 DUP3 PUSH1 0x1F DUP4 ADD SLT PUSH2 0x40B JUMPI PUSH1 0x0 DUP1 REVERT JUMPDEST DUP2 CALLDATALOAD PUSH2 0x41B DUP5 DUP3 PUSH1 0x20 DUP7 ADD PUSH2 0x344 JUMP JUMPDEST SWAP2 POP POP SWAP3 SWAP2 POP POP JUMP JUMPDEST PUSH1 0x0 DUP2 CALLDATALOAD SWAP1 POP PUSH2 0x433 DUP2 PUSH2 0x5B4 JUMP JUMPDEST SWAP3 SWAP2 POP POP JUMP JUMPDEST PUSH1 0x0 DUP1 PUSH1 0x20 DUP4 DUP6 SUB SLT ISZERO PUSH2 0x44C JUMPI PUSH1 0x0 DUP1 REVERT JUMPDEST PUSH1 0x0 DUP4 ADD CALLDATALOAD PUSH8 0xFFFFFFFFFFFFFFFF DUP2 GT ISZERO PUSH2 0x466 JUMPI PUSH1 0x0 DUP1 REVERT JUMPDEST PUSH2 0x472 DUP6 DUP3 DUP7 ADD PUSH2 0x3B0 JUMP JUMPDEST SWAP3 POP SWAP3 POP POP SWAP3 POP SWAP3 SWAP1 POP JUMP JUMPDEST PUSH1 0x0 PUSH1 0x20 DUP3 DUP5 SUB SLT ISZERO PUSH2 0x490 JUMPI PUSH1 0x0 DUP1 REVERT JUMPDEST PUSH1 0x0 DUP3 ADD CALLDATALOAD PUSH8 0xFFFFFFFFFFFFFFFF DUP2 GT ISZERO PUSH2 0x4AA JUMPI PUSH1 0x0 DUP1 REVERT JUMPDEST PUSH2 0x4B6 DUP5 DUP3 DUP6 ADD PUSH2 0x3FA JUMP JUMPDEST SWAP2 POP POP SWAP3 SWAP2 POP POP JUMP JUMPDEST PUSH1 0x0 PUSH1 0x20 DUP3 DUP5 SUB SLT ISZERO PUSH2 0x4D1 JUMPI PUSH1 0x0 DUP1 REVERT JUMPDEST PUSH1 0x0 PUSH2 0x4DF DUP5 DUP3 DUP6 ADD PUSH2 0x424 JUMP JUMPDEST SWAP2 POP POP SWAP3 SWAP2 POP POP JUMP JUMPDEST PUSH1 0x0 PUSH2 0x4F2 PUSH2 0x503 JUMP JUMPDEST SWAP1 POP PUSH2 0x4FE DUP3 DUP3 PUSH2 0x543 JUMP JUMPDEST SWAP2 SWAP1 POP JUMP JUMPDEST PUSH1 0x0 PUSH1 0x40 MLOAD SWAP1 POP SWAP1 JUMP JUMPDEST PUSH1 0x0 PUSH8 0xFFFFFFFFFFFFFFFF DUP3 GT ISZERO PUSH2 0x528 JUMPI PUSH2 0x527 PUSH2 0x574 JUMP JUMPDEST JUMPDEST PUSH1 0x20 DUP3 MUL SWAP1 POP PUSH1 0x20 DUP2 ADD SWAP1 POP SWAP2 SWAP1 POP JUMP JUMPDEST PUSH1 0x0 DUP2 SWAP1 POP SWAP2 SWAP1 POP JUMP JUMPDEST PUSH2 0x54C DUP3 PUSH2 0x5A3 JUMP JUMPDEST DUP2 ADD DUP2 DUP2 LT PUSH8 0xFFFFFFFFFFFFFFFF DUP3 GT OR ISZERO PUSH2 0x56B JUMPI PUSH2 0x56A PUSH2 0x574 JUMP JUMPDEST JUMPDEST DUP1 PUSH1 0x40 MSTORE POP POP POP JUMP JUMPDEST PUSH32 0x4E487B7100000000000000000000000000000000000000000000000000000000 PUSH1 0x0 MSTORE PUSH1 0x41 PUSH1 0x4 MSTORE PUSH1 0x24 PUSH1 0x0 REVERT JUMPDEST PUSH1 0x0 PUSH1 0x1F NOT PUSH1 0x1F DUP4 ADD AND SWAP1 POP SWAP2 SWAP1 POP JUMP JUMPDEST PUSH2 0x5BD DUP2 PUSH2 0x539 JUMP JUMPDEST DUP2 EQ PUSH2 0x5C8 JUMPI PUSH1 0x0 DUP1 REVERT JUMPDEST POP JUMP INVALID LOG2 PUSH5 0x6970667358 0x22 SLT KECCAK256 0xC6 ISZERO 0xF DUP2 0xD4 0xB5 SWAP9 ADD PUSH15 0xAD54BC98D9974BBC94AFE4BA425835 0xF8 0xFB 0xA9 MSTORE GT 0xA6 0xE7 0xCD PUSH5 0x736F6C6343 STOP ADDMOD SUB STOP CALLER "
				},
				"gasEstimates": {
					"creation": {
						"codeDepositCost": "307400",
						"executionCost": "infinite",
						"totalCost": "infinite"
					},
					"external": {
						"add(uint256)": "41307",
						"deleteItem()": "26971",
						"memoryArray()": "infinite",
						"parameterArray(uint256[])": "540",
						"parameterArrayMemory(uint256[])": "infinite",
						"setValue(uint256)": "20442"
					}
				},
				"methodIdentifiers": {
					"add(uint256)": "1003e2d2",
					"deleteItem()": "8b532f39",
					"memoryArray()": "500e1355",
					"parameterArray(uint256[])": "f4d25dfb",
					"parameterArrayMemory(uint256[])": "f4e2eece",
					"setValue(uint256)": "55241077"
				}
			},
			"storageLayout": {
				"storage": [
					{
						"astId": 3,
						"contract": "contracts/8_array1.sol:Array",
						"label": "a",
						"offset": 0,
						"slot": "0",
						"type": "t_uint256"
					},
					{
						"astId": 11,
						"contract": "contracts/8_array1.sol:Array",
						"label": "myArray",
						"offset": 0,
						"slot": "1",
						"type": "t_array(t_uint256)dyn_storage"
					},
					{
						"astId": 20,
						"contract": "contracts/8_array1.sol:Array",
						"label": "myFixedArray",
						"offset": 0,
						"slot": "2",
						"type": "t_array(t_uint256)4_storage"
					}
				],
				"types": {
					"t_array(t_uint256)4_storage": {
						"base": "t_uint256",
						"encoding": "inplace",
						"label": "uint256[4]",
						"numberOfBytes": "128"
					},
					"t_array(t_uint256)dyn_storage": {
						"base": "t_uint256",
						"encoding": "dynamic_array",
						"label": "uint256[]",
						"numberOfBytes": "32"
					},
					"t_uint256": {
						"encoding": "inplace",
						"label": "uint256",
						"numberOfBytes": "32"
					}
				}
			},
			"userdoc": {
				"kind": "user",
				"methods": {},
				"version": 1
			}
		}
	}
}