{
	"contracts/function.sol": {
		"Function": {
			"abi": [
				{
					"inputs": [
						{
							"internalType": "uint256",
							"name": "_a",
							"type": "uint256"
						}
					],
					"stateMutability": "nonpayable",
					"type": "constructor"
				},
				{
					"inputs": [],
					"name": "b",
					"outputs": [
						{
							"internalType": "uint256",
							"name": "",
							"type": "uint256"
						}
					],
					"stateMutability": "view",
					"type": "function"
				},
				{
					"inputs": [],
					"name": "getEnabled",
					"outputs": [
						{
							"internalType": "bool",
							"name": "",
							"type": "bool"
						}
					],
					"stateMutability": "view",
					"type": "function"
				},
				{
					"inputs": [],
					"name": "getValue",
					"outputs": [
						{
							"internalType": "uint256",
							"name": "",
							"type": "uint256"
						}
					],
					"stateMutability": "view",
					"type": "function"
				},
				{
					"inputs": [
						{
							"internalType": "uint256",
							"name": "_value",
							"type": "uint256"
						}
					],
					"name": "setValue",
					"outputs": [],
					"stateMutability": "nonpayable",
					"type": "function"
				}
			],
			"devdoc": {
				"kind": "dev",
				"methods": {},
				"version": 1
			},
			"evm": {
				"assembly": "    /* \"contracts/function.sol\":57:931  contract Function {... */\n  mstore(0x40, 0x80)\n    /* \"contracts/function.sol\":270:314  constructor(uint _a) {... */\n  callvalue\n  dup1\n  iszero\n  tag_1\n  jumpi\n  0x00\n  dup1\n  revert\ntag_1:\n  pop\n  mload(0x40)\n  sub(codesize, bytecodeSize)\n  dup1\n  bytecodeSize\n  dup4\n  codecopy\n  dup2\n  dup2\n  add\n  0x40\n  mstore\n  dup2\n  add\n  swap1\n  tag_2\n  swap2\n  swap1\n  tag_3\n  jump\t// in\ntag_2:\n    /* \"contracts/function.sol\":305:307  _a */\n  dup1\n    /* \"contracts/function.sol\":301:302  a */\n  0x01\n    /* \"contracts/function.sol\":301:307  a = _a */\n  dup2\n  swap1\n  sstore\n  pop\n    /* \"contracts/function.sol\":270:314  constructor(uint _a) {... */\n  pop\n    /* \"contracts/function.sol\":57:931  contract Function {... */\n  jump(tag_6)\n    /* \"#utility.yul\":7:150   */\ntag_8:\n  0x00\n    /* \"#utility.yul\":95:101   */\n  dup2\n    /* \"#utility.yul\":89:102   */\n  mload\n    /* \"#utility.yul\":80:102   */\n  swap1\n  pop\n    /* \"#utility.yul\":111:144   */\n  tag_10\n    /* \"#utility.yul\":138:143   */\n  dup2\n    /* \"#utility.yul\":111:144   */\n  tag_11\n  jump\t// in\ntag_10:\n    /* \"#utility.yul\":70:150   */\n  swap3\n  swap2\n  pop\n  pop\n  jump\t// out\n    /* \"#utility.yul\":156:440   */\ntag_3:\n  0x00\n    /* \"#utility.yul\":275:277   */\n  0x20\n    /* \"#utility.yul\":263:272   */\n  dup3\n    /* \"#utility.yul\":254:261   */\n  dup5\n    /* \"#utility.yul\":250:273   */\n  sub\n    /* \"#utility.yul\":246:278   */\n  slt\n    /* \"#utility.yul\":243:245   */\n  iszero\n  tag_13\n  jumpi\n    /* \"#utility.yul\":291:292   */\n  0x00\n    /* \"#utility.yul\":288:289   */\n  dup1\n    /* \"#utility.yul\":281:293   */\n  revert\n    /* \"#utility.yul\":243:245   */\ntag_13:\n    /* \"#utility.yul\":334:335   */\n  0x00\n    /* \"#utility.yul\":359:423   */\n  tag_14\n    /* \"#utility.yul\":415:422   */\n  dup5\n    /* \"#utility.yul\":406:412   */\n  dup3\n    /* \"#utility.yul\":395:404   */\n  dup6\n    /* \"#utility.yul\":391:413   */\n  add\n    /* \"#utility.yul\":359:423   */\n  tag_8\n  jump\t// in\ntag_14:\n    /* \"#utility.yul\":349:423   */\n  swap2\n  pop\n    /* \"#utility.yul\":305:433   */\n  pop\n    /* \"#utility.yul\":233:440   */\n  swap3\n  swap2\n  pop\n  pop\n  jump\t// out\n    /* \"#utility.yul\":446:523   */\ntag_15:\n  0x00\n    /* \"#utility.yul\":512:517   */\n  dup2\n    /* \"#utility.yul\":501:517   */\n  swap1\n  pop\n    /* \"#utility.yul\":491:523   */\n  swap2\n  swap1\n  pop\n  jump\t// out\n    /* \"#utility.yul\":529:651   */\ntag_11:\n    /* \"#utility.yul\":602:626   */\n  tag_18\n    /* \"#utility.yul\":620:625   */\n  dup2\n    /* \"#utility.yul\":602:626   */\n  tag_15\n  jump\t// in\ntag_18:\n    /* \"#utility.yul\":595:600   */\n  dup2\n    /* \"#utility.yul\":592:627   */\n  eq\n    /* \"#utility.yul\":582:584   */\n  tag_19\n  jumpi\n    /* \"#utility.yul\":641:642   */\n  0x00\n    /* \"#utility.yul\":638:639   */\n  dup1\n    /* \"#utility.yul\":631:643   */\n  revert\n    /* \"#utility.yul\":582:584   */\ntag_19:\n    /* \"#utility.yul\":572:651   */\n  pop\n  jump\t// out\n    /* \"contracts/function.sol\":57:931  contract Function {... */\ntag_6:\n  dataSize(sub_0)\n  dup1\n  dataOffset(sub_0)\n  0x00\n  codecopy\n  0x00\n  return\nstop\n\nsub_0: assembly {\n        /* \"contracts/function.sol\":57:931  contract Function {... */\n      mstore(0x40, 0x80)\n      callvalue\n      dup1\n      iszero\n      tag_1\n      jumpi\n      0x00\n      dup1\n      revert\n    tag_1:\n      pop\n      jumpi(tag_2, lt(calldatasize, 0x04))\n      shr(0xe0, calldataload(0x00))\n      dup1\n      0x18de0afd\n      eq\n      tag_3\n      jumpi\n      dup1\n      0x20965255\n      eq\n      tag_4\n      jumpi\n      dup1\n      0x4df7e3d0\n      eq\n      tag_5\n      jumpi\n      dup1\n      0x55241077\n      eq\n      tag_6\n      jumpi\n    tag_2:\n      0x00\n      dup1\n      revert\n        /* \"contracts/function.sol\":774:856  function getEnabled() public view returns (bool) {... */\n    tag_3:\n      tag_7\n      tag_8\n      jump\t// in\n    tag_7:\n      mload(0x40)\n      tag_9\n      swap2\n      swap1\n      tag_10\n      jump\t// in\n    tag_9:\n      mload(0x40)\n      dup1\n      swap2\n      sub\n      swap1\n      return\n        /* \"contracts/function.sol\":666:740  function getValue() external view returns (uint) {... */\n    tag_4:\n      tag_11\n      tag_12\n      jump\t// in\n    tag_11:\n      mload(0x40)\n      tag_13\n      swap2\n      swap1\n      tag_14\n      jump\t// in\n    tag_13:\n      mload(0x40)\n      dup1\n      swap2\n      sub\n      swap1\n      return\n        /* \"contracts/function.sol\":213:226  uint public b */\n    tag_5:\n      tag_15\n      tag_16\n      jump\t// in\n    tag_15:\n      mload(0x40)\n      tag_17\n      swap2\n      swap1\n      tag_14\n      jump\t// in\n    tag_17:\n      mload(0x40)\n      dup1\n      swap2\n      sub\n      swap1\n      return\n        /* \"contracts/function.sol\":862:929  function setValue(uint _value) external {... */\n    tag_6:\n      tag_18\n      0x04\n      dup1\n      calldatasize\n      sub\n      dup2\n      add\n      swap1\n      tag_19\n      swap2\n      swap1\n      tag_20\n      jump\t// in\n    tag_19:\n      tag_21\n      jump\t// in\n    tag_18:\n      stop\n        /* \"contracts/function.sol\":774:856  function getEnabled() public view returns (bool) {... */\n    tag_8:\n        /* \"contracts/function.sol\":817:821  bool */\n      0x00\n        /* \"contracts/function.sol\":840:849  isEnabled */\n      dup1\n      0x00\n      swap1\n      sload\n      swap1\n      0x0100\n      exp\n      swap1\n      div\n      0xff\n      and\n        /* \"contracts/function.sol\":833:849  return isEnabled */\n      swap1\n      pop\n        /* \"contracts/function.sol\":774:856  function getEnabled() public view returns (bool) {... */\n      swap1\n      jump\t// out\n        /* \"contracts/function.sol\":666:740  function getValue() external view returns (uint) {... */\n    tag_12:\n        /* \"contracts/function.sol\":709:713  uint */\n      0x00\n        /* \"contracts/function.sol\":732:733  a */\n      sload(0x01)\n        /* \"contracts/function.sol\":725:733  return a */\n      swap1\n      pop\n        /* \"contracts/function.sol\":666:740  function getValue() external view returns (uint) {... */\n      swap1\n      jump\t// out\n        /* \"contracts/function.sol\":213:226  uint public b */\n    tag_16:\n      sload(0x04)\n      dup2\n      jump\t// out\n        /* \"contracts/function.sol\":862:929  function setValue(uint _value) external {... */\n    tag_21:\n        /* \"contracts/function.sol\":916:922  _value */\n      dup1\n        /* \"contracts/function.sol\":912:913  a */\n      0x01\n        /* \"contracts/function.sol\":912:922  a = _value */\n      dup2\n      swap1\n      sstore\n      pop\n        /* \"contracts/function.sol\":862:929  function setValue(uint _value) external {... */\n      pop\n      jump\t// out\n        /* \"#utility.yul\":7:146   */\n    tag_26:\n      0x00\n        /* \"#utility.yul\":91:97   */\n      dup2\n        /* \"#utility.yul\":78:98   */\n      calldataload\n        /* \"#utility.yul\":69:98   */\n      swap1\n      pop\n        /* \"#utility.yul\":107:140   */\n      tag_28\n        /* \"#utility.yul\":134:139   */\n      dup2\n        /* \"#utility.yul\":107:140   */\n      tag_29\n      jump\t// in\n    tag_28:\n        /* \"#utility.yul\":59:146   */\n      swap3\n      swap2\n      pop\n      pop\n      jump\t// out\n        /* \"#utility.yul\":152:414   */\n    tag_20:\n      0x00\n        /* \"#utility.yul\":260:262   */\n      0x20\n        /* \"#utility.yul\":248:257   */\n      dup3\n        /* \"#utility.yul\":239:246   */\n      dup5\n        /* \"#utility.yul\":235:258   */\n      sub\n        /* \"#utility.yul\":231:263   */\n      slt\n        /* \"#utility.yul\":228:230   */\n      iszero\n      tag_31\n      jumpi\n        /* \"#utility.yul\":276:277   */\n      0x00\n        /* \"#utility.yul\":273:274   */\n      dup1\n        /* \"#utility.yul\":266:278   */\n      revert\n        /* \"#utility.yul\":228:230   */\n    tag_31:\n        /* \"#utility.yul\":319:320   */\n      0x00\n        /* \"#utility.yul\":344:397   */\n      tag_32\n        /* \"#utility.yul\":389:396   */\n      dup5\n        /* \"#utility.yul\":380:386   */\n      dup3\n        /* \"#utility.yul\":369:378   */\n      dup6\n        /* \"#utility.yul\":365:387   */\n      add\n        /* \"#utility.yul\":344:397   */\n      tag_26\n      jump\t// in\n    tag_32:\n        /* \"#utility.yul\":334:397   */\n      swap2\n      pop\n        /* \"#utility.yul\":290:407   */\n      pop\n        /* \"#utility.yul\":218:414   */\n      swap3\n      swap2\n      pop\n      pop\n      jump\t// out\n        /* \"#utility.yul\":420:529   */\n    tag_33:\n        /* \"#utility.yul\":501:522   */\n      tag_35\n        /* \"#utility.yul\":516:521   */\n      dup2\n        /* \"#utility.yul\":501:522   */\n      tag_36\n      jump\t// in\n    tag_35:\n        /* \"#utility.yul\":496:499   */\n      dup3\n        /* \"#utility.yul\":489:523   */\n      mstore\n        /* \"#utility.yul\":479:529   */\n      pop\n      pop\n      jump\t// out\n        /* \"#utility.yul\":535:653   */\n    tag_37:\n        /* \"#utility.yul\":622:646   */\n      tag_39\n        /* \"#utility.yul\":640:645   */\n      dup2\n        /* \"#utility.yul\":622:646   */\n      tag_40\n      jump\t// in\n    tag_39:\n        /* \"#utility.yul\":617:620   */\n      dup3\n        /* \"#utility.yul\":610:647   */\n      mstore\n        /* \"#utility.yul\":600:653   */\n      pop\n      pop\n      jump\t// out\n        /* \"#utility.yul\":659:869   */\n    tag_10:\n      0x00\n        /* \"#utility.yul\":784:786   */\n      0x20\n        /* \"#utility.yul\":773:782   */\n      dup3\n        /* \"#utility.yul\":769:787   */\n      add\n        /* \"#utility.yul\":761:787   */\n      swap1\n      pop\n        /* \"#utility.yul\":797:862   */\n      tag_42\n        /* \"#utility.yul\":859:860   */\n      0x00\n        /* \"#utility.yul\":848:857   */\n      dup4\n        /* \"#utility.yul\":844:861   */\n      add\n        /* \"#utility.yul\":835:841   */\n      dup5\n        /* \"#utility.yul\":797:862   */\n      tag_33\n      jump\t// in\n    tag_42:\n        /* \"#utility.yul\":751:869   */\n      swap3\n      swap2\n      pop\n      pop\n      jump\t// out\n        /* \"#utility.yul\":875:1097   */\n    tag_14:\n      0x00\n        /* \"#utility.yul\":1006:1008   */\n      0x20\n        /* \"#utility.yul\":995:1004   */\n      dup3\n        /* \"#utility.yul\":991:1009   */\n      add\n        /* \"#utility.yul\":983:1009   */\n      swap1\n      pop\n        /* \"#utility.yul\":1019:1090   */\n      tag_44\n        /* \"#utility.yul\":1087:1088   */\n      0x00\n        /* \"#utility.yul\":1076:1085   */\n      dup4\n        /* \"#utility.yul\":1072:1089   */\n      add\n        /* \"#utility.yul\":1063:1069   */\n      dup5\n        /* \"#utility.yul\":1019:1090   */\n      tag_37\n      jump\t// in\n    tag_44:\n        /* \"#utility.yul\":973:1097   */\n      swap3\n      swap2\n      pop\n      pop\n      jump\t// out\n        /* \"#utility.yul\":1103:1193   */\n    tag_36:\n      0x00\n        /* \"#utility.yul\":1180:1185   */\n      dup2\n        /* \"#utility.yul\":1173:1186   */\n      iszero\n        /* \"#utility.yul\":1166:1187   */\n      iszero\n        /* \"#utility.yul\":1155:1187   */\n      swap1\n      pop\n        /* \"#utility.yul\":1145:1193   */\n      swap2\n      swap1\n      pop\n      jump\t// out\n        /* \"#utility.yul\":1199:1276   */\n    tag_40:\n      0x00\n        /* \"#utility.yul\":1265:1270   */\n      dup2\n        /* \"#utility.yul\":1254:1270   */\n      swap1\n      pop\n        /* \"#utility.yul\":1244:1276   */\n      swap2\n      swap1\n      pop\n      jump\t// out\n        /* \"#utility.yul\":1282:1404   */\n    tag_29:\n        /* \"#utility.yul\":1355:1379   */\n      tag_48\n        /* \"#utility.yul\":1373:1378   */\n      dup2\n        /* \"#utility.yul\":1355:1379   */\n      tag_40\n      jump\t// in\n    tag_48:\n        /* \"#utility.yul\":1348:1353   */\n      dup2\n        /* \"#utility.yul\":1345:1380   */\n      eq\n        /* \"#utility.yul\":1335:1337   */\n      tag_49\n      jumpi\n        /* \"#utility.yul\":1394:1395   */\n      0x00\n        /* \"#utility.yul\":1391:1392   */\n      dup1\n        /* \"#utility.yul\":1384:1396   */\n      revert\n        /* \"#utility.yul\":1335:1337   */\n    tag_49:\n        /* \"#utility.yul\":1325:1404   */\n      pop\n      jump\t// out\n\n    auxdata: 0xa2646970667358221220e6674c9090ea62bcea02f978ffc0e4ff5e748b295049776deba3e8f8c642ebdb64736f6c63430008030033\n}\n",
				"bytecode": {
					"linkReferences": {},
					"object": "608060405234801561001057600080fd5b5060405161029938038061029983398181016040528101906100329190610054565b806001819055505061009e565b60008151905061004e81610087565b92915050565b60006020828403121561006657600080fd5b60006100748482850161003f565b91505092915050565b6000819050919050565b6100908161007d565b811461009b57600080fd5b50565b6101ec806100ad6000396000f3fe608060405234801561001057600080fd5b506004361061004c5760003560e01c806318de0afd14610051578063209652551461006f5780634df7e3d01461008d57806355241077146100ab575b600080fd5b6100596100c7565b6040516100669190610153565b60405180910390f35b6100776100dd565b604051610084919061016e565b60405180910390f35b6100956100e7565b6040516100a2919061016e565b60405180910390f35b6100c560048036038101906100c0919061010c565b6100ed565b005b60008060009054906101000a900460ff16905090565b6000600154905090565b60045481565b8060018190555050565b6000813590506101068161019f565b92915050565b60006020828403121561011e57600080fd5b600061012c848285016100f7565b91505092915050565b61013e81610189565b82525050565b61014d81610195565b82525050565b60006020820190506101686000830184610135565b92915050565b60006020820190506101836000830184610144565b92915050565b60008115159050919050565b6000819050919050565b6101a881610195565b81146101b357600080fd5b5056fea2646970667358221220e6674c9090ea62bcea02f978ffc0e4ff5e748b295049776deba3e8f8c642ebdb64736f6c63430008030033",
					"opcodes": "PUSH1 0x80 PUSH1 0x40 MSTORE CALLVALUE DUP1 ISZERO PUSH2 0x10 JUMPI PUSH1 0x0 DUP1 REVERT JUMPDEST POP PUSH1 0x40 MLOAD PUSH2 0x299 CODESIZE SUB DUP1 PUSH2 0x299 DUP4 CODECOPY DUP2 DUP2 ADD PUSH1 0x40 MSTORE DUP2 ADD SWAP1 PUSH2 0x32 SWAP2 SWAP1 PUSH2 0x54 JUMP JUMPDEST DUP1 PUSH1 0x1 DUP2 SWAP1 SSTORE POP POP PUSH2 0x9E JUMP JUMPDEST PUSH1 0x0 DUP2 MLOAD SWAP1 POP PUSH2 0x4E DUP2 PUSH2 0x87 JUMP JUMPDEST SWAP3 SWAP2 POP POP JUMP JUMPDEST PUSH1 0x0 PUSH1 0x20 DUP3 DUP5 SUB SLT ISZERO PUSH2 0x66 JUMPI PUSH1 0x0 DUP1 REVERT JUMPDEST PUSH1 0x0 PUSH2 0x74 DUP5 DUP3 DUP6 ADD PUSH2 0x3F JUMP JUMPDEST SWAP2 POP POP SWAP3 SWAP2 POP POP JUMP JUMPDEST PUSH1 0x0 DUP2 SWAP1 POP SWAP2 SWAP1 POP JUMP JUMPDEST PUSH2 0x90 DUP2 PUSH2 0x7D JUMP JUMPDEST DUP2 EQ PUSH2 0x9B JUMPI PUSH1 0x0 DUP1 REVERT JUMPDEST POP JUMP JUMPDEST PUSH2 0x1EC DUP1 PUSH2 0xAD PUSH1 0x0 CODECOPY PUSH1 0x0 RETURN INVALID PUSH1 0x80 PUSH1 0x40 MSTORE CALLVALUE DUP1 ISZERO PUSH2 0x10 JUMPI PUSH1 0x0 DUP1 REVERT JUMPDEST POP PUSH1 0x4 CALLDATASIZE LT PUSH2 0x4C JUMPI PUSH1 0x0 CALLDATALOAD PUSH1 0xE0 SHR DUP1 PUSH4 0x18DE0AFD EQ PUSH2 0x51 JUMPI DUP1 PUSH4 0x20965255 EQ PUSH2 0x6F JUMPI DUP1 PUSH4 0x4DF7E3D0 EQ PUSH2 0x8D JUMPI DUP1 PUSH4 0x55241077 EQ PUSH2 0xAB JUMPI JUMPDEST PUSH1 0x0 DUP1 REVERT JUMPDEST PUSH2 0x59 PUSH2 0xC7 JUMP JUMPDEST PUSH1 0x40 MLOAD PUSH2 0x66 SWAP2 SWAP1 PUSH2 0x153 JUMP JUMPDEST PUSH1 0x40 MLOAD DUP1 SWAP2 SUB SWAP1 RETURN JUMPDEST PUSH2 0x77 PUSH2 0xDD JUMP JUMPDEST PUSH1 0x40 MLOAD PUSH2 0x84 SWAP2 SWAP1 PUSH2 0x16E JUMP JUMPDEST PUSH1 0x40 MLOAD DUP1 SWAP2 SUB SWAP1 RETURN JUMPDEST PUSH2 0x95 PUSH2 0xE7 JUMP JUMPDEST PUSH1 0x40 MLOAD PUSH2 0xA2 SWAP2 SWAP1 PUSH2 0x16E JUMP JUMPDEST PUSH1 0x40 MLOAD DUP1 SWAP2 SUB SWAP1 RETURN JUMPDEST PUSH2 0xC5 PUSH1 0x4 DUP1 CALLDATASIZE SUB DUP2 ADD SWAP1 PUSH2 0xC0 SWAP2 SWAP1 PUSH2 0x10C JUMP JUMPDEST PUSH2 0xED JUMP JUMPDEST STOP JUMPDEST PUSH1 0x0 DUP1 PUSH1 0x0 SWAP1 SLOAD SWAP1 PUSH2 0x100 EXP SWAP1 DIV PUSH1 0xFF AND SWAP1 POP SWAP1 JUMP JUMPDEST PUSH1 0x0 PUSH1 0x1 SLOAD SWAP1 POP SWAP1 JUMP JUMPDEST PUSH1 0x4 SLOAD DUP2 JUMP JUMPDEST DUP1 PUSH1 0x1 DUP2 SWAP1 SSTORE POP POP JUMP JUMPDEST PUSH1 0x0 DUP2 CALLDATALOAD SWAP1 POP PUSH2 0x106 DUP2 PUSH2 0x19F JUMP JUMPDEST SWAP3 SWAP2 POP POP JUMP JUMPDEST PUSH1 0x0 PUSH1 0x20 DUP3 DUP5 SUB SLT ISZERO PUSH2 0x11E JUMPI PUSH1 0x0 DUP1 REVERT JUMPDEST PUSH1 0x0 PUSH2 0x12C DUP5 DUP3 DUP6 ADD PUSH2 0xF7 JUMP JUMPDEST SWAP2 POP POP SWAP3 SWAP2 POP POP JUMP JUMPDEST PUSH2 0x13E DUP2 PUSH2 0x189 JUMP JUMPDEST DUP3 MSTORE POP POP JUMP JUMPDEST PUSH2 0x14D DUP2 PUSH2 0x195 JUMP JUMPDEST DUP3 MSTORE POP POP JUMP JUMPDEST PUSH1 0x0 PUSH1 0x20 DUP3 ADD SWAP1 POP PUSH2 0x168 PUSH1 0x0 DUP4 ADD DUP5 PUSH2 0x135 JUMP JUMPDEST SWAP3 SWAP2 POP POP JUMP JUMPDEST PUSH1 0x0 PUSH1 0x20 DUP3 ADD SWAP1 POP PUSH2 0x183 PUSH1 0x0 DUP4 ADD DUP5 PUSH2 0x144 JUMP JUMPDEST SWAP3 SWAP2 POP POP JUMP JUMPDEST PUSH1 0x0 DUP2 ISZERO ISZERO SWAP1 POP SWAP2 SWAP1 POP JUMP JUMPDEST PUSH1 0x0 DUP2 SWAP1 POP SWAP2 SWAP1 POP JUMP JUMPDEST PUSH2 0x1A8 DUP2 PUSH2 0x195 JUMP JUMPDEST DUP2 EQ PUSH2 0x1B3 JUMPI PUSH1 0x0 DUP1 REVERT JUMPDEST POP JUMP INVALID LOG2 PUSH5 0x6970667358 0x22 SLT KECCAK256 0xE6 PUSH8 0x4C9090EA62BCEA02 0xF9 PUSH25 0xFFC0E4FF5E748B295049776DEBA3E8F8C642EBDB64736F6C63 NUMBER STOP ADDMOD SUB STOP CALLER "
				},
				"gasEstimates": {
					"creation": {
						"codeDepositCost": "98400",
						"executionCost": "infinite",
						"totalCost": "infinite"
					},
					"external": {
						"b()": "1151",
						"getEnabled()": "1157",
						"getValue()": "1137",
						"setValue(uint256)": "20464"
					},
					"internal": {
						"getAddress()": "infinite",
						"getData()": "infinite"
					}
				},
				"methodIdentifiers": {
					"b()": "4df7e3d0",
					"getEnabled()": "18de0afd",
					"getValue()": "20965255",
					"setValue(uint256)": "55241077"
				}
			},
			"storageLayout": {
				"storage": [
					{
						"astId": 3,
						"contract": "contracts/function.sol:Function",
						"label": "isEnabled",
						"offset": 0,
						"slot": "0",
						"type": "t_bool"
					},
					{
						"astId": 5,
						"contract": "contracts/function.sol:Function",
						"label": "a",
						"offset": 0,
						"slot": "1",
						"type": "t_uint256"
					},
					{
						"astId": 7,
						"contract": "contracts/function.sol:Function",
						"label": "sender",
						"offset": 0,
						"slot": "2",
						"type": "t_address"
					},
					{
						"astId": 9,
						"contract": "contracts/function.sol:Function",
						"label": "data",
						"offset": 0,
						"slot": "3",
						"type": "t_bytes32"
					},
					{
						"astId": 11,
						"contract": "contracts/function.sol:Function",
						"label": "b",
						"offset": 0,
						"slot": "4",
						"type": "t_uint256"
					}
				],
				"types": {
					"t_address": {
						"encoding": "inplace",
						"label": "address",
						"numberOfBytes": "20"
					},
					"t_bool": {
						"encoding": "inplace",
						"label": "bool",
						"numberOfBytes": "1"
					},
					"t_bytes32": {
						"encoding": "inplace",
						"label": "bytes32",
						"numberOfBytes": "32"
					},
					"t_uint256": {
						"encoding": "inplace",
						"label": "uint256",
						"numberOfBytes": "32"
					}
				}
			},
			"userdoc": {
				"kind": "user",
				"methods": {},
				"version": 1
			}
		}
	}
}