{
	"contracts/11_event.sol": {
		"Event": {
			"abi": [
				{
					"anonymous": false,
					"inputs": [
						{
							"indexed": false,
							"internalType": "address",
							"name": "from",
							"type": "address"
						},
						{
							"indexed": false,
							"internalType": "uint256",
							"name": "amount",
							"type": "uint256"
						}
					],
					"name": "deposit",
					"type": "event"
				},
				{
					"inputs": [
						{
							"internalType": "uint256",
							"name": "_amount",
							"type": "uint256"
						}
					],
					"name": "depositEvent",
					"outputs": [],
					"stateMutability": "nonpayable",
					"type": "function"
				}
			],
			"devdoc": {
				"kind": "dev",
				"methods": {},
				"version": 1
			},
			"evm": {
				"assembly": "    /* \"contracts/11_event.sol\":57:228  contract Event {... */\n  mstore(0x40, 0x80)\n  callvalue\n  dup1\n  iszero\n  tag_1\n  jumpi\n  0x00\n  dup1\n  revert\ntag_1:\n  pop\n  dataSize(sub_0)\n  dup1\n  dataOffset(sub_0)\n  0x00\n  codecopy\n  0x00\n  return\nstop\n\nsub_0: assembly {\n        /* \"contracts/11_event.sol\":57:228  contract Event {... */\n      mstore(0x40, 0x80)\n      callvalue\n      dup1\n      iszero\n      tag_1\n      jumpi\n      0x00\n      dup1\n      revert\n    tag_1:\n      pop\n      jumpi(tag_2, lt(calldatasize, 0x04))\n      shr(0xe0, calldataload(0x00))\n      dup1\n      0x2203571e\n      eq\n      tag_3\n      jumpi\n    tag_2:\n      0x00\n      dup1\n      revert\n        /* \"contracts/11_event.sol\":130:226  function depositEvent(uint _amount) external  {... */\n    tag_3:\n      tag_4\n      0x04\n      dup1\n      calldatasize\n      sub\n      dup2\n      add\n      swap1\n      tag_5\n      swap2\n      swap1\n      tag_6\n      jump\t// in\n    tag_5:\n      tag_7\n      jump\t// in\n    tag_4:\n      stop\n    tag_7:\n        /* \"contracts/11_event.sol\":191:219  deposit(msg.sender, _amount) */\n      0x47e7ef24b3022e382e65b1298581281f0ae273ac4f76464efcf5b06769264f2f\n        /* \"contracts/11_event.sol\":199:209  msg.sender */\n      caller\n        /* \"contracts/11_event.sol\":211:218  _amount */\n      dup3\n        /* \"contracts/11_event.sol\":191:219  deposit(msg.sender, _amount) */\n      mload(0x40)\n      tag_9\n      swap3\n      swap2\n      swap1\n      tag_10\n      jump\t// in\n    tag_9:\n      mload(0x40)\n      dup1\n      swap2\n      sub\n      swap1\n      log1\n        /* \"contracts/11_event.sol\":130:226  function depositEvent(uint _amount) external  {... */\n      pop\n      jump\t// out\n        /* \"#utility.yul\":7:146   */\n    tag_12:\n      0x00\n        /* \"#utility.yul\":91:97   */\n      dup2\n        /* \"#utility.yul\":78:98   */\n      calldataload\n        /* \"#utility.yul\":69:98   */\n      swap1\n      pop\n        /* \"#utility.yul\":107:140   */\n      tag_14\n        /* \"#utility.yul\":134:139   */\n      dup2\n        /* \"#utility.yul\":107:140   */\n      tag_15\n      jump\t// in\n    tag_14:\n        /* \"#utility.yul\":59:146   */\n      swap3\n      swap2\n      pop\n      pop\n      jump\t// out\n        /* \"#utility.yul\":152:414   */\n    tag_6:\n      0x00\n        /* \"#utility.yul\":260:262   */\n      0x20\n        /* \"#utility.yul\":248:257   */\n      dup3\n        /* \"#utility.yul\":239:246   */\n      dup5\n        /* \"#utility.yul\":235:258   */\n      sub\n        /* \"#utility.yul\":231:263   */\n      slt\n        /* \"#utility.yul\":228:230   */\n      iszero\n      tag_17\n      jumpi\n        /* \"#utility.yul\":276:277   */\n      0x00\n        /* \"#utility.yul\":273:274   */\n      dup1\n        /* \"#utility.yul\":266:278   */\n      revert\n        /* \"#utility.yul\":228:230   */\n    tag_17:\n        /* \"#utility.yul\":319:320   */\n      0x00\n        /* \"#utility.yul\":344:397   */\n      tag_18\n        /* \"#utility.yul\":389:396   */\n      dup5\n        /* \"#utility.yul\":380:386   */\n      dup3\n        /* \"#utility.yul\":369:378   */\n      dup6\n        /* \"#utility.yul\":365:387   */\n      add\n        /* \"#utility.yul\":344:397   */\n      tag_12\n      jump\t// in\n    tag_18:\n        /* \"#utility.yul\":334:397   */\n      swap2\n      pop\n        /* \"#utility.yul\":290:407   */\n      pop\n        /* \"#utility.yul\":218:414   */\n      swap3\n      swap2\n      pop\n      pop\n      jump\t// out\n        /* \"#utility.yul\":420:538   */\n    tag_19:\n        /* \"#utility.yul\":507:531   */\n      tag_21\n        /* \"#utility.yul\":525:530   */\n      dup2\n        /* \"#utility.yul\":507:531   */\n      tag_22\n      jump\t// in\n    tag_21:\n        /* \"#utility.yul\":502:505   */\n      dup3\n        /* \"#utility.yul\":495:532   */\n      mstore\n        /* \"#utility.yul\":485:538   */\n      pop\n      pop\n      jump\t// out\n        /* \"#utility.yul\":544:662   */\n    tag_23:\n        /* \"#utility.yul\":631:655   */\n      tag_25\n        /* \"#utility.yul\":649:654   */\n      dup2\n        /* \"#utility.yul\":631:655   */\n      tag_26\n      jump\t// in\n    tag_25:\n        /* \"#utility.yul\":626:629   */\n      dup3\n        /* \"#utility.yul\":619:656   */\n      mstore\n        /* \"#utility.yul\":609:662   */\n      pop\n      pop\n      jump\t// out\n        /* \"#utility.yul\":668:1000   */\n    tag_10:\n      0x00\n        /* \"#utility.yul\":827:829   */\n      0x40\n        /* \"#utility.yul\":816:825   */\n      dup3\n        /* \"#utility.yul\":812:830   */\n      add\n        /* \"#utility.yul\":804:830   */\n      swap1\n      pop\n        /* \"#utility.yul\":840:911   */\n      tag_28\n        /* \"#utility.yul\":908:909   */\n      0x00\n        /* \"#utility.yul\":897:906   */\n      dup4\n        /* \"#utility.yul\":893:910   */\n      add\n        /* \"#utility.yul\":884:890   */\n      dup6\n        /* \"#utility.yul\":840:911   */\n      tag_19\n      jump\t// in\n    tag_28:\n        /* \"#utility.yul\":921:993   */\n      tag_29\n        /* \"#utility.yul\":989:991   */\n      0x20\n        /* \"#utility.yul\":978:987   */\n      dup4\n        /* \"#utility.yul\":974:992   */\n      add\n        /* \"#utility.yul\":965:971   */\n      dup5\n        /* \"#utility.yul\":921:993   */\n      tag_23\n      jump\t// in\n    tag_29:\n        /* \"#utility.yul\":794:1000   */\n      swap4\n      swap3\n      pop\n      pop\n      pop\n      jump\t// out\n        /* \"#utility.yul\":1006:1102   */\n    tag_22:\n      0x00\n        /* \"#utility.yul\":1072:1096   */\n      tag_31\n        /* \"#utility.yul\":1090:1095   */\n      dup3\n        /* \"#utility.yul\":1072:1096   */\n      tag_32\n      jump\t// in\n    tag_31:\n        /* \"#utility.yul\":1061:1096   */\n      swap1\n      pop\n        /* \"#utility.yul\":1051:1102   */\n      swap2\n      swap1\n      pop\n      jump\t// out\n        /* \"#utility.yul\":1108:1234   */\n    tag_32:\n      0x00\n        /* \"#utility.yul\":1185:1227   */\n      0xffffffffffffffffffffffffffffffffffffffff\n        /* \"#utility.yul\":1178:1183   */\n      dup3\n        /* \"#utility.yul\":1174:1228   */\n      and\n        /* \"#utility.yul\":1163:1228   */\n      swap1\n      pop\n        /* \"#utility.yul\":1153:1234   */\n      swap2\n      swap1\n      pop\n      jump\t// out\n        /* \"#utility.yul\":1240:1317   */\n    tag_26:\n      0x00\n        /* \"#utility.yul\":1306:1311   */\n      dup2\n        /* \"#utility.yul\":1295:1311   */\n      swap1\n      pop\n        /* \"#utility.yul\":1285:1317   */\n      swap2\n      swap1\n      pop\n      jump\t// out\n        /* \"#utility.yul\":1323:1445   */\n    tag_15:\n        /* \"#utility.yul\":1396:1420   */\n      tag_36\n        /* \"#utility.yul\":1414:1419   */\n      dup2\n        /* \"#utility.yul\":1396:1420   */\n      tag_26\n      jump\t// in\n    tag_36:\n        /* \"#utility.yul\":1389:1394   */\n      dup2\n        /* \"#utility.yul\":1386:1421   */\n      eq\n        /* \"#utility.yul\":1376:1378   */\n      tag_37\n      jumpi\n        /* \"#utility.yul\":1435:1436   */\n      0x00\n        /* \"#utility.yul\":1432:1433   */\n      dup1\n        /* \"#utility.yul\":1425:1437   */\n      revert\n        /* \"#utility.yul\":1376:1378   */\n    tag_37:\n        /* \"#utility.yul\":1366:1445   */\n      pop\n      jump\t// out\n\n    auxdata: 0xa26469706673582212201947a2b26c1326942921e29c6dfb0a526c86357f2fae2432c12065d0579a117e64736f6c63430008030033\n}\n",
				"bytecode": {
					"linkReferences": {},
					"object": "608060405234801561001057600080fd5b50610196806100206000396000f3fe608060405234801561001057600080fd5b506004361061002b5760003560e01c80632203571e14610030575b600080fd5b61004a6004803603810190610045919061009d565b61004c565b005b7f47e7ef24b3022e382e65b1298581281f0ae273ac4f76464efcf5b06769264f2f338260405161007d9291906100e4565b60405180910390a150565b60008135905061009781610149565b92915050565b6000602082840312156100af57600080fd5b60006100bd84828501610088565b91505092915050565b6100cf8161010d565b82525050565b6100de8161013f565b82525050565b60006040820190506100f960008301856100c6565b61010660208301846100d5565b9392505050565b60006101188261011f565b9050919050565b600073ffffffffffffffffffffffffffffffffffffffff82169050919050565b6000819050919050565b6101528161013f565b811461015d57600080fd5b5056fea26469706673582212201947a2b26c1326942921e29c6dfb0a526c86357f2fae2432c12065d0579a117e64736f6c63430008030033",
					"opcodes": "PUSH1 0x80 PUSH1 0x40 MSTORE CALLVALUE DUP1 ISZERO PUSH2 0x10 JUMPI PUSH1 0x0 DUP1 REVERT JUMPDEST POP PUSH2 0x196 DUP1 PUSH2 0x20 PUSH1 0x0 CODECOPY PUSH1 0x0 RETURN INVALID PUSH1 0x80 PUSH1 0x40 MSTORE CALLVALUE DUP1 ISZERO PUSH2 0x10 JUMPI PUSH1 0x0 DUP1 REVERT JUMPDEST POP PUSH1 0x4 CALLDATASIZE LT PUSH2 0x2B JUMPI PUSH1 0x0 CALLDATALOAD PUSH1 0xE0 SHR DUP1 PUSH4 0x2203571E EQ PUSH2 0x30 JUMPI JUMPDEST PUSH1 0x0 DUP1 REVERT JUMPDEST PUSH2 0x4A PUSH1 0x4 DUP1 CALLDATASIZE SUB DUP2 ADD SWAP1 PUSH2 0x45 SWAP2 SWAP1 PUSH2 0x9D JUMP JUMPDEST PUSH2 0x4C JUMP JUMPDEST STOP JUMPDEST PUSH32 0x47E7EF24B3022E382E65B1298581281F0AE273AC4F76464EFCF5B06769264F2F CALLER DUP3 PUSH1 0x40 MLOAD PUSH2 0x7D SWAP3 SWAP2 SWAP1 PUSH2 0xE4 JUMP JUMPDEST PUSH1 0x40 MLOAD DUP1 SWAP2 SUB SWAP1 LOG1 POP JUMP JUMPDEST PUSH1 0x0 DUP2 CALLDATALOAD SWAP1 POP PUSH2 0x97 DUP2 PUSH2 0x149 JUMP JUMPDEST SWAP3 SWAP2 POP POP JUMP JUMPDEST PUSH1 0x0 PUSH1 0x20 DUP3 DUP5 SUB SLT ISZERO PUSH2 0xAF JUMPI PUSH1 0x0 DUP1 REVERT JUMPDEST PUSH1 0x0 PUSH2 0xBD DUP5 DUP3 DUP6 ADD PUSH2 0x88 JUMP JUMPDEST SWAP2 POP POP SWAP3 SWAP2 POP POP JUMP JUMPDEST PUSH2 0xCF DUP2 PUSH2 0x10D JUMP JUMPDEST DUP3 MSTORE POP POP JUMP JUMPDEST PUSH2 0xDE DUP2 PUSH2 0x13F JUMP JUMPDEST DUP3 MSTORE POP POP JUMP JUMPDEST PUSH1 0x0 PUSH1 0x40 DUP3 ADD SWAP1 POP PUSH2 0xF9 PUSH1 0x0 DUP4 ADD DUP6 PUSH2 0xC6 JUMP JUMPDEST PUSH2 0x106 PUSH1 0x20 DUP4 ADD DUP5 PUSH2 0xD5 JUMP JUMPDEST SWAP4 SWAP3 POP POP POP JUMP JUMPDEST PUSH1 0x0 PUSH2 0x118 DUP3 PUSH2 0x11F JUMP JUMPDEST SWAP1 POP SWAP2 SWAP1 POP JUMP JUMPDEST PUSH1 0x0 PUSH20 0xFFFFFFFFFFFFFFFFFFFFFFFFFFFFFFFFFFFFFFFF DUP3 AND SWAP1 POP SWAP2 SWAP1 POP JUMP JUMPDEST PUSH1 0x0 DUP2 SWAP1 POP SWAP2 SWAP1 POP JUMP JUMPDEST PUSH2 0x152 DUP2 PUSH2 0x13F JUMP JUMPDEST DUP2 EQ PUSH2 0x15D JUMPI PUSH1 0x0 DUP1 REVERT JUMPDEST POP JUMP INVALID LOG2 PUSH5 0x6970667358 0x22 SLT KECCAK256 NOT SELFBALANCE LOG2 0xB2 PUSH13 0x1326942921E29C6DFB0A526C86 CALLDATALOAD PUSH32 0x2FAE2432C12065D0579A117E64736F6C63430008030033000000000000000000 "
				},
				"gasEstimates": {
					"creation": {
						"codeDepositCost": "81200",
						"executionCost": "129",
						"totalCost": "81329"
					},
					"external": {
						"depositEvent(uint256)": "infinite"
					}
				},
				"methodIdentifiers": {
					"depositEvent(uint256)": "2203571e"
				}
			},
			"storageLayout": {
				"storage": [],
				"types": null
			},
			"userdoc": {
				"kind": "user",
				"methods": {},
				"version": 1
			}
		}
	}
}