{
	"contracts/a_13_debug.sol": {
		"DEBUG": {
			"abi": [
				{
					"inputs": [],
					"name": "a",
					"outputs": [
						{
							"internalType": "uint256",
							"name": "",
							"type": "uint256"
						}
					],
					"stateMutability": "view",
					"type": "function"
				},
				{
					"inputs": [],
					"name": "b",
					"outputs": [
						{
							"internalType": "uint256",
							"name": "",
							"type": "uint256"
						}
					],
					"stateMutability": "view",
					"type": "function"
				},
				{
					"inputs": [],
					"name": "bar",
					"outputs": [],
					"stateMutability": "nonpayable",
					"type": "function"
				},
				{
					"inputs": [],
					"name": "foo",
					"outputs": [],
					"stateMutability": "nonpayable",
					"type": "function"
				},
				{
					"inputs": [],
					"name": "test",
					"outputs": [],
					"stateMutability": "nonpayable",
					"type": "function"
				},
				{
					"inputs": [
						{
							"internalType": "uint256",
							"name": "_v",
							"type": "uint256"
						}
					],
					"name": "test2",
					"outputs": [],
					"stateMutability": "nonpayable",
					"type": "function"
				},
				{
					"inputs": [],
					"name": "testModifier",
					"outputs": [],
					"stateMutability": "nonpayable",
					"type": "function"
				}
			],
			"devdoc": {
				"kind": "dev",
				"methods": {},
				"version": 1
			},
			"evm": {
				"assembly": "    /* \"contracts/a_13_debug.sol\":57:896  contract DEBUG {... */\n  mstore(0x40, 0x80)\n    /* \"contracts/a_13_debug.sol\":123:125  10 */\n  0x0a\n    /* \"contracts/a_13_debug.sol\":107:125  uint public a = 10 */\n  0x00\n  sstore\n    /* \"contracts/a_13_debug.sol\":147:150  100 */\n  0x64\n    /* \"contracts/a_13_debug.sol\":131:150  uint public b = 100 */\n  0x01\n  sstore\n    /* \"contracts/a_13_debug.sol\":673:715  0xD7ACd2a9FD159E69Bb102A1ca21C9a3e3A5F771B */\n  0xd7acd2a9fd159e69bb102a1ca21c9a3e3a5f771b\n    /* \"contracts/a_13_debug.sol\":657:715  address admin = 0xD7ACd2a9FD159E69Bb102A1ca21C9a3e3A5F771B */\n  0x02\n  exp(0x0100, 0x00)\n  dup2\n  sload\n  dup2\n  0xffffffffffffffffffffffffffffffffffffffff\n  mul\n  not\n  and\n  swap1\n  dup4\n  0xffffffffffffffffffffffffffffffffffffffff\n  and\n  mul\n  or\n  swap1\n  sstore\n  pop\n    /* \"contracts/a_13_debug.sol\":57:896  contract DEBUG {... */\n  callvalue\n  dup1\n  iszero\n  tag_1\n  jumpi\n  0x00\n  dup1\n  revert\ntag_1:\n  pop\n  dataSize(sub_0)\n  dup1\n  dataOffset(sub_0)\n  0x00\n  codecopy\n  0x00\n  return\nstop\n\nsub_0: assembly {\n        /* \"contracts/a_13_debug.sol\":57:896  contract DEBUG {... */\n      mstore(0x40, 0x80)\n      callvalue\n      dup1\n      iszero\n      tag_1\n      jumpi\n      0x00\n      dup1\n      revert\n    tag_1:\n      pop\n      jumpi(tag_2, lt(calldatasize, 0x04))\n      shr(0xe0, calldataload(0x00))\n      dup1\n      0xc50c0248\n      gt\n      tag_10\n      jumpi\n      dup1\n      0xc50c0248\n      eq\n      tag_6\n      jumpi\n      dup1\n      0xcaf44683\n      eq\n      tag_7\n      jumpi\n      dup1\n      0xf8a8fd6d\n      eq\n      tag_8\n      jumpi\n      dup1\n      0xfebb0f7e\n      eq\n      tag_9\n      jumpi\n      jump(tag_2)\n    tag_10:\n      dup1\n      0x0dbe671f\n      eq\n      tag_3\n      jumpi\n      dup1\n      0x4df7e3d0\n      eq\n      tag_4\n      jumpi\n      dup1\n      0xc2985578\n      eq\n      tag_5\n      jumpi\n    tag_2:\n      0x00\n      dup1\n      revert\n        /* \"contracts/a_13_debug.sol\":107:125  uint public a = 10 */\n    tag_3:\n      tag_11\n      tag_12\n      jump\t// in\n    tag_11:\n      mload(0x40)\n      tag_13\n      swap2\n      swap1\n      tag_14\n      jump\t// in\n    tag_13:\n      mload(0x40)\n      dup1\n      swap2\n      sub\n      swap1\n      return\n        /* \"contracts/a_13_debug.sol\":131:150  uint public b = 100 */\n    tag_4:\n      tag_15\n      tag_16\n      jump\t// in\n    tag_15:\n      mload(0x40)\n      tag_17\n      swap2\n      swap1\n      tag_14\n      jump\t// in\n    tag_17:\n      mload(0x40)\n      dup1\n      swap2\n      sub\n      swap1\n      return\n        /* \"contracts/a_13_debug.sol\":161:249  function foo() public  {... */\n    tag_5:\n      tag_18\n      tag_19\n      jump\t// in\n    tag_18:\n      stop\n        /* \"contracts/a_13_debug.sol\":828:894  function testModifier() public onlyAdmin {... */\n    tag_6:\n      tag_20\n      tag_21\n      jump\t// in\n    tag_20:\n      stop\n        /* \"contracts/a_13_debug.sol\":587:651  function test2(uint _v) public checkB(_v) {... */\n    tag_7:\n      tag_22\n      0x04\n      dup1\n      calldatasize\n      sub\n      dup2\n      add\n      swap1\n      tag_23\n      swap2\n      swap1\n      tag_24\n      jump\t// in\n    tag_23:\n      tag_25\n      jump\t// in\n    tag_22:\n      stop\n        /* \"contracts/a_13_debug.sol\":524:581  function test() public checkB(10)  {... */\n    tag_8:\n      tag_26\n      tag_27\n      jump\t// in\n    tag_26:\n      stop\n        /* \"contracts/a_13_debug.sol\":456:518  function bar() public checkA checkB(9)  {... */\n    tag_9:\n      tag_28\n      tag_29\n      jump\t// in\n    tag_28:\n      stop\n        /* \"contracts/a_13_debug.sol\":107:125  uint public a = 10 */\n    tag_12:\n      sload(0x00)\n      dup2\n      jump\t// out\n        /* \"contracts/a_13_debug.sol\":131:150  uint public b = 100 */\n    tag_16:\n      sload(0x01)\n      dup2\n      jump\t// out\n        /* \"contracts/a_13_debug.sol\":161:249  function foo() public  {... */\n    tag_19:\n        /* \"contracts/a_13_debug.sol\":198:199  5 */\n      0x05\n        /* \"contracts/a_13_debug.sol\":194:195  a */\n      0x00\n        /* \"contracts/a_13_debug.sol\":194:199  a = 5 */\n      dup2\n      swap1\n      sstore\n      pop\n        /* \"contracts/a_13_debug.sol\":222:223  8 */\n      0x08\n        /* \"contracts/a_13_debug.sol\":217:218  a */\n      sload(0x00)\n        /* \"contracts/a_13_debug.sol\":217:223  a == 8 */\n      eq\n        /* \"contracts/a_13_debug.sol\":209:242  require(a == 8, \"a need to be 8\") */\n      tag_31\n      jumpi\n      mload(0x40)\n      0x08c379a000000000000000000000000000000000000000000000000000000000\n      dup2\n      mstore\n      0x04\n      add\n      tag_32\n      swap1\n      tag_33\n      jump\t// in\n    tag_32:\n      mload(0x40)\n      dup1\n      swap2\n      sub\n      swap1\n      revert\n    tag_31:\n        /* \"contracts/a_13_debug.sol\":161:249  function foo() public  {... */\n      jump\t// out\n        /* \"contracts/a_13_debug.sol\":828:894  function testModifier() public onlyAdmin {... */\n    tag_21:\n        /* \"contracts/a_13_debug.sol\":775:780  admin */\n      0x02\n      0x00\n      swap1\n      sload\n      swap1\n      0x0100\n      exp\n      swap1\n      div\n      0xffffffffffffffffffffffffffffffffffffffff\n      and\n        /* \"contracts/a_13_debug.sol\":761:780  msg.sender == admin */\n      0xffffffffffffffffffffffffffffffffffffffff\n      and\n        /* \"contracts/a_13_debug.sol\":761:771  msg.sender */\n      caller\n        /* \"contracts/a_13_debug.sol\":761:780  msg.sender == admin */\n      0xffffffffffffffffffffffffffffffffffffffff\n      and\n      eq\n        /* \"contracts/a_13_debug.sol\":753:804  require(msg.sender == admin, \"only admin can call\") */\n      tag_35\n      jumpi\n      mload(0x40)\n      0x08c379a000000000000000000000000000000000000000000000000000000000\n      dup2\n      mstore\n      0x04\n      add\n      tag_36\n      swap1\n      tag_37\n      jump\t// in\n    tag_36:\n      mload(0x40)\n      dup1\n      swap2\n      sub\n      swap1\n      revert\n    tag_35:\n        /* \"contracts/a_13_debug.sol\":883:887  1000 */\n      0x03e8\n        /* \"contracts/a_13_debug.sol\":879:880  b */\n      0x01\n        /* \"contracts/a_13_debug.sol\":879:887  b = 1000 */\n      dup2\n      swap1\n      sstore\n      pop\n        /* \"contracts/a_13_debug.sol\":828:894  function testModifier() public onlyAdmin {... */\n      jump\t// out\n        /* \"contracts/a_13_debug.sol\":587:651  function test2(uint _v) public checkB(_v) {... */\n    tag_25:\n        /* \"contracts/a_13_debug.sol\":625:627  _v */\n      dup1\n        /* \"contracts/a_13_debug.sol\":396:406  _testvalue */\n      dup1\n        /* \"contracts/a_13_debug.sol\":391:392  b */\n      sload(0x01)\n        /* \"contracts/a_13_debug.sol\":391:406  b == _testvalue */\n      eq\n        /* \"contracts/a_13_debug.sol\":383:432  require(b == _testvalue, \"b need to match value\") */\n      tag_40\n      jumpi\n      mload(0x40)\n      0x08c379a000000000000000000000000000000000000000000000000000000000\n      dup2\n      mstore\n      0x04\n      add\n      tag_41\n      swap1\n      tag_42\n      jump\t// in\n    tag_41:\n      mload(0x40)\n      dup1\n      swap2\n      sub\n      swap1\n      revert\n    tag_40:\n        /* \"contracts/a_13_debug.sol\":643:644  5 */\n      0x05\n        /* \"contracts/a_13_debug.sol\":639:640  a */\n      0x00\n        /* \"contracts/a_13_debug.sol\":639:644  a = 5 */\n      dup2\n      swap1\n      sstore\n      pop\n        /* \"contracts/a_13_debug.sol\":587:651  function test2(uint _v) public checkB(_v) {... */\n      pop\n      pop\n      jump\t// out\n        /* \"contracts/a_13_debug.sol\":524:581  function test() public checkB(10)  {... */\n    tag_27:\n        /* \"contracts/a_13_debug.sol\":554:556  10 */\n      0x0a\n        /* \"contracts/a_13_debug.sol\":396:406  _testvalue */\n      dup1\n        /* \"contracts/a_13_debug.sol\":391:392  b */\n      sload(0x01)\n        /* \"contracts/a_13_debug.sol\":391:406  b == _testvalue */\n      eq\n        /* \"contracts/a_13_debug.sol\":383:432  require(b == _testvalue, \"b need to match value\") */\n      tag_45\n      jumpi\n      mload(0x40)\n      0x08c379a000000000000000000000000000000000000000000000000000000000\n      dup2\n      mstore\n      0x04\n      add\n      tag_46\n      swap1\n      tag_42\n      jump\t// in\n    tag_46:\n      mload(0x40)\n      dup1\n      swap2\n      sub\n      swap1\n      revert\n    tag_45:\n        /* \"contracts/a_13_debug.sol\":573:574  5 */\n      0x05\n        /* \"contracts/a_13_debug.sol\":569:570  a */\n      0x00\n        /* \"contracts/a_13_debug.sol\":569:574  a = 5 */\n      dup2\n      swap1\n      sstore\n      pop\n        /* \"contracts/a_13_debug.sol\":524:581  function test() public checkB(10)  {... */\n      pop\n      jump\t// out\n        /* \"contracts/a_13_debug.sol\":456:518  function bar() public checkA checkB(9)  {... */\n    tag_29:\n        /* \"contracts/a_13_debug.sol\":296:297  8 */\n      0x08\n        /* \"contracts/a_13_debug.sol\":291:292  a */\n      sload(0x00)\n        /* \"contracts/a_13_debug.sol\":291:297  a == 8 */\n      eq\n        /* \"contracts/a_13_debug.sol\":283:316  require(a == 8, \"a need to be 8\") */\n      tag_49\n      jumpi\n      mload(0x40)\n      0x08c379a000000000000000000000000000000000000000000000000000000000\n      dup2\n      mstore\n      0x04\n      add\n      tag_50\n      swap1\n      tag_33\n      jump\t// in\n    tag_50:\n      mload(0x40)\n      dup1\n      swap2\n      sub\n      swap1\n      revert\n    tag_49:\n        /* \"contracts/a_13_debug.sol\":492:493  9 */\n      0x09\n        /* \"contracts/a_13_debug.sol\":396:406  _testvalue */\n      dup1\n        /* \"contracts/a_13_debug.sol\":391:392  b */\n      sload(0x01)\n        /* \"contracts/a_13_debug.sol\":391:406  b == _testvalue */\n      eq\n        /* \"contracts/a_13_debug.sol\":383:432  require(b == _testvalue, \"b need to match value\") */\n      tag_52\n      jumpi\n      mload(0x40)\n      0x08c379a000000000000000000000000000000000000000000000000000000000\n      dup2\n      mstore\n      0x04\n      add\n      tag_53\n      swap1\n      tag_42\n      jump\t// in\n    tag_53:\n      mload(0x40)\n      dup1\n      swap2\n      sub\n      swap1\n      revert\n    tag_52:\n        /* \"contracts/a_13_debug.sol\":510:511  5 */\n      0x05\n        /* \"contracts/a_13_debug.sol\":506:507  a */\n      0x00\n        /* \"contracts/a_13_debug.sol\":506:511  a = 5 */\n      dup2\n      swap1\n      sstore\n      pop\n        /* \"contracts/a_13_debug.sol\":326:327  _ */\n      pop\n        /* \"contracts/a_13_debug.sol\":456:518  function bar() public checkA checkB(9)  {... */\n      jump\t// out\n        /* \"#utility.yul\":7:146   */\n    tag_56:\n      0x00\n        /* \"#utility.yul\":91:97   */\n      dup2\n        /* \"#utility.yul\":78:98   */\n      calldataload\n        /* \"#utility.yul\":69:98   */\n      swap1\n      pop\n        /* \"#utility.yul\":107:140   */\n      tag_58\n        /* \"#utility.yul\":134:139   */\n      dup2\n        /* \"#utility.yul\":107:140   */\n      tag_59\n      jump\t// in\n    tag_58:\n        /* \"#utility.yul\":59:146   */\n      swap3\n      swap2\n      pop\n      pop\n      jump\t// out\n        /* \"#utility.yul\":152:414   */\n    tag_24:\n      0x00\n        /* \"#utility.yul\":260:262   */\n      0x20\n        /* \"#utility.yul\":248:257   */\n      dup3\n        /* \"#utility.yul\":239:246   */\n      dup5\n        /* \"#utility.yul\":235:258   */\n      sub\n        /* \"#utility.yul\":231:263   */\n      slt\n        /* \"#utility.yul\":228:230   */\n      iszero\n      tag_61\n      jumpi\n        /* \"#utility.yul\":276:277   */\n      0x00\n        /* \"#utility.yul\":273:274   */\n      dup1\n        /* \"#utility.yul\":266:278   */\n      revert\n        /* \"#utility.yul\":228:230   */\n    tag_61:\n        /* \"#utility.yul\":319:320   */\n      0x00\n        /* \"#utility.yul\":344:397   */\n      tag_62\n        /* \"#utility.yul\":389:396   */\n      dup5\n        /* \"#utility.yul\":380:386   */\n      dup3\n        /* \"#utility.yul\":369:378   */\n      dup6\n        /* \"#utility.yul\":365:387   */\n      add\n        /* \"#utility.yul\":344:397   */\n      tag_56\n      jump\t// in\n    tag_62:\n        /* \"#utility.yul\":334:397   */\n      swap2\n      pop\n        /* \"#utility.yul\":290:407   */\n      pop\n        /* \"#utility.yul\":218:414   */\n      swap3\n      swap2\n      pop\n      pop\n      jump\t// out\n        /* \"#utility.yul\":420:786   */\n    tag_63:\n      0x00\n        /* \"#utility.yul\":583:650   */\n      tag_65\n        /* \"#utility.yul\":647:649   */\n      0x13\n        /* \"#utility.yul\":642:645   */\n      dup4\n        /* \"#utility.yul\":583:650   */\n      tag_66\n      jump\t// in\n    tag_65:\n        /* \"#utility.yul\":576:650   */\n      swap2\n      pop\n        /* \"#utility.yul\":659:752   */\n      tag_67\n        /* \"#utility.yul\":748:751   */\n      dup3\n        /* \"#utility.yul\":659:752   */\n      tag_68\n      jump\t// in\n    tag_67:\n        /* \"#utility.yul\":777:779   */\n      0x20\n        /* \"#utility.yul\":772:775   */\n      dup3\n        /* \"#utility.yul\":768:780   */\n      add\n        /* \"#utility.yul\":761:780   */\n      swap1\n      pop\n        /* \"#utility.yul\":566:786   */\n      swap2\n      swap1\n      pop\n      jump\t// out\n        /* \"#utility.yul\":792:1158   */\n    tag_69:\n      0x00\n        /* \"#utility.yul\":955:1022   */\n      tag_71\n        /* \"#utility.yul\":1019:1021   */\n      0x0e\n        /* \"#utility.yul\":1014:1017   */\n      dup4\n        /* \"#utility.yul\":955:1022   */\n      tag_66\n      jump\t// in\n    tag_71:\n        /* \"#utility.yul\":948:1022   */\n      swap2\n      pop\n        /* \"#utility.yul\":1031:1124   */\n      tag_72\n        /* \"#utility.yul\":1120:1123   */\n      dup3\n        /* \"#utility.yul\":1031:1124   */\n      tag_73\n      jump\t// in\n    tag_72:\n        /* \"#utility.yul\":1149:1151   */\n      0x20\n        /* \"#utility.yul\":1144:1147   */\n      dup3\n        /* \"#utility.yul\":1140:1152   */\n      add\n        /* \"#utility.yul\":1133:1152   */\n      swap1\n      pop\n        /* \"#utility.yul\":938:1158   */\n      swap2\n      swap1\n      pop\n      jump\t// out\n        /* \"#utility.yul\":1164:1530   */\n    tag_74:\n      0x00\n        /* \"#utility.yul\":1327:1394   */\n      tag_76\n        /* \"#utility.yul\":1391:1393   */\n      0x15\n        /* \"#utility.yul\":1386:1389   */\n      dup4\n        /* \"#utility.yul\":1327:1394   */\n      tag_66\n      jump\t// in\n    tag_76:\n        /* \"#utility.yul\":1320:1394   */\n      swap2\n      pop\n        /* \"#utility.yul\":1403:1496   */\n      tag_77\n        /* \"#utility.yul\":1492:1495   */\n      dup3\n        /* \"#utility.yul\":1403:1496   */\n      tag_78\n      jump\t// in\n    tag_77:\n        /* \"#utility.yul\":1521:1523   */\n      0x20\n        /* \"#utility.yul\":1516:1519   */\n      dup3\n        /* \"#utility.yul\":1512:1524   */\n      add\n        /* \"#utility.yul\":1505:1524   */\n      swap1\n      pop\n        /* \"#utility.yul\":1310:1530   */\n      swap2\n      swap1\n      pop\n      jump\t// out\n        /* \"#utility.yul\":1536:1654   */\n    tag_79:\n        /* \"#utility.yul\":1623:1647   */\n      tag_81\n        /* \"#utility.yul\":1641:1646   */\n      dup2\n        /* \"#utility.yul\":1623:1647   */\n      tag_82\n      jump\t// in\n    tag_81:\n        /* \"#utility.yul\":1618:1621   */\n      dup3\n        /* \"#utility.yul\":1611:1648   */\n      mstore\n        /* \"#utility.yul\":1601:1654   */\n      pop\n      pop\n      jump\t// out\n        /* \"#utility.yul\":1660:2079   */\n    tag_37:\n      0x00\n        /* \"#utility.yul\":1864:1866   */\n      0x20\n        /* \"#utility.yul\":1853:1862   */\n      dup3\n        /* \"#utility.yul\":1849:1867   */\n      add\n        /* \"#utility.yul\":1841:1867   */\n      swap1\n      pop\n        /* \"#utility.yul\":1913:1922   */\n      dup2\n        /* \"#utility.yul\":1907:1911   */\n      dup2\n        /* \"#utility.yul\":1903:1923   */\n      sub\n        /* \"#utility.yul\":1899:1900   */\n      0x00\n        /* \"#utility.yul\":1888:1897   */\n      dup4\n        /* \"#utility.yul\":1884:1901   */\n      add\n        /* \"#utility.yul\":1877:1924   */\n      mstore\n        /* \"#utility.yul\":1941:2072   */\n      tag_84\n        /* \"#utility.yul\":2067:2071   */\n      dup2\n        /* \"#utility.yul\":1941:2072   */\n      tag_63\n      jump\t// in\n    tag_84:\n        /* \"#utility.yul\":1933:2072   */\n      swap1\n      pop\n        /* \"#utility.yul\":1831:2079   */\n      swap2\n      swap1\n      pop\n      jump\t// out\n        /* \"#utility.yul\":2085:2504   */\n    tag_33:\n      0x00\n        /* \"#utility.yul\":2289:2291   */\n      0x20\n        /* \"#utility.yul\":2278:2287   */\n      dup3\n        /* \"#utility.yul\":2274:2292   */\n      add\n        /* \"#utility.yul\":2266:2292   */\n      swap1\n      pop\n        /* \"#utility.yul\":2338:2347   */\n      dup2\n        /* \"#utility.yul\":2332:2336   */\n      dup2\n        /* \"#utility.yul\":2328:2348   */\n      sub\n        /* \"#utility.yul\":2324:2325   */\n      0x00\n        /* \"#utility.yul\":2313:2322   */\n      dup4\n        /* \"#utility.yul\":2309:2326   */\n      add\n        /* \"#utility.yul\":2302:2349   */\n      mstore\n        /* \"#utility.yul\":2366:2497   */\n      tag_86\n        /* \"#utility.yul\":2492:2496   */\n      dup2\n        /* \"#utility.yul\":2366:2497   */\n      tag_69\n      jump\t// in\n    tag_86:\n        /* \"#utility.yul\":2358:2497   */\n      swap1\n      pop\n        /* \"#utility.yul\":2256:2504   */\n      swap2\n      swap1\n      pop\n      jump\t// out\n        /* \"#utility.yul\":2510:2929   */\n    tag_42:\n      0x00\n        /* \"#utility.yul\":2714:2716   */\n      0x20\n        /* \"#utility.yul\":2703:2712   */\n      dup3\n        /* \"#utility.yul\":2699:2717   */\n      add\n        /* \"#utility.yul\":2691:2717   */\n      swap1\n      pop\n        /* \"#utility.yul\":2763:2772   */\n      dup2\n        /* \"#utility.yul\":2757:2761   */\n      dup2\n        /* \"#utility.yul\":2753:2773   */\n      sub\n        /* \"#utility.yul\":2749:2750   */\n      0x00\n        /* \"#utility.yul\":2738:2747   */\n      dup4\n        /* \"#utility.yul\":2734:2751   */\n      add\n        /* \"#utility.yul\":2727:2774   */\n      mstore\n        /* \"#utility.yul\":2791:2922   */\n      tag_88\n        /* \"#utility.yul\":2917:2921   */\n      dup2\n        /* \"#utility.yul\":2791:2922   */\n      tag_74\n      jump\t// in\n    tag_88:\n        /* \"#utility.yul\":2783:2922   */\n      swap1\n      pop\n        /* \"#utility.yul\":2681:2929   */\n      swap2\n      swap1\n      pop\n      jump\t// out\n        /* \"#utility.yul\":2935:3157   */\n    tag_14:\n      0x00\n        /* \"#utility.yul\":3066:3068   */\n      0x20\n        /* \"#utility.yul\":3055:3064   */\n      dup3\n        /* \"#utility.yul\":3051:3069   */\n      add\n        /* \"#utility.yul\":3043:3069   */\n      swap1\n      pop\n        /* \"#utility.yul\":3079:3150   */\n      tag_90\n        /* \"#utility.yul\":3147:3148   */\n      0x00\n        /* \"#utility.yul\":3136:3145   */\n      dup4\n        /* \"#utility.yul\":3132:3149   */\n      add\n        /* \"#utility.yul\":3123:3129   */\n      dup5\n        /* \"#utility.yul\":3079:3150   */\n      tag_79\n      jump\t// in\n    tag_90:\n        /* \"#utility.yul\":3033:3157   */\n      swap3\n      swap2\n      pop\n      pop\n      jump\t// out\n        /* \"#utility.yul\":3163:3332   */\n    tag_66:\n      0x00\n        /* \"#utility.yul\":3281:3287   */\n      dup3\n        /* \"#utility.yul\":3276:3279   */\n      dup3\n        /* \"#utility.yul\":3269:3288   */\n      mstore\n        /* \"#utility.yul\":3321:3325   */\n      0x20\n        /* \"#utility.yul\":3316:3319   */\n      dup3\n        /* \"#utility.yul\":3312:3326   */\n      add\n        /* \"#utility.yul\":3297:3326   */\n      swap1\n      pop\n        /* \"#utility.yul\":3259:3332   */\n      swap3\n      swap2\n      pop\n      pop\n      jump\t// out\n        /* \"#utility.yul\":3338:3415   */\n    tag_82:\n      0x00\n        /* \"#utility.yul\":3404:3409   */\n      dup2\n        /* \"#utility.yul\":3393:3409   */\n      swap1\n      pop\n        /* \"#utility.yul\":3383:3415   */\n      swap2\n      swap1\n      pop\n      jump\t// out\n        /* \"#utility.yul\":3421:3590   */\n    tag_68:\n        /* \"#utility.yul\":3561:3582   */\n      0x6f6e6c792061646d696e2063616e2063616c6c00000000000000000000000000\n        /* \"#utility.yul\":3557:3558   */\n      0x00\n        /* \"#utility.yul\":3549:3555   */\n      dup3\n        /* \"#utility.yul\":3545:3559   */\n      add\n        /* \"#utility.yul\":3538:3583   */\n      mstore\n        /* \"#utility.yul\":3527:3590   */\n      pop\n      jump\t// out\n        /* \"#utility.yul\":3596:3760   */\n    tag_73:\n        /* \"#utility.yul\":3736:3752   */\n      0x61206e65656420746f2062652038000000000000000000000000000000000000\n        /* \"#utility.yul\":3732:3733   */\n      0x00\n        /* \"#utility.yul\":3724:3730   */\n      dup3\n        /* \"#utility.yul\":3720:3734   */\n      add\n        /* \"#utility.yul\":3713:3753   */\n      mstore\n        /* \"#utility.yul\":3702:3760   */\n      pop\n      jump\t// out\n        /* \"#utility.yul\":3766:3937   */\n    tag_78:\n        /* \"#utility.yul\":3906:3929   */\n      0x62206e65656420746f206d617463682076616c75650000000000000000000000\n        /* \"#utility.yul\":3902:3903   */\n      0x00\n        /* \"#utility.yul\":3894:3900   */\n      dup3\n        /* \"#utility.yul\":3890:3904   */\n      add\n        /* \"#utility.yul\":3883:3930   */\n      mstore\n        /* \"#utility.yul\":3872:3937   */\n      pop\n      jump\t// out\n        /* \"#utility.yul\":3943:4065   */\n    tag_59:\n        /* \"#utility.yul\":4016:4040   */\n      tag_97\n        /* \"#utility.yul\":4034:4039   */\n      dup2\n        /* \"#utility.yul\":4016:4040   */\n      tag_82\n      jump\t// in\n    tag_97:\n        /* \"#utility.yul\":4009:4014   */\n      dup2\n        /* \"#utility.yul\":4006:4041   */\n      eq\n        /* \"#utility.yul\":3996:3998   */\n      tag_98\n      jumpi\n        /* \"#utility.yul\":4055:4056   */\n      0x00\n        /* \"#utility.yul\":4052:4053   */\n      dup1\n        /* \"#utility.yul\":4045:4057   */\n      revert\n        /* \"#utility.yul\":3996:3998   */\n    tag_98:\n        /* \"#utility.yul\":3986:4065   */\n      pop\n      jump\t// out\n\n    auxdata: 0xa2646970667358221220a35982abd702dc2d955641dd5a05415c47c6358d6b9949d364c9ffa64980d1c264736f6c63430008030033\n}\n",
				"bytecode": {
					"linkReferences": {},
					"object": "6080604052600a600055606460015573d7acd2a9fd159e69bb102a1ca21c9a3e3a5f771b600260006101000a81548173ffffffffffffffffffffffffffffffffffffffff021916908373ffffffffffffffffffffffffffffffffffffffff16021790555034801561006f57600080fd5b506105448061007f6000396000f3fe608060405234801561001057600080fd5b506004361061007d5760003560e01c8063c50c02481161005b578063c50c0248146100c8578063caf44683146100d2578063f8a8fd6d146100ee578063febb0f7e146100f85761007d565b80630dbe671f146100825780634df7e3d0146100a0578063c2985578146100be575b600080fd5b61008a610102565b6040516100979190610446565b60405180910390f35b6100a8610108565b6040516100b59190610446565b60405180910390f35b6100c661010e565b005b6100d061015d565b005b6100ec60048036038101906100e79190610345565b6101f8565b005b6100f6610249565b005b61010061029a565b005b60005481565b60015481565b600560008190555060086000541461015b576040517f08c379a000000000000000000000000000000000000000000000000000000000815260040161015290610406565b60405180910390fd5b565b600260009054906101000a900473ffffffffffffffffffffffffffffffffffffffff1673ffffffffffffffffffffffffffffffffffffffff163373ffffffffffffffffffffffffffffffffffffffff16146101ed576040517f08c379a00000000000000000000000000000000000000000000000000000000081526004016101e4906103e6565b60405180910390fd5b6103e8600181905550565b80806001541461023d576040517f08c379a000000000000000000000000000000000000000000000000000000000815260040161023490610426565b60405180910390fd5b60056000819055505050565b600a806001541461028f576040517f08c379a000000000000000000000000000000000000000000000000000000000815260040161028690610426565b60405180910390fd5b600560008190555050565b6008600054146102df576040517f08c379a00000000000000000000000000000000000000000000000000000000081526004016102d690610406565b60405180910390fd5b60098060015414610325576040517f08c379a000000000000000000000000000000000000000000000000000000000815260040161031c90610426565b60405180910390fd5b600560008190555050565b60008135905061033f816104f7565b92915050565b60006020828403121561035757600080fd5b600061036584828501610330565b91505092915050565b600061037b601383610461565b91506103868261047c565b602082019050919050565b600061039e600e83610461565b91506103a9826104a5565b602082019050919050565b60006103c1601583610461565b91506103cc826104ce565b602082019050919050565b6103e081610472565b82525050565b600060208201905081810360008301526103ff8161036e565b9050919050565b6000602082019050818103600083015261041f81610391565b9050919050565b6000602082019050818103600083015261043f816103b4565b9050919050565b600060208201905061045b60008301846103d7565b92915050565b600082825260208201905092915050565b6000819050919050565b7f6f6e6c792061646d696e2063616e2063616c6c00000000000000000000000000600082015250565b7f61206e65656420746f2062652038000000000000000000000000000000000000600082015250565b7f62206e65656420746f206d617463682076616c75650000000000000000000000600082015250565b61050081610472565b811461050b57600080fd5b5056fea2646970667358221220a35982abd702dc2d955641dd5a05415c47c6358d6b9949d364c9ffa64980d1c264736f6c63430008030033",
					"opcodes": "PUSH1 0x80 PUSH1 0x40 MSTORE PUSH1 0xA PUSH1 0x0 SSTORE PUSH1 0x64 PUSH1 0x1 SSTORE PUSH20 0xD7ACD2A9FD159E69BB102A1CA21C9A3E3A5F771B PUSH1 0x2 PUSH1 0x0 PUSH2 0x100 EXP DUP2 SLOAD DUP2 PUSH20 0xFFFFFFFFFFFFFFFFFFFFFFFFFFFFFFFFFFFFFFFF MUL NOT AND SWAP1 DUP4 PUSH20 0xFFFFFFFFFFFFFFFFFFFFFFFFFFFFFFFFFFFFFFFF AND MUL OR SWAP1 SSTORE POP CALLVALUE DUP1 ISZERO PUSH2 0x6F JUMPI PUSH1 0x0 DUP1 REVERT JUMPDEST POP PUSH2 0x544 DUP1 PUSH2 0x7F PUSH1 0x0 CODECOPY PUSH1 0x0 RETURN INVALID PUSH1 0x80 PUSH1 0x40 MSTORE CALLVALUE DUP1 ISZERO PUSH2 0x10 JUMPI PUSH1 0x0 DUP1 REVERT JUMPDEST POP PUSH1 0x4 CALLDATASIZE LT PUSH2 0x7D JUMPI PUSH1 0x0 CALLDATALOAD PUSH1 0xE0 SHR DUP1 PUSH4 0xC50C0248 GT PUSH2 0x5B JUMPI DUP1 PUSH4 0xC50C0248 EQ PUSH2 0xC8 JUMPI DUP1 PUSH4 0xCAF44683 EQ PUSH2 0xD2 JUMPI DUP1 PUSH4 0xF8A8FD6D EQ PUSH2 0xEE JUMPI DUP1 PUSH4 0xFEBB0F7E EQ PUSH2 0xF8 JUMPI PUSH2 0x7D JUMP JUMPDEST DUP1 PUSH4 0xDBE671F EQ PUSH2 0x82 JUMPI DUP1 PUSH4 0x4DF7E3D0 EQ PUSH2 0xA0 JUMPI DUP1 PUSH4 0xC2985578 EQ PUSH2 0xBE JUMPI JUMPDEST PUSH1 0x0 DUP1 REVERT JUMPDEST PUSH2 0x8A PUSH2 0x102 JUMP JUMPDEST PUSH1 0x40 MLOAD PUSH2 0x97 SWAP2 SWAP1 PUSH2 0x446 JUMP JUMPDEST PUSH1 0x40 MLOAD DUP1 SWAP2 SUB SWAP1 RETURN JUMPDEST PUSH2 0xA8 PUSH2 0x108 JUMP JUMPDEST PUSH1 0x40 MLOAD PUSH2 0xB5 SWAP2 SWAP1 PUSH2 0x446 JUMP JUMPDEST PUSH1 0x40 MLOAD DUP1 SWAP2 SUB SWAP1 RETURN JUMPDEST PUSH2 0xC6 PUSH2 0x10E JUMP JUMPDEST STOP JUMPDEST PUSH2 0xD0 PUSH2 0x15D JUMP JUMPDEST STOP JUMPDEST PUSH2 0xEC PUSH1 0x4 DUP1 CALLDATASIZE SUB DUP2 ADD SWAP1 PUSH2 0xE7 SWAP2 SWAP1 PUSH2 0x345 JUMP JUMPDEST PUSH2 0x1F8 JUMP JUMPDEST STOP JUMPDEST PUSH2 0xF6 PUSH2 0x249 JUMP JUMPDEST STOP JUMPDEST PUSH2 0x100 PUSH2 0x29A JUMP JUMPDEST STOP JUMPDEST PUSH1 0x0 SLOAD DUP2 JUMP JUMPDEST PUSH1 0x1 SLOAD DUP2 JUMP JUMPDEST PUSH1 0x5 PUSH1 0x0 DUP2 SWAP1 SSTORE POP PUSH1 0x8 PUSH1 0x0 SLOAD EQ PUSH2 0x15B JUMPI PUSH1 0x40 MLOAD PUSH32 0x8C379A000000000000000000000000000000000000000000000000000000000 DUP2 MSTORE PUSH1 0x4 ADD PUSH2 0x152 SWAP1 PUSH2 0x406 JUMP JUMPDEST PUSH1 0x40 MLOAD DUP1 SWAP2 SUB SWAP1 REVERT JUMPDEST JUMP JUMPDEST PUSH1 0x2 PUSH1 0x0 SWAP1 SLOAD SWAP1 PUSH2 0x100 EXP SWAP1 DIV PUSH20 0xFFFFFFFFFFFFFFFFFFFFFFFFFFFFFFFFFFFFFFFF AND PUSH20 0xFFFFFFFFFFFFFFFFFFFFFFFFFFFFFFFFFFFFFFFF AND CALLER PUSH20 0xFFFFFFFFFFFFFFFFFFFFFFFFFFFFFFFFFFFFFFFF AND EQ PUSH2 0x1ED JUMPI PUSH1 0x40 MLOAD PUSH32 0x8C379A000000000000000000000000000000000000000000000000000000000 DUP2 MSTORE PUSH1 0x4 ADD PUSH2 0x1E4 SWAP1 PUSH2 0x3E6 JUMP JUMPDEST PUSH1 0x40 MLOAD DUP1 SWAP2 SUB SWAP1 REVERT JUMPDEST PUSH2 0x3E8 PUSH1 0x1 DUP2 SWAP1 SSTORE POP JUMP JUMPDEST DUP1 DUP1 PUSH1 0x1 SLOAD EQ PUSH2 0x23D JUMPI PUSH1 0x40 MLOAD PUSH32 0x8C379A000000000000000000000000000000000000000000000000000000000 DUP2 MSTORE PUSH1 0x4 ADD PUSH2 0x234 SWAP1 PUSH2 0x426 JUMP JUMPDEST PUSH1 0x40 MLOAD DUP1 SWAP2 SUB SWAP1 REVERT JUMPDEST PUSH1 0x5 PUSH1 0x0 DUP2 SWAP1 SSTORE POP POP POP JUMP JUMPDEST PUSH1 0xA DUP1 PUSH1 0x1 SLOAD EQ PUSH2 0x28F JUMPI PUSH1 0x40 MLOAD PUSH32 0x8C379A000000000000000000000000000000000000000000000000000000000 DUP2 MSTORE PUSH1 0x4 ADD PUSH2 0x286 SWAP1 PUSH2 0x426 JUMP JUMPDEST PUSH1 0x40 MLOAD DUP1 SWAP2 SUB SWAP1 REVERT JUMPDEST PUSH1 0x5 PUSH1 0x0 DUP2 SWAP1 SSTORE POP POP JUMP JUMPDEST PUSH1 0x8 PUSH1 0x0 SLOAD EQ PUSH2 0x2DF JUMPI PUSH1 0x40 MLOAD PUSH32 0x8C379A000000000000000000000000000000000000000000000000000000000 DUP2 MSTORE PUSH1 0x4 ADD PUSH2 0x2D6 SWAP1 PUSH2 0x406 JUMP JUMPDEST PUSH1 0x40 MLOAD DUP1 SWAP2 SUB SWAP1 REVERT JUMPDEST PUSH1 0x9 DUP1 PUSH1 0x1 SLOAD EQ PUSH2 0x325 JUMPI PUSH1 0x40 MLOAD PUSH32 0x8C379A000000000000000000000000000000000000000000000000000000000 DUP2 MSTORE PUSH1 0x4 ADD PUSH2 0x31C SWAP1 PUSH2 0x426 JUMP JUMPDEST PUSH1 0x40 MLOAD DUP1 SWAP2 SUB SWAP1 REVERT JUMPDEST PUSH1 0x5 PUSH1 0x0 DUP2 SWAP1 SSTORE POP POP JUMP JUMPDEST PUSH1 0x0 DUP2 CALLDATALOAD SWAP1 POP PUSH2 0x33F DUP2 PUSH2 0x4F7 JUMP JUMPDEST SWAP3 SWAP2 POP POP JUMP JUMPDEST PUSH1 0x0 PUSH1 0x20 DUP3 DUP5 SUB SLT ISZERO PUSH2 0x357 JUMPI PUSH1 0x0 DUP1 REVERT JUMPDEST PUSH1 0x0 PUSH2 0x365 DUP5 DUP3 DUP6 ADD PUSH2 0x330 JUMP JUMPDEST SWAP2 POP POP SWAP3 SWAP2 POP POP JUMP JUMPDEST PUSH1 0x0 PUSH2 0x37B PUSH1 0x13 DUP4 PUSH2 0x461 JUMP JUMPDEST SWAP2 POP PUSH2 0x386 DUP3 PUSH2 0x47C JUMP JUMPDEST PUSH1 0x20 DUP3 ADD SWAP1 POP SWAP2 SWAP1 POP JUMP JUMPDEST PUSH1 0x0 PUSH2 0x39E PUSH1 0xE DUP4 PUSH2 0x461 JUMP JUMPDEST SWAP2 POP PUSH2 0x3A9 DUP3 PUSH2 0x4A5 JUMP JUMPDEST PUSH1 0x20 DUP3 ADD SWAP1 POP SWAP2 SWAP1 POP JUMP JUMPDEST PUSH1 0x0 PUSH2 0x3C1 PUSH1 0x15 DUP4 PUSH2 0x461 JUMP JUMPDEST SWAP2 POP PUSH2 0x3CC DUP3 PUSH2 0x4CE JUMP JUMPDEST PUSH1 0x20 DUP3 ADD SWAP1 POP SWAP2 SWAP1 POP JUMP JUMPDEST PUSH2 0x3E0 DUP2 PUSH2 0x472 JUMP JUMPDEST DUP3 MSTORE POP POP JUMP JUMPDEST PUSH1 0x0 PUSH1 0x20 DUP3 ADD SWAP1 POP DUP2 DUP2 SUB PUSH1 0x0 DUP4 ADD MSTORE PUSH2 0x3FF DUP2 PUSH2 0x36E JUMP JUMPDEST SWAP1 POP SWAP2 SWAP1 POP JUMP JUMPDEST PUSH1 0x0 PUSH1 0x20 DUP3 ADD SWAP1 POP DUP2 DUP2 SUB PUSH1 0x0 DUP4 ADD MSTORE PUSH2 0x41F DUP2 PUSH2 0x391 JUMP JUMPDEST SWAP1 POP SWAP2 SWAP1 POP JUMP JUMPDEST PUSH1 0x0 PUSH1 0x20 DUP3 ADD SWAP1 POP DUP2 DUP2 SUB PUSH1 0x0 DUP4 ADD MSTORE PUSH2 0x43F DUP2 PUSH2 0x3B4 JUMP JUMPDEST SWAP1 POP SWAP2 SWAP1 POP JUMP JUMPDEST PUSH1 0x0 PUSH1 0x20 DUP3 ADD SWAP1 POP PUSH2 0x45B PUSH1 0x0 DUP4 ADD DUP5 PUSH2 0x3D7 JUMP JUMPDEST SWAP3 SWAP2 POP POP JUMP JUMPDEST PUSH1 0x0 DUP3 DUP3 MSTORE PUSH1 0x20 DUP3 ADD SWAP1 POP SWAP3 SWAP2 POP POP JUMP JUMPDEST PUSH1 0x0 DUP2 SWAP1 POP SWAP2 SWAP1 POP JUMP JUMPDEST PUSH32 0x6F6E6C792061646D696E2063616E2063616C6C00000000000000000000000000 PUSH1 0x0 DUP3 ADD MSTORE POP JUMP JUMPDEST PUSH32 0x61206E65656420746F2062652038000000000000000000000000000000000000 PUSH1 0x0 DUP3 ADD MSTORE POP JUMP JUMPDEST PUSH32 0x62206E65656420746F206D617463682076616C75650000000000000000000000 PUSH1 0x0 DUP3 ADD MSTORE POP JUMP JUMPDEST PUSH2 0x500 DUP2 PUSH2 0x472 JUMP JUMPDEST DUP2 EQ PUSH2 0x50B JUMPI PUSH1 0x0 DUP1 REVERT JUMPDEST POP JUMP INVALID LOG2 PUSH5 0x6970667358 0x22 SLT KECCAK256 LOG3 MSIZE DUP3 0xAB 0xD7 MUL 0xDC 0x2D SWAP6 JUMP COINBASE 0xDD GAS SDIV COINBASE 0x5C SELFBALANCE 0xC6 CALLDATALOAD DUP14 PUSH12 0x9949D364C9FFA64980D1C264 PUSH20 0x6F6C634300080300330000000000000000000000 "
				},
				"gasEstimates": {
					"creation": {
						"codeDepositCost": "269600",
						"executionCost": "61191",
						"totalCost": "330791"
					},
					"external": {
						"a()": "1130",
						"b()": "1152",
						"bar()": "21875",
						"foo()": "21315",
						"test()": "21030",
						"test2(uint256)": "21270",
						"testModifier()": "21028"
					}
				},
				"methodIdentifiers": {
					"a()": "0dbe671f",
					"b()": "4df7e3d0",
					"bar()": "febb0f7e",
					"foo()": "c2985578",
					"test()": "f8a8fd6d",
					"test2(uint256)": "caf44683",
					"testModifier()": "c50c0248"
				}
			},
			"storageLayout": {
				"storage": [
					{
						"astId": 4,
						"contract": "contracts/a_13_debug.sol:DEBUG",
						"label": "a",
						"offset": 0,
						"slot": "0",
						"type": "t_uint256"
					},
					{
						"astId": 7,
						"contract": "contracts/a_13_debug.sol:DEBUG",
						"label": "b",
						"offset": 0,
						"slot": "1",
						"type": "t_uint256"
					},
					{
						"astId": 86,
						"contract": "contracts/a_13_debug.sol:DEBUG",
						"label": "admin",
						"offset": 0,
						"slot": "2",
						"type": "t_address"
					}
				],
				"types": {
					"t_address": {
						"encoding": "inplace",
						"label": "address",
						"numberOfBytes": "20"
					},
					"t_uint256": {
						"encoding": "inplace",
						"label": "uint256",
						"numberOfBytes": "32"
					}
				}
			},
			"userdoc": {
				"kind": "user",
				"methods": {},
				"version": 1
			}
		}
	}
}