{
	"contracts/10_struct.sol": {
		"Struct": {
			"abi": [
				{
					"inputs": [
						{
							"internalType": "string",
							"name": "_name",
							"type": "string"
						}
					],
					"name": "foo",
					"outputs": [],
					"stateMutability": "nonpayable",
					"type": "function"
				}
			],
			"devdoc": {
				"kind": "dev",
				"methods": {},
				"version": 1
			},
			"evm": {
				"assembly": "    /* \"contracts/10_struct.sol\":57:628  contract Struct {... */\n  mstore(0x40, 0x80)\n  callvalue\n  dup1\n  iszero\n  tag_1\n  jumpi\n  0x00\n  dup1\n  revert\ntag_1:\n  pop\n  dataSize(sub_0)\n  dup1\n  dataOffset(sub_0)\n  0x00\n  codecopy\n  0x00\n  return\nstop\n\nsub_0: assembly {\n        /* \"contracts/10_struct.sol\":57:628  contract Struct {... */\n      mstore(0x40, 0x80)\n      callvalue\n      dup1\n      iszero\n      tag_1\n      jumpi\n      0x00\n      dup1\n      revert\n    tag_1:\n      pop\n      jumpi(tag_2, lt(calldatasize, 0x04))\n      shr(0xe0, calldataload(0x00))\n      dup1\n      0xf31a6969\n      eq\n      tag_3\n      jumpi\n    tag_2:\n      0x00\n      dup1\n      revert\n        /* \"contracts/10_struct.sol\":418:626  function foo(string calldata _name) external {... */\n    tag_3:\n      tag_4\n      0x04\n      dup1\n      calldatasize\n      sub\n      dup2\n      add\n      swap1\n      tag_5\n      swap2\n      swap1\n      tag_6\n      jump\t// in\n    tag_5:\n      tag_7\n      jump\t// in\n    tag_4:\n      stop\n    tag_7:\n        /* \"contracts/10_struct.sol\":473:494  Player memory player1 */\n      0x00\n        /* \"contracts/10_struct.sol\":497:525  Player(1, msg.sender, _name) */\n      mload(0x40)\n      dup1\n      0x60\n      add\n      0x40\n      mstore\n      dup1\n        /* \"contracts/10_struct.sol\":504:505  1 */\n      0x01\n        /* \"contracts/10_struct.sol\":497:525  Player(1, msg.sender, _name) */\n      dup2\n      mstore\n      0x20\n      add\n        /* \"contracts/10_struct.sol\":507:517  msg.sender */\n      caller\n        /* \"contracts/10_struct.sol\":497:525  Player(1, msg.sender, _name) */\n      0xffffffffffffffffffffffffffffffffffffffff\n      and\n      dup2\n      mstore\n      0x20\n      add\n        /* \"contracts/10_struct.sol\":519:524  _name */\n      dup5\n      dup5\n        /* \"contracts/10_struct.sol\":497:525  Player(1, msg.sender, _name) */\n      dup1\n      dup1\n      0x1f\n      add\n      0x20\n      dup1\n      swap2\n      div\n      mul\n      0x20\n      add\n      mload(0x40)\n      swap1\n      dup2\n      add\n      0x40\n      mstore\n      dup1\n      swap4\n      swap3\n      swap2\n      swap1\n      dup2\n      dup2\n      mstore\n      0x20\n      add\n      dup4\n      dup4\n      dup1\n      dup3\n      dup5\n      calldatacopy\n      0x00\n      dup2\n      dup5\n      add\n      mstore\n      not(0x1f)\n      0x1f\n      dup3\n      add\n      and\n      swap1\n      pop\n      dup1\n      dup4\n      add\n      swap3\n      pop\n      pop\n      pop\n      pop\n      pop\n      pop\n      pop\n      dup2\n      mstore\n      pop\n        /* \"contracts/10_struct.sol\":473:525  Player memory player1 = Player(1, msg.sender, _name) */\n      swap1\n      pop\n        /* \"contracts/10_struct.sol\":535:564  player1.name = \"updated name\" */\n      mload(0x40)\n      dup1\n      0x40\n      add\n      0x40\n      mstore\n      dup1\n      0x0c\n      dup2\n      mstore\n      0x20\n      add\n      0x75706461746564206e616d650000000000000000000000000000000000000000\n      dup2\n      mstore\n      pop\n        /* \"contracts/10_struct.sol\":535:542  player1 */\n      dup2\n        /* \"contracts/10_struct.sol\":535:547  player1.name */\n      0x40\n      add\n        /* \"contracts/10_struct.sol\":535:564  player1.name = \"updated name\" */\n      dup2\n      swap1\n      mstore\n      pop\n        /* \"contracts/10_struct.sol\":587:594  player1 */\n      dup1\n        /* \"contracts/10_struct.sol\":574:581  players */\n      0x00\n        /* \"contracts/10_struct.sol\":582:583  0 */\n      dup1\n        /* \"contracts/10_struct.sol\":574:584  players[0] */\n      dup2\n      sload\n      dup2\n      lt\n      tag_9\n      jumpi\n      mstore(0x00, 0x4e487b7100000000000000000000000000000000000000000000000000000000)\n      mstore(0x04, 0x32)\n      revert(0x00, 0x24)\n    tag_9:\n      swap1\n      0x00\n      mstore\n      keccak256(0x00, 0x20)\n      swap1\n      0x03\n      mul\n      add\n        /* \"contracts/10_struct.sol\":574:594  players[0] = player1 */\n      0x00\n      dup3\n      add\n      mload\n      dup2\n      0x00\n      add\n      sstore\n      0x20\n      dup3\n      add\n      mload\n      dup2\n      0x01\n      add\n      exp(0x0100, 0x00)\n      dup2\n      sload\n      dup2\n      0xffffffffffffffffffffffffffffffffffffffff\n      mul\n      not\n      and\n      swap1\n      dup4\n      0xffffffffffffffffffffffffffffffffffffffff\n      and\n      mul\n      or\n      swap1\n      sstore\n      pop\n      0x40\n      dup3\n      add\n      mload\n      dup2\n      0x02\n      add\n      swap1\n      dup1\n      mload\n      swap1\n      0x20\n      add\n      swap1\n      tag_11\n      swap3\n      swap2\n      swap1\n      tag_12\n      jump\t// in\n    tag_11:\n      pop\n      swap1\n      pop\n      pop\n        /* \"contracts/10_struct.sol\":604:619  delete  player1 */\n      tag_13\n      tag_14\n      jump\t// in\n    tag_13:\n      swap1\n      pop\n        /* \"contracts/10_struct.sol\":418:626  function foo(string calldata _name) external {... */\n      pop\n      pop\n      pop\n      jump\t// out\n    tag_12:\n      dup3\n      dup1\n      sload\n      tag_15\n      swap1\n      tag_16\n      jump\t// in\n    tag_15:\n      swap1\n      0x00\n      mstore\n      keccak256(0x00, 0x20)\n      swap1\n      0x1f\n      add\n      0x20\n      swap1\n      div\n      dup2\n      add\n      swap3\n      dup3\n      tag_18\n      jumpi\n      0x00\n      dup6\n      sstore\n      jump(tag_17)\n    tag_18:\n      dup3\n      0x1f\n      lt\n      tag_19\n      jumpi\n      dup1\n      mload\n      not(0xff)\n      and\n      dup4\n      dup1\n      add\n      or\n      dup6\n      sstore\n      jump(tag_17)\n    tag_19:\n      dup3\n      dup1\n      add\n      0x01\n      add\n      dup6\n      sstore\n      dup3\n      iszero\n      tag_17\n      jumpi\n      swap2\n      dup3\n      add\n    tag_20:\n      dup3\n      dup2\n      gt\n      iszero\n      tag_21\n      jumpi\n      dup3\n      mload\n      dup3\n      sstore\n      swap2\n      0x20\n      add\n      swap2\n      swap1\n      0x01\n      add\n      swap1\n      jump(tag_20)\n    tag_21:\n    tag_17:\n      pop\n      swap1\n      pop\n      tag_22\n      swap2\n      swap1\n      tag_23\n      jump\t// in\n    tag_22:\n      pop\n      swap1\n      jump\t// out\n    tag_14:\n      mload(0x40)\n      dup1\n      0x60\n      add\n      0x40\n      mstore\n      dup1\n      0x00\n      dup2\n      mstore\n      0x20\n      add\n      and(0xffffffffffffffffffffffffffffffffffffffff, 0x00)\n      dup2\n      mstore\n      0x20\n      add\n      0x60\n      dup2\n      mstore\n      pop\n      swap1\n      jump\t// out\n    tag_23:\n    tag_24:\n      dup1\n      dup3\n      gt\n      iszero\n      tag_25\n      jumpi\n      0x00\n      dup2\n      0x00\n      swap1\n      sstore\n      pop\n      0x01\n      add\n      jump(tag_24)\n    tag_25:\n      pop\n      swap1\n      jump\t// out\n        /* \"#utility.yul\":21:373   */\n    tag_27:\n      0x00\n      dup1\n        /* \"#utility.yul\":139:142   */\n      dup4\n        /* \"#utility.yul\":132:136   */\n      0x1f\n        /* \"#utility.yul\":124:130   */\n      dup5\n        /* \"#utility.yul\":120:137   */\n      add\n        /* \"#utility.yul\":116:143   */\n      slt\n        /* \"#utility.yul\":106:108   */\n      tag_29\n      jumpi\n        /* \"#utility.yul\":157:158   */\n      0x00\n        /* \"#utility.yul\":154:155   */\n      dup1\n        /* \"#utility.yul\":147:159   */\n      revert\n        /* \"#utility.yul\":106:108   */\n    tag_29:\n        /* \"#utility.yul\":193:199   */\n      dup3\n        /* \"#utility.yul\":180:200   */\n      calldataload\n        /* \"#utility.yul\":170:200   */\n      swap1\n      pop\n        /* \"#utility.yul\":223:241   */\n      0xffffffffffffffff\n        /* \"#utility.yul\":215:221   */\n      dup2\n        /* \"#utility.yul\":212:242   */\n      gt\n        /* \"#utility.yul\":209:211   */\n      iszero\n      tag_30\n      jumpi\n        /* \"#utility.yul\":255:256   */\n      0x00\n        /* \"#utility.yul\":252:253   */\n      dup1\n        /* \"#utility.yul\":245:257   */\n      revert\n        /* \"#utility.yul\":209:211   */\n    tag_30:\n        /* \"#utility.yul\":292:296   */\n      0x20\n        /* \"#utility.yul\":284:290   */\n      dup4\n        /* \"#utility.yul\":280:297   */\n      add\n        /* \"#utility.yul\":268:297   */\n      swap2\n      pop\n        /* \"#utility.yul\":346:349   */\n      dup4\n        /* \"#utility.yul\":338:342   */\n      0x01\n        /* \"#utility.yul\":330:336   */\n      dup3\n        /* \"#utility.yul\":326:343   */\n      mul\n        /* \"#utility.yul\":316:324   */\n      dup4\n        /* \"#utility.yul\":312:344   */\n      add\n        /* \"#utility.yul\":309:350   */\n      gt\n        /* \"#utility.yul\":306:308   */\n      iszero\n      tag_31\n      jumpi\n        /* \"#utility.yul\":363:364   */\n      0x00\n        /* \"#utility.yul\":360:361   */\n      dup1\n        /* \"#utility.yul\":353:365   */\n      revert\n        /* \"#utility.yul\":306:308   */\n    tag_31:\n        /* \"#utility.yul\":96:373   */\n      swap3\n      pop\n      swap3\n      swap1\n      pop\n      jump\t// out\n        /* \"#utility.yul\":379:774   */\n    tag_6:\n      0x00\n      dup1\n        /* \"#utility.yul\":507:509   */\n      0x20\n        /* \"#utility.yul\":495:504   */\n      dup4\n        /* \"#utility.yul\":486:493   */\n      dup6\n        /* \"#utility.yul\":482:505   */\n      sub\n        /* \"#utility.yul\":478:510   */\n      slt\n        /* \"#utility.yul\":475:477   */\n      iszero\n      tag_33\n      jumpi\n        /* \"#utility.yul\":523:524   */\n      0x00\n        /* \"#utility.yul\":520:521   */\n      dup1\n        /* \"#utility.yul\":513:525   */\n      revert\n        /* \"#utility.yul\":475:477   */\n    tag_33:\n        /* \"#utility.yul\":594:595   */\n      0x00\n        /* \"#utility.yul\":583:592   */\n      dup4\n        /* \"#utility.yul\":579:596   */\n      add\n        /* \"#utility.yul\":566:597   */\n      calldataload\n        /* \"#utility.yul\":624:642   */\n      0xffffffffffffffff\n        /* \"#utility.yul\":616:622   */\n      dup2\n        /* \"#utility.yul\":613:643   */\n      gt\n        /* \"#utility.yul\":610:612   */\n      iszero\n      tag_34\n      jumpi\n        /* \"#utility.yul\":656:657   */\n      0x00\n        /* \"#utility.yul\":653:654   */\n      dup1\n        /* \"#utility.yul\":646:658   */\n      revert\n        /* \"#utility.yul\":610:612   */\n    tag_34:\n        /* \"#utility.yul\":692:757   */\n      tag_35\n        /* \"#utility.yul\":749:756   */\n      dup6\n        /* \"#utility.yul\":740:746   */\n      dup3\n        /* \"#utility.yul\":729:738   */\n      dup7\n        /* \"#utility.yul\":725:747   */\n      add\n        /* \"#utility.yul\":692:757   */\n      tag_27\n      jump\t// in\n    tag_35:\n        /* \"#utility.yul\":674:757   */\n      swap3\n      pop\n      swap3\n      pop\n        /* \"#utility.yul\":537:767   */\n      pop\n        /* \"#utility.yul\":465:774   */\n      swap3\n      pop\n      swap3\n      swap1\n      pop\n      jump\t// out\n        /* \"#utility.yul\":780:1100   */\n    tag_16:\n      0x00\n        /* \"#utility.yul\":861:862   */\n      0x02\n        /* \"#utility.yul\":855:859   */\n      dup3\n        /* \"#utility.yul\":851:863   */\n      div\n        /* \"#utility.yul\":841:863   */\n      swap1\n      pop\n        /* \"#utility.yul\":908:909   */\n      0x01\n        /* \"#utility.yul\":902:906   */\n      dup3\n        /* \"#utility.yul\":898:910   */\n      and\n        /* \"#utility.yul\":929:947   */\n      dup1\n        /* \"#utility.yul\":919:921   */\n      tag_37\n      jumpi\n        /* \"#utility.yul\":985:989   */\n      0x7f\n        /* \"#utility.yul\":977:983   */\n      dup3\n        /* \"#utility.yul\":973:990   */\n      and\n        /* \"#utility.yul\":963:990   */\n      swap2\n      pop\n        /* \"#utility.yul\":919:921   */\n    tag_37:\n        /* \"#utility.yul\":1047:1049   */\n      0x20\n        /* \"#utility.yul\":1039:1045   */\n      dup3\n        /* \"#utility.yul\":1036:1050   */\n      lt\n        /* \"#utility.yul\":1016:1034   */\n      dup2\n        /* \"#utility.yul\":1013:1051   */\n      eq\n        /* \"#utility.yul\":1010:1012   */\n      iszero\n      tag_38\n      jumpi\n        /* \"#utility.yul\":1066:1084   */\n      tag_39\n      tag_40\n      jump\t// in\n    tag_39:\n        /* \"#utility.yul\":1010:1012   */\n    tag_38:\n        /* \"#utility.yul\":831:1100   */\n      pop\n      swap2\n      swap1\n      pop\n      jump\t// out\n        /* \"#utility.yul\":1106:1286   */\n    tag_40:\n        /* \"#utility.yul\":1154:1231   */\n      0x4e487b7100000000000000000000000000000000000000000000000000000000\n        /* \"#utility.yul\":1151:1152   */\n      0x00\n        /* \"#utility.yul\":1144:1232   */\n      mstore\n        /* \"#utility.yul\":1251:1255   */\n      0x22\n        /* \"#utility.yul\":1248:1249   */\n      0x04\n        /* \"#utility.yul\":1241:1256   */\n      mstore\n        /* \"#utility.yul\":1275:1279   */\n      0x24\n        /* \"#utility.yul\":1272:1273   */\n      0x00\n        /* \"#utility.yul\":1265:1280   */\n      revert\n\n    auxdata: 0xa26469706673582212205317fc1d99c78c1bc379319511777dcb74804141ec4a06c562f0779d2a7ea86064736f6c63430008030033\n}\n",
				"bytecode": {
					"linkReferences": {},
					"object": "608060405234801561001057600080fd5b506103cd806100206000396000f3fe608060405234801561001057600080fd5b506004361061002b5760003560e01c8063f31a696914610030575b600080fd5b61004a600480360381019061004591906102f1565b61004c565b005b60006040518060600160405280600181526020013373ffffffffffffffffffffffffffffffffffffffff16815260200184848080601f016020809104026020016040519081016040528093929190818152602001838380828437600081840152601f19601f8201169050808301925050505050505081525090506040518060400160405280600c81526020017f75706461746564206e616d6500000000000000000000000000000000000000008152508160400181905250806000808154811061013f577f4e487b7100000000000000000000000000000000000000000000000000000000600052603260045260246000fd5b90600052602060002090600302016000820151816000015560208201518160010160006101000a81548173ffffffffffffffffffffffffffffffffffffffff021916908373ffffffffffffffffffffffffffffffffffffffff16021790555060408201518160020190805190602001906101ba9291906101cd565b509050506101c6610253565b9050505050565b8280546101d990610336565b90600052602060002090601f0160209004810192826101fb5760008555610242565b82601f1061021457805160ff1916838001178555610242565b82800160010185558215610242579182015b82811115610241578251825591602001919060010190610226565b5b50905061024f919061028a565b5090565b604051806060016040528060008152602001600073ffffffffffffffffffffffffffffffffffffffff168152602001606081525090565b5b808211156102a357600081600090555060010161028b565b5090565b60008083601f8401126102b957600080fd5b8235905067ffffffffffffffff8111156102d257600080fd5b6020830191508360018202830111156102ea57600080fd5b9250929050565b6000806020838503121561030457600080fd5b600083013567ffffffffffffffff81111561031e57600080fd5b61032a858286016102a7565b92509250509250929050565b6000600282049050600182168061034e57607f821691505b6020821081141561036257610361610368565b5b50919050565b7f4e487b7100000000000000000000000000000000000000000000000000000000600052602260045260246000fdfea26469706673582212205317fc1d99c78c1bc379319511777dcb74804141ec4a06c562f0779d2a7ea86064736f6c63430008030033",
					"opcodes": "PUSH1 0x80 PUSH1 0x40 MSTORE CALLVALUE DUP1 ISZERO PUSH2 0x10 JUMPI PUSH1 0x0 DUP1 REVERT JUMPDEST POP PUSH2 0x3CD DUP1 PUSH2 0x20 PUSH1 0x0 CODECOPY PUSH1 0x0 RETURN INVALID PUSH1 0x80 PUSH1 0x40 MSTORE CALLVALUE DUP1 ISZERO PUSH2 0x10 JUMPI PUSH1 0x0 DUP1 REVERT JUMPDEST POP PUSH1 0x4 CALLDATASIZE LT PUSH2 0x2B JUMPI PUSH1 0x0 CALLDATALOAD PUSH1 0xE0 SHR DUP1 PUSH4 0xF31A6969 EQ PUSH2 0x30 JUMPI JUMPDEST PUSH1 0x0 DUP1 REVERT JUMPDEST PUSH2 0x4A PUSH1 0x4 DUP1 CALLDATASIZE SUB DUP2 ADD SWAP1 PUSH2 0x45 SWAP2 SWAP1 PUSH2 0x2F1 JUMP JUMPDEST PUSH2 0x4C JUMP JUMPDEST STOP JUMPDEST PUSH1 0x0 PUSH1 0x40 MLOAD DUP1 PUSH1 0x60 ADD PUSH1 0x40 MSTORE DUP1 PUSH1 0x1 DUP2 MSTORE PUSH1 0x20 ADD CALLER PUSH20 0xFFFFFFFFFFFFFFFFFFFFFFFFFFFFFFFFFFFFFFFF AND DUP2 MSTORE PUSH1 0x20 ADD DUP5 DUP5 DUP1 DUP1 PUSH1 0x1F ADD PUSH1 0x20 DUP1 SWAP2 DIV MUL PUSH1 0x20 ADD PUSH1 0x40 MLOAD SWAP1 DUP2 ADD PUSH1 0x40 MSTORE DUP1 SWAP4 SWAP3 SWAP2 SWAP1 DUP2 DUP2 MSTORE PUSH1 0x20 ADD DUP4 DUP4 DUP1 DUP3 DUP5 CALLDATACOPY PUSH1 0x0 DUP2 DUP5 ADD MSTORE PUSH1 0x1F NOT PUSH1 0x1F DUP3 ADD AND SWAP1 POP DUP1 DUP4 ADD SWAP3 POP POP POP POP POP POP POP DUP2 MSTORE POP SWAP1 POP PUSH1 0x40 MLOAD DUP1 PUSH1 0x40 ADD PUSH1 0x40 MSTORE DUP1 PUSH1 0xC DUP2 MSTORE PUSH1 0x20 ADD PUSH32 0x75706461746564206E616D650000000000000000000000000000000000000000 DUP2 MSTORE POP DUP2 PUSH1 0x40 ADD DUP2 SWAP1 MSTORE POP DUP1 PUSH1 0x0 DUP1 DUP2 SLOAD DUP2 LT PUSH2 0x13F JUMPI PUSH32 0x4E487B7100000000000000000000000000000000000000000000000000000000 PUSH1 0x0 MSTORE PUSH1 0x32 PUSH1 0x4 MSTORE PUSH1 0x24 PUSH1 0x0 REVERT JUMPDEST SWAP1 PUSH1 0x0 MSTORE PUSH1 0x20 PUSH1 0x0 KECCAK256 SWAP1 PUSH1 0x3 MUL ADD PUSH1 0x0 DUP3 ADD MLOAD DUP2 PUSH1 0x0 ADD SSTORE PUSH1 0x20 DUP3 ADD MLOAD DUP2 PUSH1 0x1 ADD PUSH1 0x0 PUSH2 0x100 EXP DUP2 SLOAD DUP2 PUSH20 0xFFFFFFFFFFFFFFFFFFFFFFFFFFFFFFFFFFFFFFFF MUL NOT AND SWAP1 DUP4 PUSH20 0xFFFFFFFFFFFFFFFFFFFFFFFFFFFFFFFFFFFFFFFF AND MUL OR SWAP1 SSTORE POP PUSH1 0x40 DUP3 ADD MLOAD DUP2 PUSH1 0x2 ADD SWAP1 DUP1 MLOAD SWAP1 PUSH1 0x20 ADD SWAP1 PUSH2 0x1BA SWAP3 SWAP2 SWAP1 PUSH2 0x1CD JUMP JUMPDEST POP SWAP1 POP POP PUSH2 0x1C6 PUSH2 0x253 JUMP JUMPDEST SWAP1 POP POP POP POP JUMP JUMPDEST DUP3 DUP1 SLOAD PUSH2 0x1D9 SWAP1 PUSH2 0x336 JUMP JUMPDEST SWAP1 PUSH1 0x0 MSTORE PUSH1 0x20 PUSH1 0x0 KECCAK256 SWAP1 PUSH1 0x1F ADD PUSH1 0x20 SWAP1 DIV DUP2 ADD SWAP3 DUP3 PUSH2 0x1FB JUMPI PUSH1 0x0 DUP6 SSTORE PUSH2 0x242 JUMP JUMPDEST DUP3 PUSH1 0x1F LT PUSH2 0x214 JUMPI DUP1 MLOAD PUSH1 0xFF NOT AND DUP4 DUP1 ADD OR DUP6 SSTORE PUSH2 0x242 JUMP JUMPDEST DUP3 DUP1 ADD PUSH1 0x1 ADD DUP6 SSTORE DUP3 ISZERO PUSH2 0x242 JUMPI SWAP2 DUP3 ADD JUMPDEST DUP3 DUP2 GT ISZERO PUSH2 0x241 JUMPI DUP3 MLOAD DUP3 SSTORE SWAP2 PUSH1 0x20 ADD SWAP2 SWAP1 PUSH1 0x1 ADD SWAP1 PUSH2 0x226 JUMP JUMPDEST JUMPDEST POP SWAP1 POP PUSH2 0x24F SWAP2 SWAP1 PUSH2 0x28A JUMP JUMPDEST POP SWAP1 JUMP JUMPDEST PUSH1 0x40 MLOAD DUP1 PUSH1 0x60 ADD PUSH1 0x40 MSTORE DUP1 PUSH1 0x0 DUP2 MSTORE PUSH1 0x20 ADD PUSH1 0x0 PUSH20 0xFFFFFFFFFFFFFFFFFFFFFFFFFFFFFFFFFFFFFFFF AND DUP2 MSTORE PUSH1 0x20 ADD PUSH1 0x60 DUP2 MSTORE POP SWAP1 JUMP JUMPDEST JUMPDEST DUP1 DUP3 GT ISZERO PUSH2 0x2A3 JUMPI PUSH1 0x0 DUP2 PUSH1 0x0 SWAP1 SSTORE POP PUSH1 0x1 ADD PUSH2 0x28B JUMP JUMPDEST POP SWAP1 JUMP JUMPDEST PUSH1 0x0 DUP1 DUP4 PUSH1 0x1F DUP5 ADD SLT PUSH2 0x2B9 JUMPI PUSH1 0x0 DUP1 REVERT JUMPDEST DUP3 CALLDATALOAD SWAP1 POP PUSH8 0xFFFFFFFFFFFFFFFF DUP2 GT ISZERO PUSH2 0x2D2 JUMPI PUSH1 0x0 DUP1 REVERT JUMPDEST PUSH1 0x20 DUP4 ADD SWAP2 POP DUP4 PUSH1 0x1 DUP3 MUL DUP4 ADD GT ISZERO PUSH2 0x2EA JUMPI PUSH1 0x0 DUP1 REVERT JUMPDEST SWAP3 POP SWAP3 SWAP1 POP JUMP JUMPDEST PUSH1 0x0 DUP1 PUSH1 0x20 DUP4 DUP6 SUB SLT ISZERO PUSH2 0x304 JUMPI PUSH1 0x0 DUP1 REVERT JUMPDEST PUSH1 0x0 DUP4 ADD CALLDATALOAD PUSH8 0xFFFFFFFFFFFFFFFF DUP2 GT ISZERO PUSH2 0x31E JUMPI PUSH1 0x0 DUP1 REVERT JUMPDEST PUSH2 0x32A DUP6 DUP3 DUP7 ADD PUSH2 0x2A7 JUMP JUMPDEST SWAP3 POP SWAP3 POP POP SWAP3 POP SWAP3 SWAP1 POP JUMP JUMPDEST PUSH1 0x0 PUSH1 0x2 DUP3 DIV SWAP1 POP PUSH1 0x1 DUP3 AND DUP1 PUSH2 0x34E JUMPI PUSH1 0x7F DUP3 AND SWAP2 POP JUMPDEST PUSH1 0x20 DUP3 LT DUP2 EQ ISZERO PUSH2 0x362 JUMPI PUSH2 0x361 PUSH2 0x368 JUMP JUMPDEST JUMPDEST POP SWAP2 SWAP1 POP JUMP JUMPDEST PUSH32 0x4E487B7100000000000000000000000000000000000000000000000000000000 PUSH1 0x0 MSTORE PUSH1 0x22 PUSH1 0x4 MSTORE PUSH1 0x24 PUSH1 0x0 REVERT INVALID LOG2 PUSH5 0x6970667358 0x22 SLT KECCAK256 MSTORE8 OR 0xFC SAR SWAP10 0xC7 DUP13 SHL 0xC3 PUSH26 0x319511777DCB74804141EC4A06C562F0779D2A7EA86064736F6C PUSH4 0x43000803 STOP CALLER "
				},
				"gasEstimates": {
					"creation": {
						"codeDepositCost": "194600",
						"executionCost": "238",
						"totalCost": "194838"
					},
					"external": {
						"foo(string)": "infinite"
					}
				},
				"methodIdentifiers": {
					"foo(string)": "f31a6969"
				}
			},
			"storageLayout": {
				"storage": [
					{
						"astId": 12,
						"contract": "contracts/10_struct.sol:Struct",
						"label": "players",
						"offset": 0,
						"slot": "0",
						"type": "t_array(t_struct(Player)8_storage)dyn_storage"
					},
					{
						"astId": 17,
						"contract": "contracts/10_struct.sol:Struct",
						"label": "listPlayers",
						"offset": 0,
						"slot": "1",
						"type": "t_mapping(t_address,t_struct(Player)8_storage)"
					}
				],
				"types": {
					"t_address": {
						"encoding": "inplace",
						"label": "address",
						"numberOfBytes": "20"
					},
					"t_array(t_struct(Player)8_storage)dyn_storage": {
						"base": "t_struct(Player)8_storage",
						"encoding": "dynamic_array",
						"label": "struct Struct.Player[]",
						"numberOfBytes": "32"
					},
					"t_mapping(t_address,t_struct(Player)8_storage)": {
						"encoding": "mapping",
						"key": "t_address",
						"label": "mapping(address => struct Struct.Player)",
						"numberOfBytes": "32",
						"value": "t_struct(Player)8_storage"
					},
					"t_string_storage": {
						"encoding": "bytes",
						"label": "string",
						"numberOfBytes": "32"
					},
					"t_struct(Player)8_storage": {
						"encoding": "inplace",
						"label": "struct Struct.Player",
						"members": [
							{
								"astId": 3,
								"contract": "contracts/10_struct.sol:Struct",
								"label": "ID",
								"offset": 0,
								"slot": "0",
								"type": "t_uint256"
							},
							{
								"astId": 5,
								"contract": "contracts/10_struct.sol:Struct",
								"label": "addr",
								"offset": 0,
								"slot": "1",
								"type": "t_address"
							},
							{
								"astId": 7,
								"contract": "contracts/10_struct.sol:Struct",
								"label": "name",
								"offset": 0,
								"slot": "2",
								"type": "t_string_storage"
							}
						],
						"numberOfBytes": "96"
					},
					"t_uint256": {
						"encoding": "inplace",
						"label": "uint256",
						"numberOfBytes": "32"
					}
				}
			},
			"userdoc": {
				"kind": "user",
				"methods": {},
				"version": 1
			}
		}
	}
}