{
	"data": {
		"bytecode": {
			"linkReferences": {},
			"object": "608060405234801561001057600080fd5b5061020d806100206000396000f3fe608060405234801561001057600080fd5b506004361061002b5760003560e01c80635524107714610030575b600080fd5b61004a60048036038101906100459190610115565b61004c565b005b6001151560008054906101000a900460ff16151514801561006e575060018054145b156100bf5760026001819055505b60008054906101000a900460ff16156100ba57600560015414156100b55760008060006101000a81548160ff0219169083151502179055505b61007c565b6100fd565b60005b600a8110156100fb5760098114156100d9576100fb565b60058114156100e7576100e8565b5b80806100f390610148565b9150506100c2565b505b50565b60008135905061010f816101c0565b92915050565b60006020828403121561012757600080fd5b600061013584828501610100565b91505092915050565b6000819050919050565b60006101538261013e565b91507fffffffffffffffffffffffffffffffffffffffffffffffffffffffffffffffff82141561018657610185610191565b5b600182019050919050565b7f4e487b7100000000000000000000000000000000000000000000000000000000600052601160045260246000fd5b6101c98161013e565b81146101d457600080fd5b5056fea2646970667358221220a6dedcac2729eed2f722aebf5f246b7bda9e52ad1f6ffa6ae4da722274ef5b4c64736f6c63430008030033",
			"opcodes": "PUSH1 0x80 PUSH1 0x40 MSTORE CALLVALUE DUP1 ISZERO PUSH2 0x10 JUMPI PUSH1 0x0 DUP1 REVERT JUMPDEST POP PUSH2 0x20D DUP1 PUSH2 0x20 PUSH1 0x0 CODECOPY PUSH1 0x0 RETURN INVALID PUSH1 0x80 PUSH1 0x40 MSTORE CALLVALUE DUP1 ISZERO PUSH2 0x10 JUMPI PUSH1 0x0 DUP1 REVERT JUMPDEST POP PUSH1 0x4 CALLDATASIZE LT PUSH2 0x2B JUMPI PUSH1 0x0 CALLDATALOAD PUSH1 0xE0 SHR DUP1 PUSH4 0x55241077 EQ PUSH2 0x30 JUMPI JUMPDEST PUSH1 0x0 DUP1 REVERT JUMPDEST PUSH2 0x4A PUSH1 0x4 DUP1 CALLDATASIZE SUB DUP2 ADD SWAP1 PUSH2 0x45 SWAP2 SWAP1 PUSH2 0x115 JUMP JUMPDEST PUSH2 0x4C JUMP JUMPDEST STOP JUMPDEST PUSH1 0x1 ISZERO ISZERO PUSH1 0x0 DUP1 SLOAD SWAP1 PUSH2 0x100 EXP SWAP1 DIV PUSH1 0xFF AND ISZERO ISZERO EQ DUP1 ISZERO PUSH2 0x6E JUMPI POP PUSH1 0x1 DUP1 SLOAD EQ JUMPDEST ISZERO PUSH2 0xBF JUMPI PUSH1 0x2 PUSH1 0x1 DUP2 SWAP1 SSTORE POP JUMPDEST PUSH1 0x0 DUP1 SLOAD SWAP1 PUSH2 0x100 EXP SWAP1 DIV PUSH1 0xFF AND ISZERO PUSH2 0xBA JUMPI PUSH1 0x5 PUSH1 0x1 SLOAD EQ ISZERO PUSH2 0xB5 JUMPI PUSH1 0x0 DUP1 PUSH1 0x0 PUSH2 0x100 EXP DUP2 SLOAD DUP2 PUSH1 0xFF MUL NOT AND SWAP1 DUP4 ISZERO ISZERO MUL OR SWAP1 SSTORE POP JUMPDEST PUSH2 0x7C JUMP JUMPDEST PUSH2 0xFD JUMP JUMPDEST PUSH1 0x0 JUMPDEST PUSH1 0xA DUP2 LT ISZERO PUSH2 0xFB JUMPI PUSH1 0x9 DUP2 EQ ISZERO PUSH2 0xD9 JUMPI PUSH2 0xFB JUMP JUMPDEST PUSH1 0x5 DUP2 EQ ISZERO PUSH2 0xE7 JUMPI PUSH2 0xE8 JUMP JUMPDEST JUMPDEST DUP1 DUP1 PUSH2 0xF3 SWAP1 PUSH2 0x148 JUMP JUMPDEST SWAP2 POP POP PUSH2 0xC2 JUMP JUMPDEST POP JUMPDEST POP JUMP JUMPDEST PUSH1 0x0 DUP2 CALLDATALOAD SWAP1 POP PUSH2 0x10F DUP2 PUSH2 0x1C0 JUMP JUMPDEST SWAP3 SWAP2 POP POP JUMP JUMPDEST PUSH1 0x0 PUSH1 0x20 DUP3 DUP5 SUB SLT ISZERO PUSH2 0x127 JUMPI PUSH1 0x0 DUP1 REVERT JUMPDEST PUSH1 0x0 PUSH2 0x135 DUP5 DUP3 DUP6 ADD PUSH2 0x100 JUMP JUMPDEST SWAP2 POP POP SWAP3 SWAP2 POP POP JUMP JUMPDEST PUSH1 0x0 DUP2 SWAP1 POP SWAP2 SWAP1 POP JUMP JUMPDEST PUSH1 0x0 PUSH2 0x153 DUP3 PUSH2 0x13E JUMP JUMPDEST SWAP2 POP PUSH32 0xFFFFFFFFFFFFFFFFFFFFFFFFFFFFFFFFFFFFFFFFFFFFFFFFFFFFFFFFFFFFFFFF DUP3 EQ ISZERO PUSH2 0x186 JUMPI PUSH2 0x185 PUSH2 0x191 JUMP JUMPDEST JUMPDEST PUSH1 0x1 DUP3 ADD SWAP1 POP SWAP2 SWAP1 POP JUMP JUMPDEST PUSH32 0x4E487B7100000000000000000000000000000000000000000000000000000000 PUSH1 0x0 MSTORE PUSH1 0x11 PUSH1 0x4 MSTORE PUSH1 0x24 PUSH1 0x0 REVERT JUMPDEST PUSH2 0x1C9 DUP2 PUSH2 0x13E JUMP JUMPDEST DUP2 EQ PUSH2 0x1D4 JUMPI PUSH1 0x0 DUP1 REVERT JUMPDEST POP JUMP INVALID LOG2 PUSH5 0x6970667358 0x22 SLT KECCAK256 0xA6 0xDE 0xDC 0xAC 0x27 0x29 0xEE 0xD2 0xF7 0x22 0xAE 0xBF 0x5F 0x24 PUSH12 0x7BDA9E52AD1F6FFA6AE4DA72 0x22 PUSH21 0xEF5B4C64736F6C6343000803003300000000000000 "
		},
		"gasEstimates": {
			"creation": {
				"codeDepositCost": "105000",
				"executionCost": "153",
				"totalCost": "105153"
			},
			"external": {
				"setValue(uint256)": "infinite"
			}
		},
		"methodIdentifiers": {
			"setValue(uint256)": "55241077"
		}
	},
	"abi": [
		{
			"inputs": [
				{
					"internalType": "uint256",
					"name": "_value",
					"type": "uint256"
				}
			],
			"name": "setValue",
			"outputs": [],
			"stateMutability": "nonpayable",
			"type": "function"
		}
	]
}