{
	"data": {
		"bytecode": {
			"linkReferences": {},
			"object": "6080604052600a60005534801561001557600080fd5b50610107806100256000396000f3fe6080604052348015600f57600080fd5b506004361060465760003560e01c80630dbe671f14604b57806357e57eb8146065578063c298557814606d578063febb0f7e146075575b600080fd5b6051607d565b604051605c919060ae565b60405180910390f35b606b6083565b005b6073608d565b005b607b6097565b005b60005481565b6014600081905550565b6005600081905550565b600f600081905550565b60a88160c7565b82525050565b600060208201905060c1600083018460a1565b92915050565b600081905091905056fea2646970667358221220adebaa54f9e4c1538d80fc88dc18d9e18c9c1eef78b05934c7c3c73344d4314964736f6c63430008030033",
			"opcodes": "PUSH1 0x80 PUSH1 0x40 MSTORE PUSH1 0xA PUSH1 0x0 SSTORE CALLVALUE DUP1 ISZERO PUSH2 0x15 JUMPI PUSH1 0x0 DUP1 REVERT JUMPDEST POP PUSH2 0x107 DUP1 PUSH2 0x25 PUSH1 0x0 CODECOPY PUSH1 0x0 RETURN INVALID PUSH1 0x80 PUSH1 0x40 MSTORE CALLVALUE DUP1 ISZERO PUSH1 0xF JUMPI PUSH1 0x0 DUP1 REVERT JUMPDEST POP PUSH1 0x4 CALLDATASIZE LT PUSH1 0x46 JUMPI PUSH1 0x0 CALLDATALOAD PUSH1 0xE0 SHR DUP1 PUSH4 0xDBE671F EQ PUSH1 0x4B JUMPI DUP1 PUSH4 0x57E57EB8 EQ PUSH1 0x65 JUMPI DUP1 PUSH4 0xC2985578 EQ PUSH1 0x6D JUMPI DUP1 PUSH4 0xFEBB0F7E EQ PUSH1 0x75 JUMPI JUMPDEST PUSH1 0x0 DUP1 REVERT JUMPDEST PUSH1 0x51 PUSH1 0x7D JUMP JUMPDEST PUSH1 0x40 MLOAD PUSH1 0x5C SWAP2 SWAP1 PUSH1 0xAE JUMP JUMPDEST PUSH1 0x40 MLOAD DUP1 SWAP2 SUB SWAP1 RETURN JUMPDEST PUSH1 0x6B PUSH1 0x83 JUMP JUMPDEST STOP JUMPDEST PUSH1 0x73 PUSH1 0x8D JUMP JUMPDEST STOP JUMPDEST PUSH1 0x7B PUSH1 0x97 JUMP JUMPDEST STOP JUMPDEST PUSH1 0x0 SLOAD DUP2 JUMP JUMPDEST PUSH1 0x14 PUSH1 0x0 DUP2 SWAP1 SSTORE POP JUMP JUMPDEST PUSH1 0x5 PUSH1 0x0 DUP2 SWAP1 SSTORE POP JUMP JUMPDEST PUSH1 0xF PUSH1 0x0 DUP2 SWAP1 SSTORE POP JUMP JUMPDEST PUSH1 0xA8 DUP2 PUSH1 0xC7 JUMP JUMPDEST DUP3 MSTORE POP POP JUMP JUMPDEST PUSH1 0x0 PUSH1 0x20 DUP3 ADD SWAP1 POP PUSH1 0xC1 PUSH1 0x0 DUP4 ADD DUP5 PUSH1 0xA1 JUMP JUMPDEST SWAP3 SWAP2 POP POP JUMP JUMPDEST PUSH1 0x0 DUP2 SWAP1 POP SWAP2 SWAP1 POP JUMP INVALID LOG2 PUSH5 0x6970667358 0x22 SLT KECCAK256 0xAD 0xEB 0xAA SLOAD 0xF9 0xE4 0xC1 MSTORE8 DUP14 DUP1 0xFC DUP9 0xDC XOR 0xD9 0xE1 DUP13 SWAP13 0x1E 0xEF PUSH25 0xB05934C7C3C73344D4314964736F6C63430008030033000000 "
		},
		"gasEstimates": {
			"creation": {
				"codeDepositCost": "52600",
				"executionCost": "20111",
				"totalCost": "72711"
			},
			"external": {
				"a()": "1107",
				"bar()": "20202",
				"fat()": "20158",
				"foo()": "20180"
			}
		},
		"methodIdentifiers": {
			"a()": "0dbe671f",
			"bar()": "febb0f7e",
			"fat()": "57e57eb8",
			"foo()": "c2985578"
		}
	},
	"abi": [
		{
			"inputs": [],
			"name": "a",
			"outputs": [
				{
					"internalType": "uint256",
					"name": "",
					"type": "uint256"
				}
			],
			"stateMutability": "view",
			"type": "function"
		},
		{
			"inputs": [],
			"name": "bar",
			"outputs": [],
			"stateMutability": "nonpayable",
			"type": "function"
		},
		{
			"inputs": [],
			"name": "fat",
			"outputs": [],
			"stateMutability": "nonpayable",
			"type": "function"
		},
		{
			"inputs": [],
			"name": "foo",
			"outputs": [],
			"stateMutability": "nonpayable",
			"type": "function"
		}
	]
}