{
	"data": {
		"bytecode": {
			"linkReferences": {},
			"object": "60806040526040518060800160405280600160ff168152602001600260ff168152602001600560ff168152602001600660ff1681525060019060046100459291906100c3565b506040518060800160405280600160ff168152602001600260ff168152602001600560ff168152602001600660ff168152506002906004610087929190610115565b5034801561009457600080fd5b506040516107e63803806107e683398181016040528101906100b6919061018c565b80600081905550506101d6565b828054828255906000526020600020908101928215610104579160200282015b82811115610103578251829060ff169055916020019190600101906100e3565b5b509050610111919061015a565b5090565b8260048101928215610149579160200282015b82811115610148578251829060ff16905591602001919060010190610128565b5b509050610156919061015a565b5090565b5b8082111561017357600081600090555060010161015b565b5090565b600081519050610186816101bf565b92915050565b60006020828403121561019e57600080fd5b60006101ac84828501610177565b91505092915050565b6000819050919050565b6101c8816101b5565b81146101d357600080fd5b50565b610601806101e56000396000f3fe608060405234801561001057600080fd5b50600436106100625760003560e01c80631003e2d214610067578063500e135514610083578063552410771461008d5780638b532f39146100a9578063f4d25dfb146100b3578063f4e2eece146100cf575b600080fd5b610081600480360381019061007c91906104bf565b6100eb565b005b61008b610117565b005b6100a760048036038101906100a291906104bf565b610233565b005b6100b161023d565b005b6100cd60048036038101906100c89190610439565b6102d3565b005b6100e960048036038101906100e4919061047e565b6102d7565b005b600181908060018154018082558091505060019003906000526020600020016000909190919091505550565b6000600a67ffffffffffffffff81111561015a577f4e487b7100000000000000000000000000000000000000000000000000000000600052604160045260246000fd5b6040519080825280602002602001820160405280156101885781602001602082028036833780820191505090505b5090506001816000815181106101c7577f4e487b7100000000000000000000000000000000000000000000000000000000600052603260045260246000fd5b6020026020010181815250508060008151811061020d577f4e487b7100000000000000000000000000000000000000000000000000000000600052603260045260246000fd5b602002602001016000815250806001908051906020019061022f9291906102da565b5050565b8060008190555050565b6009600160008154811061027a577f4e487b7100000000000000000000000000000000000000000000000000000000600052603260045260246000fd5b906000526020600020018190555060016000815481106102c3577f4e487b7100000000000000000000000000000000000000000000000000000000600052603260045260246000fd5b9060005260206000200160009055565b5050565b50565b828054828255906000526020600020908101928215610316579160200282015b828111156103155782518255916020019190600101906102fa565b5b5090506103239190610327565b5090565b5b80821115610340576000816000905550600101610328565b5090565b60006103576103528461050d565b6104e8565b9050808382526020820190508285602086028201111561037657600080fd5b60005b858110156103a6578161038c8882610424565b845260208401935060208301925050600181019050610379565b5050509392505050565b60008083601f8401126103c257600080fd5b8235905067ffffffffffffffff8111156103db57600080fd5b6020830191508360208202830111156103f357600080fd5b9250929050565b600082601f83011261040b57600080fd5b813561041b848260208601610344565b91505092915050565b600081359050610433816105b4565b92915050565b6000806020838503121561044c57600080fd5b600083013567ffffffffffffffff81111561046657600080fd5b610472858286016103b0565b92509250509250929050565b60006020828403121561049057600080fd5b600082013567ffffffffffffffff8111156104aa57600080fd5b6104b6848285016103fa565b91505092915050565b6000602082840312156104d157600080fd5b60006104df84828501610424565b91505092915050565b60006104f2610503565b90506104fe8282610543565b919050565b6000604051905090565b600067ffffffffffffffff82111561052857610527610574565b5b602082029050602081019050919050565b6000819050919050565b61054c826105a3565b810181811067ffffffffffffffff8211171561056b5761056a610574565b5b80604052505050565b7f4e487b7100000000000000000000000000000000000000000000000000000000600052604160045260246000fd5b6000601f19601f8301169050919050565b6105bd81610539565b81146105c857600080fd5b5056fea2646970667358221220902bb3d189bba556cc4e1274f6dc92170dbc491158d82d6efbe3ae5f2841c54b64736f6c63430008030033",
			"opcodes": "PUSH1 0x80 PUSH1 0x40 MSTORE PUSH1 0x40 MLOAD DUP1 PUSH1 0x80 ADD PUSH1 0x40 MSTORE DUP1 PUSH1 0x1 PUSH1 0xFF AND DUP2 MSTORE PUSH1 0x20 ADD PUSH1 0x2 PUSH1 0xFF AND DUP2 MSTORE PUSH1 0x20 ADD PUSH1 0x5 PUSH1 0xFF AND DUP2 MSTORE PUSH1 0x20 ADD PUSH1 0x6 PUSH1 0xFF AND DUP2 MSTORE POP PUSH1 0x1 SWAP1 PUSH1 0x4 PUSH2 0x45 SWAP3 SWAP2 SWAP1 PUSH2 0xC3 JUMP JUMPDEST POP PUSH1 0x40 MLOAD DUP1 PUSH1 0x80 ADD PUSH1 0x40 MSTORE DUP1 PUSH1 0x1 PUSH1 0xFF AND DUP2 MSTORE PUSH1 0x20 ADD PUSH1 0x2 PUSH1 0xFF AND DUP2 MSTORE PUSH1 0x20 ADD PUSH1 0x5 PUSH1 0xFF AND DUP2 MSTORE PUSH1 0x20 ADD PUSH1 0x6 PUSH1 0xFF AND DUP2 MSTORE POP PUSH1 0x2 SWAP1 PUSH1 0x4 PUSH2 0x87 SWAP3 SWAP2 SWAP1 PUSH2 0x115 JUMP JUMPDEST POP CALLVALUE DUP1 ISZERO PUSH2 0x94 JUMPI PUSH1 0x0 DUP1 REVERT JUMPDEST POP PUSH1 0x40 MLOAD PUSH2 0x7E6 CODESIZE SUB DUP1 PUSH2 0x7E6 DUP4 CODECOPY DUP2 DUP2 ADD PUSH1 0x40 MSTORE DUP2 ADD SWAP1 PUSH2 0xB6 SWAP2 SWAP1 PUSH2 0x18C JUMP JUMPDEST DUP1 PUSH1 0x0 DUP2 SWAP1 SSTORE POP POP PUSH2 0x1D6 JUMP JUMPDEST DUP3 DUP1 SLOAD DUP3 DUP3 SSTORE SWAP1 PUSH1 0x0 MSTORE PUSH1 0x20 PUSH1 0x0 KECCAK256 SWAP1 DUP2 ADD SWAP3 DUP3 ISZERO PUSH2 0x104 JUMPI SWAP2 PUSH1 0x20 MUL DUP3 ADD JUMPDEST DUP3 DUP2 GT ISZERO PUSH2 0x103 JUMPI DUP3 MLOAD DUP3 SWAP1 PUSH1 0xFF AND SWAP1 SSTORE SWAP2 PUSH1 0x20 ADD SWAP2 SWAP1 PUSH1 0x1 ADD SWAP1 PUSH2 0xE3 JUMP JUMPDEST JUMPDEST POP SWAP1 POP PUSH2 0x111 SWAP2 SWAP1 PUSH2 0x15A JUMP JUMPDEST POP SWAP1 JUMP JUMPDEST DUP3 PUSH1 0x4 DUP2 ADD SWAP3 DUP3 ISZERO PUSH2 0x149 JUMPI SWAP2 PUSH1 0x20 MUL DUP3 ADD JUMPDEST DUP3 DUP2 GT ISZERO PUSH2 0x148 JUMPI DUP3 MLOAD DUP3 SWAP1 PUSH1 0xFF AND SWAP1 SSTORE SWAP2 PUSH1 0x20 ADD SWAP2 SWAP1 PUSH1 0x1 ADD SWAP1 PUSH2 0x128 JUMP JUMPDEST JUMPDEST POP SWAP1 POP PUSH2 0x156 SWAP2 SWAP1 PUSH2 0x15A JUMP JUMPDEST POP SWAP1 JUMP JUMPDEST JUMPDEST DUP1 DUP3 GT ISZERO PUSH2 0x173 JUMPI PUSH1 0x0 DUP2 PUSH1 0x0 SWAP1 SSTORE POP PUSH1 0x1 ADD PUSH2 0x15B JUMP JUMPDEST POP SWAP1 JUMP JUMPDEST PUSH1 0x0 DUP2 MLOAD SWAP1 POP PUSH2 0x186 DUP2 PUSH2 0x1BF JUMP JUMPDEST SWAP3 SWAP2 POP POP JUMP JUMPDEST PUSH1 0x0 PUSH1 0x20 DUP3 DUP5 SUB SLT ISZERO PUSH2 0x19E JUMPI PUSH1 0x0 DUP1 REVERT JUMPDEST PUSH1 0x0 PUSH2 0x1AC DUP5 DUP3 DUP6 ADD PUSH2 0x177 JUMP JUMPDEST SWAP2 POP POP SWAP3 SWAP2 POP POP JUMP JUMPDEST PUSH1 0x0 DUP2 SWAP1 POP SWAP2 SWAP1 POP JUMP JUMPDEST PUSH2 0x1C8 DUP2 PUSH2 0x1B5 JUMP JUMPDEST DUP2 EQ PUSH2 0x1D3 JUMPI PUSH1 0x0 DUP1 REVERT JUMPDEST POP JUMP JUMPDEST PUSH2 0x601 DUP1 PUSH2 0x1E5 PUSH1 0x0 CODECOPY PUSH1 0x0 RETURN INVALID PUSH1 0x80 PUSH1 0x40 MSTORE CALLVALUE DUP1 ISZERO PUSH2 0x10 JUMPI PUSH1 0x0 DUP1 REVERT JUMPDEST POP PUSH1 0x4 CALLDATASIZE LT PUSH2 0x62 JUMPI PUSH1 0x0 CALLDATALOAD PUSH1 0xE0 SHR DUP1 PUSH4 0x1003E2D2 EQ PUSH2 0x67 JUMPI DUP1 PUSH4 0x500E1355 EQ PUSH2 0x83 JUMPI DUP1 PUSH4 0x55241077 EQ PUSH2 0x8D JUMPI DUP1 PUSH4 0x8B532F39 EQ PUSH2 0xA9 JUMPI DUP1 PUSH4 0xF4D25DFB EQ PUSH2 0xB3 JUMPI DUP1 PUSH4 0xF4E2EECE EQ PUSH2 0xCF JUMPI JUMPDEST PUSH1 0x0 DUP1 REVERT JUMPDEST PUSH2 0x81 PUSH1 0x4 DUP1 CALLDATASIZE SUB DUP2 ADD SWAP1 PUSH2 0x7C SWAP2 SWAP1 PUSH2 0x4BF JUMP JUMPDEST PUSH2 0xEB JUMP JUMPDEST STOP JUMPDEST PUSH2 0x8B PUSH2 0x117 JUMP JUMPDEST STOP JUMPDEST PUSH2 0xA7 PUSH1 0x4 DUP1 CALLDATASIZE SUB DUP2 ADD SWAP1 PUSH2 0xA2 SWAP2 SWAP1 PUSH2 0x4BF JUMP JUMPDEST PUSH2 0x233 JUMP JUMPDEST STOP JUMPDEST PUSH2 0xB1 PUSH2 0x23D JUMP JUMPDEST STOP JUMPDEST PUSH2 0xCD PUSH1 0x4 DUP1 CALLDATASIZE SUB DUP2 ADD SWAP1 PUSH2 0xC8 SWAP2 SWAP1 PUSH2 0x439 JUMP JUMPDEST PUSH2 0x2D3 JUMP JUMPDEST STOP JUMPDEST PUSH2 0xE9 PUSH1 0x4 DUP1 CALLDATASIZE SUB DUP2 ADD SWAP1 PUSH2 0xE4 SWAP2 SWAP1 PUSH2 0x47E JUMP JUMPDEST PUSH2 0x2D7 JUMP JUMPDEST STOP JUMPDEST PUSH1 0x1 DUP2 SWAP1 DUP1 PUSH1 0x1 DUP2 SLOAD ADD DUP1 DUP3 SSTORE DUP1 SWAP2 POP POP PUSH1 0x1 SWAP1 SUB SWAP1 PUSH1 0x0 MSTORE PUSH1 0x20 PUSH1 0x0 KECCAK256 ADD PUSH1 0x0 SWAP1 SWAP2 SWAP1 SWAP2 SWAP1 SWAP2 POP SSTORE POP JUMP JUMPDEST PUSH1 0x0 PUSH1 0xA PUSH8 0xFFFFFFFFFFFFFFFF DUP2 GT ISZERO PUSH2 0x15A JUMPI PUSH32 0x4E487B7100000000000000000000000000000000000000000000000000000000 PUSH1 0x0 MSTORE PUSH1 0x41 PUSH1 0x4 MSTORE PUSH1 0x24 PUSH1 0x0 REVERT JUMPDEST PUSH1 0x40 MLOAD SWAP1 DUP1 DUP3 MSTORE DUP1 PUSH1 0x20 MUL PUSH1 0x20 ADD DUP3 ADD PUSH1 0x40 MSTORE DUP1 ISZERO PUSH2 0x188 JUMPI DUP2 PUSH1 0x20 ADD PUSH1 0x20 DUP3 MUL DUP1 CALLDATASIZE DUP4 CALLDATACOPY DUP1 DUP3 ADD SWAP2 POP POP SWAP1 POP JUMPDEST POP SWAP1 POP PUSH1 0x1 DUP2 PUSH1 0x0 DUP2 MLOAD DUP2 LT PUSH2 0x1C7 JUMPI PUSH32 0x4E487B7100000000000000000000000000000000000000000000000000000000 PUSH1 0x0 MSTORE PUSH1 0x32 PUSH1 0x4 MSTORE PUSH1 0x24 PUSH1 0x0 REVERT JUMPDEST PUSH1 0x20 MUL PUSH1 0x20 ADD ADD DUP2 DUP2 MSTORE POP POP DUP1 PUSH1 0x0 DUP2 MLOAD DUP2 LT PUSH2 0x20D JUMPI PUSH32 0x4E487B7100000000000000000000000000000000000000000000000000000000 PUSH1 0x0 MSTORE PUSH1 0x32 PUSH1 0x4 MSTORE PUSH1 0x24 PUSH1 0x0 REVERT JUMPDEST PUSH1 0x20 MUL PUSH1 0x20 ADD ADD PUSH1 0x0 DUP2 MSTORE POP DUP1 PUSH1 0x1 SWAP1 DUP1 MLOAD SWAP1 PUSH1 0x20 ADD SWAP1 PUSH2 0x22F SWAP3 SWAP2 SWAP1 PUSH2 0x2DA JUMP JUMPDEST POP POP JUMP JUMPDEST DUP1 PUSH1 0x0 DUP2 SWAP1 SSTORE POP POP JUMP JUMPDEST PUSH1 0x9 PUSH1 0x1 PUSH1 0x0 DUP2 SLOAD DUP2 LT PUSH2 0x27A JUMPI PUSH32 0x4E487B7100000000000000000000000000000000000000000000000000000000 PUSH1 0x0 MSTORE PUSH1 0x32 PUSH1 0x4 MSTORE PUSH1 0x24 PUSH1 0x0 REVERT JUMPDEST SWAP1 PUSH1 0x0 MSTORE PUSH1 0x20 PUSH1 0x0 KECCAK256 ADD DUP2 SWAP1 SSTORE POP PUSH1 0x1 PUSH1 0x0 DUP2 SLOAD DUP2 LT PUSH2 0x2C3 JUMPI PUSH32 0x4E487B7100000000000000000000000000000000000000000000000000000000 PUSH1 0x0 MSTORE PUSH1 0x32 PUSH1 0x4 MSTORE PUSH1 0x24 PUSH1 0x0 REVERT JUMPDEST SWAP1 PUSH1 0x0 MSTORE PUSH1 0x20 PUSH1 0x0 KECCAK256 ADD PUSH1 0x0 SWAP1 SSTORE JUMP JUMPDEST POP POP JUMP JUMPDEST POP JUMP JUMPDEST DUP3 DUP1 SLOAD DUP3 DUP3 SSTORE SWAP1 PUSH1 0x0 MSTORE PUSH1 0x20 PUSH1 0x0 KECCAK256 SWAP1 DUP2 ADD SWAP3 DUP3 ISZERO PUSH2 0x316 JUMPI SWAP2 PUSH1 0x20 MUL DUP3 ADD JUMPDEST DUP3 DUP2 GT ISZERO PUSH2 0x315 JUMPI DUP3 MLOAD DUP3 SSTORE SWAP2 PUSH1 0x20 ADD SWAP2 SWAP1 PUSH1 0x1 ADD SWAP1 PUSH2 0x2FA JUMP JUMPDEST JUMPDEST POP SWAP1 POP PUSH2 0x323 SWAP2 SWAP1 PUSH2 0x327 JUMP JUMPDEST POP SWAP1 JUMP JUMPDEST JUMPDEST DUP1 DUP3 GT ISZERO PUSH2 0x340 JUMPI PUSH1 0x0 DUP2 PUSH1 0x0 SWAP1 SSTORE POP PUSH1 0x1 ADD PUSH2 0x328 JUMP JUMPDEST POP SWAP1 JUMP JUMPDEST PUSH1 0x0 PUSH2 0x357 PUSH2 0x352 DUP5 PUSH2 0x50D JUMP JUMPDEST PUSH2 0x4E8 JUMP JUMPDEST SWAP1 POP DUP1 DUP4 DUP3 MSTORE PUSH1 0x20 DUP3 ADD SWAP1 POP DUP3 DUP6 PUSH1 0x20 DUP7 MUL DUP3 ADD GT ISZERO PUSH2 0x376 JUMPI PUSH1 0x0 DUP1 REVERT JUMPDEST PUSH1 0x0 JUMPDEST DUP6 DUP2 LT ISZERO PUSH2 0x3A6 JUMPI DUP2 PUSH2 0x38C DUP9 DUP3 PUSH2 0x424 JUMP JUMPDEST DUP5 MSTORE PUSH1 0x20 DUP5 ADD SWAP4 POP PUSH1 0x20 DUP4 ADD SWAP3 POP POP PUSH1 0x1 DUP2 ADD SWAP1 POP PUSH2 0x379 JUMP JUMPDEST POP POP POP SWAP4 SWAP3 POP POP POP JUMP JUMPDEST PUSH1 0x0 DUP1 DUP4 PUSH1 0x1F DUP5 ADD SLT PUSH2 0x3C2 JUMPI PUSH1 0x0 DUP1 REVERT JUMPDEST DUP3 CALLDATALOAD SWAP1 POP PUSH8 0xFFFFFFFFFFFFFFFF DUP2 GT ISZERO PUSH2 0x3DB JUMPI PUSH1 0x0 DUP1 REVERT JUMPDEST PUSH1 0x20 DUP4 ADD SWAP2 POP DUP4 PUSH1 0x20 DUP3 MUL DUP4 ADD GT ISZERO PUSH2 0x3F3 JUMPI PUSH1 0x0 DUP1 REVERT JUMPDEST SWAP3 POP SWAP3 SWAP1 POP JUMP JUMPDEST PUSH1 0x0 DUP3 PUSH1 0x1F DUP4 ADD SLT PUSH2 0x40B JUMPI PUSH1 0x0 DUP1 REVERT JUMPDEST DUP2 CALLDATALOAD PUSH2 0x41B DUP5 DUP3 PUSH1 0x20 DUP7 ADD PUSH2 0x344 JUMP JUMPDEST SWAP2 POP POP SWAP3 SWAP2 POP POP JUMP JUMPDEST PUSH1 0x0 DUP2 CALLDATALOAD SWAP1 POP PUSH2 0x433 DUP2 PUSH2 0x5B4 JUMP JUMPDEST SWAP3 SWAP2 POP POP JUMP JUMPDEST PUSH1 0x0 DUP1 PUSH1 0x20 DUP4 DUP6 SUB SLT ISZERO PUSH2 0x44C JUMPI PUSH1 0x0 DUP1 REVERT JUMPDEST PUSH1 0x0 DUP4 ADD CALLDATALOAD PUSH8 0xFFFFFFFFFFFFFFFF DUP2 GT ISZERO PUSH2 0x466 JUMPI PUSH1 0x0 DUP1 REVERT JUMPDEST PUSH2 0x472 DUP6 DUP3 DUP7 ADD PUSH2 0x3B0 JUMP JUMPDEST SWAP3 POP SWAP3 POP POP SWAP3 POP SWAP3 SWAP1 POP JUMP JUMPDEST PUSH1 0x0 PUSH1 0x20 DUP3 DUP5 SUB SLT ISZERO PUSH2 0x490 JUMPI PUSH1 0x0 DUP1 REVERT JUMPDEST PUSH1 0x0 DUP3 ADD CALLDATALOAD PUSH8 0xFFFFFFFFFFFFFFFF DUP2 GT ISZERO PUSH2 0x4AA JUMPI PUSH1 0x0 DUP1 REVERT JUMPDEST PUSH2 0x4B6 DUP5 DUP3 DUP6 ADD PUSH2 0x3FA JUMP JUMPDEST SWAP2 POP POP SWAP3 SWAP2 POP POP JUMP JUMPDEST PUSH1 0x0 PUSH1 0x20 DUP3 DUP5 SUB SLT ISZERO PUSH2 0x4D1 JUMPI PUSH1 0x0 DUP1 REVERT JUMPDEST PUSH1 0x0 PUSH2 0x4DF DUP5 DUP3 DUP6 ADD PUSH2 0x424 JUMP JUMPDEST SWAP2 POP POP SWAP3 SWAP2 POP POP JUMP JUMPDEST PUSH1 0x0 PUSH2 0x4F2 PUSH2 0x503 JUMP JUMPDEST SWAP1 POP PUSH2 0x4FE DUP3 DUP3 PUSH2 0x543 JUMP JUMPDEST SWAP2 SWAP1 POP JUMP JUMPDEST PUSH1 0x0 PUSH1 0x40 MLOAD SWAP1 POP SWAP1 JUMP JUMPDEST PUSH1 0x0 PUSH8 0xFFFFFFFFFFFFFFFF DUP3 GT ISZERO PUSH2 0x528 JUMPI PUSH2 0x527 PUSH2 0x574 JUMP JUMPDEST JUMPDEST PUSH1 0x20 DUP3 MUL SWAP1 POP PUSH1 0x20 DUP2 ADD SWAP1 POP SWAP2 SWAP1 POP JUMP JUMPDEST PUSH1 0x0 DUP2 SWAP1 POP SWAP2 SWAP1 POP JUMP JUMPDEST PUSH2 0x54C DUP3 PUSH2 0x5A3 JUMP JUMPDEST DUP2 ADD DUP2 DUP2 LT PUSH8 0xFFFFFFFFFFFFFFFF DUP3 GT OR ISZERO PUSH2 0x56B JUMPI PUSH2 0x56A PUSH2 0x574 JUMP JUMPDEST JUMPDEST DUP1 PUSH1 0x40 MSTORE POP POP POP JUMP JUMPDEST PUSH32 0x4E487B7100000000000000000000000000000000000000000000000000000000 PUSH1 0x0 MSTORE PUSH1 0x41 PUSH1 0x4 MSTORE PUSH1 0x24 PUSH1 0x0 REVERT JUMPDEST PUSH1 0x0 PUSH1 0x1F NOT PUSH1 0x1F DUP4 ADD AND SWAP1 POP SWAP2 SWAP1 POP JUMP JUMPDEST PUSH2 0x5BD DUP2 PUSH2 0x539 JUMP JUMPDEST DUP2 EQ PUSH2 0x5C8 JUMPI PUSH1 0x0 DUP1 REVERT JUMPDEST POP JUMP INVALID LOG2 PUSH5 0x6970667358 0x22 SLT KECCAK256 SWAP1 0x2B 0xB3 0xD1 DUP10 0xBB 0xA5 JUMP 0xCC 0x4E SLT PUSH21 0xF6DC92170DBC491158D82D6EFBE3AE5F2841C54B64 PUSH20 0x6F6C634300080300330000000000000000000000 "
		},
		"gasEstimates": {
			"creation": {
				"codeDepositCost": "307400",
				"executionCost": "infinite",
				"totalCost": "infinite"
			},
			"external": {
				"add(uint256)": "41307",
				"deleteItem()": "26971",
				"memoryArray()": "infinite",
				"parameterArray(uint256[])": "540",
				"parameterArrayMemory(uint256[])": "infinite",
				"setValue(uint256)": "20442"
			}
		},
		"methodIdentifiers": {
			"add(uint256)": "1003e2d2",
			"deleteItem()": "8b532f39",
			"memoryArray()": "500e1355",
			"parameterArray(uint256[])": "f4d25dfb",
			"parameterArrayMemory(uint256[])": "f4e2eece",
			"setValue(uint256)": "55241077"
		}
	},
	"abi": [
		{
			"inputs": [
				{
					"internalType": "uint256",
					"name": "_a",
					"type": "uint256"
				}
			],
			"stateMutability": "nonpayable",
			"type": "constructor"
		},
		{
			"inputs": [
				{
					"internalType": "uint256",
					"name": "_value",
					"type": "uint256"
				}
			],
			"name": "add",
			"outputs": [],
			"stateMutability": "nonpayable",
			"type": "function"
		},
		{
			"inputs": [],
			"name": "deleteItem",
			"outputs": [],
			"stateMutability": "nonpayable",
			"type": "function"
		},
		{
			"inputs": [],
			"name": "memoryArray",
			"outputs": [],
			"stateMutability": "nonpayable",
			"type": "function"
		},
		{
			"inputs": [
				{
					"internalType": "uint256[]",
					"name": "pArray",
					"type": "uint256[]"
				}
			],
			"name": "parameterArray",
			"outputs": [],
			"stateMutability": "nonpayable",
			"type": "function"
		},
		{
			"inputs": [
				{
					"internalType": "uint256[]",
					"name": "pArray",
					"type": "uint256[]"
				}
			],
			"name": "parameterArrayMemory",
			"outputs": [],
			"stateMutability": "nonpayable",
			"type": "function"
		},
		{
			"inputs": [
				{
					"internalType": "uint256",
					"name": "_value",
					"type": "uint256"
				}
			],
			"name": "setValue",
			"outputs": [],
			"stateMutability": "nonpayable",
			"type": "function"
		}
	]
}